{
	"contracts/CCIPTokenSender_flattened.sol": {
		"CCIPTokenSender": {
			"abi": [
				{
					"inputs": [],
					"stateMutability": "nonpayable",
					"type": "constructor"
				},
				{
					"inputs": [
						{
							"internalType": "contract IERC20",
							"name": "token",
							"type": "address"
						},
						{
							"internalType": "uint256",
							"name": "currentBalance",
							"type": "uint256"
						},
						{
							"internalType": "uint256",
							"name": "requiredAmount",
							"type": "uint256"
						}
					],
					"name": "CCIPTokenSender__InsufficientBalance",
					"type": "error"
				},
				{
					"inputs": [],
					"name": "CCIPTokenSender__NothingToWithdraw",
					"type": "error"
				},
				{
					"inputs": [
						{
							"internalType": "address",
							"name": "owner",
							"type": "address"
						}
					],
					"name": "OwnableInvalidOwner",
					"type": "error"
				},
				{
					"inputs": [
						{
							"internalType": "address",
							"name": "account",
							"type": "address"
						}
					],
					"name": "OwnableUnauthorizedAccount",
					"type": "error"
				},
				{
					"anonymous": false,
					"inputs": [
						{
							"indexed": true,
							"internalType": "address",
							"name": "previousOwner",
							"type": "address"
						},
						{
							"indexed": true,
							"internalType": "address",
							"name": "newOwner",
							"type": "address"
						}
					],
					"name": "OwnershipTransferred",
					"type": "event"
				},
				{
					"anonymous": false,
					"inputs": [
						{
							"indexed": false,
							"internalType": "bytes32",
							"name": "messageId",
							"type": "bytes32"
						},
						{
							"indexed": true,
							"internalType": "uint64",
							"name": "destinationChainSelector",
							"type": "uint64"
						},
						{
							"indexed": true,
							"internalType": "address",
							"name": "receiver",
							"type": "address"
						},
						{
							"indexed": false,
							"internalType": "uint256",
							"name": "amount",
							"type": "uint256"
						},
						{
							"indexed": false,
							"internalType": "uint256",
							"name": "ccipFee",
							"type": "uint256"
						}
					],
					"name": "USDCTransferred",
					"type": "event"
				},
				{
					"inputs": [],
					"name": "owner",
					"outputs": [
						{
							"internalType": "address",
							"name": "",
							"type": "address"
						}
					],
					"stateMutability": "view",
					"type": "function"
				},
				{
					"inputs": [],
					"name": "renounceOwnership",
					"outputs": [],
					"stateMutability": "nonpayable",
					"type": "function"
				},
				{
					"inputs": [
						{
							"internalType": "address",
							"name": "newOwner",
							"type": "address"
						}
					],
					"name": "transferOwnership",
					"outputs": [],
					"stateMutability": "nonpayable",
					"type": "function"
				},
				{
					"inputs": [
						{
							"internalType": "address",
							"name": "_receiver",
							"type": "address"
						},
						{
							"internalType": "uint256",
							"name": "_amount",
							"type": "uint256"
						}
					],
					"name": "transferTokens",
					"outputs": [
						{
							"internalType": "bytes32",
							"name": "messageId",
							"type": "bytes32"
						}
					],
					"stateMutability": "nonpayable",
					"type": "function"
				},
				{
					"inputs": [
						{
							"internalType": "address",
							"name": "_beneficiary",
							"type": "address"
						}
					],
					"name": "withdrawToken",
					"outputs": [],
					"stateMutability": "nonpayable",
					"type": "function"
				}
			],
			"devdoc": {
				"errors": {
					"OwnableInvalidOwner(address)": [
						{
							"details": "The owner is not a valid owner account. (eg. `address(0)`)"
						}
					],
					"OwnableUnauthorizedAccount(address)": [
						{
							"details": "The caller account is not authorized to perform an operation."
						}
					]
				},
				"kind": "dev",
				"methods": {
					"owner()": {
						"details": "Returns the address of the current owner."
					},
					"renounceOwnership()": {
						"details": "Leaves the contract without owner. It will not be possible to call `onlyOwner` functions. Can only be called by the current owner. NOTE: Renouncing ownership will leave the contract without an owner, thereby disabling any functionality that is only available to the owner."
					},
					"transferOwnership(address)": {
						"details": "Transfers ownership of the contract to a new account (`newOwner`). Can only be called by the current owner."
					}
				},
				"version": 1
			},
			"evm": {
				"assembly": "    /* \"contracts/CCIPTokenSender_flattened.sol\":25867:29089  contract CCIPTokenSender is Ownable {... */\n  mstore(0x40, 0x80)\n    /* \"contracts/CCIPTokenSender_flattened.sol\":27018:27054  constructor() Ownable(msg.sender) {} */\n  callvalue\n  dup1\n  iszero\n  tag_1\n  jumpi\n  revert(0x00, 0x00)\ntag_1:\n  pop\n    /* \"contracts/CCIPTokenSender_flattened.sol\":27040:27050  msg.sender */\n  caller\n    /* \"contracts/CCIPTokenSender_flattened.sol\":23813:23814  0 */\n  0x00\n    /* \"contracts/CCIPTokenSender_flattened.sol\":23789:23815  initialOwner == address(0) */\n  0xffffffffffffffffffffffffffffffffffffffff\n  and\n    /* \"contracts/CCIPTokenSender_flattened.sol\":23789:23801  initialOwner */\n  dup2\n    /* \"contracts/CCIPTokenSender_flattened.sol\":23789:23815  initialOwner == address(0) */\n  0xffffffffffffffffffffffffffffffffffffffff\n  and\n  sub\n    /* \"contracts/CCIPTokenSender_flattened.sol\":23785:23880  if (initialOwner == address(0)) {... */\n  tag_5\n  jumpi\n    /* \"contracts/CCIPTokenSender_flattened.sol\":23866:23867  0 */\n  0x00\n    /* \"contracts/CCIPTokenSender_flattened.sol\":23838:23869  OwnableInvalidOwner(address(0)) */\n  mload(0x40)\n  0x1e4fbdf700000000000000000000000000000000000000000000000000000000\n  dup2\n  mstore\n  0x04\n  add\n  tag_6\n  swap2\n  swap1\n  tag_7\n  jump\t// in\ntag_6:\n  mload(0x40)\n  dup1\n  swap2\n  sub\n  swap1\n  revert\n    /* \"contracts/CCIPTokenSender_flattened.sol\":23785:23880  if (initialOwner == address(0)) {... */\ntag_5:\n    /* \"contracts/CCIPTokenSender_flattened.sol\":23889:23921  _transferOwnership(initialOwner) */\n  tag_8\n    /* \"contracts/CCIPTokenSender_flattened.sol\":23908:23920  initialOwner */\n  dup2\n    /* \"contracts/CCIPTokenSender_flattened.sol\":23889:23907  _transferOwnership */\n  shl(0x20, tag_9)\n    /* \"contracts/CCIPTokenSender_flattened.sol\":23889:23921  _transferOwnership(initialOwner) */\n  0x20\n  shr\n  jump\t// in\ntag_8:\n    /* \"contracts/CCIPTokenSender_flattened.sol\":23741:23928  constructor(address initialOwner) {... */\n  pop\n    /* \"contracts/CCIPTokenSender_flattened.sol\":25867:29089  contract CCIPTokenSender is Ownable {... */\n  jump(tag_11)\n    /* \"contracts/CCIPTokenSender_flattened.sol\":25428:25615  function _transferOwnership(address newOwner) internal virtual {... */\ntag_9:\n    /* \"contracts/CCIPTokenSender_flattened.sol\":25501:25517  address oldOwner */\n  0x00\n    /* \"contracts/CCIPTokenSender_flattened.sol\":25520:25526  _owner */\n  0x00\n  0x00\n  swap1\n  sload\n  swap1\n  0x0100\n  exp\n  swap1\n  div\n  0xffffffffffffffffffffffffffffffffffffffff\n  and\n    /* \"contracts/CCIPTokenSender_flattened.sol\":25501:25526  address oldOwner = _owner */\n  swap1\n  pop\n    /* \"contracts/CCIPTokenSender_flattened.sol\":25545:25553  newOwner */\n  dup2\n    /* \"contracts/CCIPTokenSender_flattened.sol\":25536:25542  _owner */\n  0x00\n  0x00\n    /* \"contracts/CCIPTokenSender_flattened.sol\":25536:25553  _owner = newOwner */\n  0x0100\n  exp\n  dup2\n  sload\n  dup2\n  0xffffffffffffffffffffffffffffffffffffffff\n  mul\n  not\n  and\n  swap1\n  dup4\n  0xffffffffffffffffffffffffffffffffffffffff\n  and\n  mul\n  or\n  swap1\n  sstore\n  pop\n    /* \"contracts/CCIPTokenSender_flattened.sol\":25599:25607  newOwner */\n  dup2\n    /* \"contracts/CCIPTokenSender_flattened.sol\":25568:25608  OwnershipTransferred(oldOwner, newOwner) */\n  0xffffffffffffffffffffffffffffffffffffffff\n  and\n    /* \"contracts/CCIPTokenSender_flattened.sol\":25589:25597  oldOwner */\n  dup2\n    /* \"contracts/CCIPTokenSender_flattened.sol\":25568:25608  OwnershipTransferred(oldOwner, newOwner) */\n  0xffffffffffffffffffffffffffffffffffffffff\n  and\n  0x8be0079c531659141344cd1fd0a4f28419497f9722a3daafe3b4186f6b6457e0\n  mload(0x40)\n  mload(0x40)\n  dup1\n  swap2\n  sub\n  swap1\n  log3\n    /* \"contracts/CCIPTokenSender_flattened.sol\":25491:25615  {... */\n  pop\n    /* \"contracts/CCIPTokenSender_flattened.sol\":25428:25615  function _transferOwnership(address newOwner) internal virtual {... */\n  pop\n  jump\t// out\n    /* \"#utility.yul\":7:133   */\ntag_13:\n    /* \"#utility.yul\":44:51   */\n  0x00\n    /* \"#utility.yul\":84:126   */\n  0xffffffffffffffffffffffffffffffffffffffff\n    /* \"#utility.yul\":77:82   */\n  dup3\n    /* \"#utility.yul\":73:127   */\n  and\n    /* \"#utility.yul\":62:127   */\n  swap1\n  pop\n    /* \"#utility.yul\":7:133   */\n  swap2\n  swap1\n  pop\n  jump\t// out\n    /* \"#utility.yul\":139:235   */\ntag_14:\n    /* \"#utility.yul\":176:183   */\n  0x00\n    /* \"#utility.yul\":205:229   */\n  tag_19\n    /* \"#utility.yul\":223:228   */\n  dup3\n    /* \"#utility.yul\":205:229   */\n  tag_13\n  jump\t// in\ntag_19:\n    /* \"#utility.yul\":194:229   */\n  swap1\n  pop\n    /* \"#utility.yul\":139:235   */\n  swap2\n  swap1\n  pop\n  jump\t// out\n    /* \"#utility.yul\":241:359   */\ntag_15:\n    /* \"#utility.yul\":328:352   */\n  tag_21\n    /* \"#utility.yul\":346:351   */\n  dup2\n    /* \"#utility.yul\":328:352   */\n  tag_14\n  jump\t// in\ntag_21:\n    /* \"#utility.yul\":323:326   */\n  dup3\n    /* \"#utility.yul\":316:353   */\n  mstore\n    /* \"#utility.yul\":241:359   */\n  pop\n  pop\n  jump\t// out\n    /* \"#utility.yul\":365:587   */\ntag_7:\n    /* \"#utility.yul\":458:462   */\n  0x00\n    /* \"#utility.yul\":496:498   */\n  0x20\n    /* \"#utility.yul\":485:494   */\n  dup3\n    /* \"#utility.yul\":481:499   */\n  add\n    /* \"#utility.yul\":473:499   */\n  swap1\n  pop\n    /* \"#utility.yul\":509:580   */\n  tag_23\n    /* \"#utility.yul\":577:578   */\n  0x00\n    /* \"#utility.yul\":566:575   */\n  dup4\n    /* \"#utility.yul\":562:579   */\n  add\n    /* \"#utility.yul\":553:559   */\n  dup5\n    /* \"#utility.yul\":509:580   */\n  tag_15\n  jump\t// in\ntag_23:\n    /* \"#utility.yul\":365:587   */\n  swap3\n  swap2\n  pop\n  pop\n  jump\t// out\n    /* \"contracts/CCIPTokenSender_flattened.sol\":25867:29089  contract CCIPTokenSender is Ownable {... */\ntag_11:\n  dataSize(sub_0)\n  dup1\n  dataOffset(sub_0)\n  0x00\n  codecopy\n  0x00\n  return\nstop\n\nsub_0: assembly {\n        /* \"contracts/CCIPTokenSender_flattened.sol\":25867:29089  contract CCIPTokenSender is Ownable {... */\n      mstore(0x40, 0x80)\n      callvalue\n      dup1\n      iszero\n      tag_1\n      jumpi\n      revert(0x00, 0x00)\n    tag_1:\n      pop\n      jumpi(tag_2, lt(calldatasize, 0x04))\n      shr(0xe0, calldataload(0x00))\n      dup1\n      0x715018a6\n      eq\n      tag_3\n      jumpi\n      dup1\n      0x89476069\n      eq\n      tag_4\n      jumpi\n      dup1\n      0x8da5cb5b\n      eq\n      tag_5\n      jumpi\n      dup1\n      0xbec3fa17\n      eq\n      tag_6\n      jumpi\n      dup1\n      0xf2fde38b\n      eq\n      tag_7\n      jumpi\n    tag_2:\n      revert(0x00, 0x00)\n        /* \"contracts/CCIPTokenSender_flattened.sol\":24809:24910  function renounceOwnership() public virtual onlyOwner {... */\n    tag_3:\n      tag_8\n      tag_9\n      jump\t// in\n    tag_8:\n      stop\n        /* \"contracts/CCIPTokenSender_flattened.sol\":28805:29087  function withdrawToken(... */\n    tag_4:\n      tag_10\n      0x04\n      dup1\n      calldatasize\n      sub\n      dup2\n      add\n      swap1\n      tag_11\n      swap2\n      swap1\n      tag_12\n      jump\t// in\n    tag_11:\n      tag_13\n      jump\t// in\n    tag_10:\n      stop\n        /* \"contracts/CCIPTokenSender_flattened.sol\":24154:24239  function owner() public view virtual returns (address) {... */\n    tag_5:\n      tag_14\n      tag_15\n      jump\t// in\n    tag_14:\n      mload(0x40)\n      tag_16\n      swap2\n      swap1\n      tag_17\n      jump\t// in\n    tag_16:\n      mload(0x40)\n      dup1\n      swap2\n      sub\n      swap1\n      return\n        /* \"contracts/CCIPTokenSender_flattened.sol\":27060:28799  function transferTokens(... */\n    tag_6:\n      tag_18\n      0x04\n      dup1\n      calldatasize\n      sub\n      dup2\n      add\n      swap1\n      tag_19\n      swap2\n      swap1\n      tag_20\n      jump\t// in\n    tag_19:\n      tag_21\n      jump\t// in\n    tag_18:\n      mload(0x40)\n      tag_22\n      swap2\n      swap1\n      tag_23\n      jump\t// in\n    tag_22:\n      mload(0x40)\n      dup1\n      swap2\n      sub\n      swap1\n      return\n        /* \"contracts/CCIPTokenSender_flattened.sol\":25059:25274  function transferOwnership(address newOwner) public virtual onlyOwner {... */\n    tag_7:\n      tag_24\n      0x04\n      dup1\n      calldatasize\n      sub\n      dup2\n      add\n      swap1\n      tag_25\n      swap2\n      swap1\n      tag_12\n      jump\t// in\n    tag_25:\n      tag_26\n      jump\t// in\n    tag_24:\n      stop\n        /* \"contracts/CCIPTokenSender_flattened.sol\":24809:24910  function renounceOwnership() public virtual onlyOwner {... */\n    tag_9:\n        /* \"contracts/CCIPTokenSender_flattened.sol\":24047:24060  _checkOwner() */\n      tag_28\n        /* \"contracts/CCIPTokenSender_flattened.sol\":24047:24058  _checkOwner */\n      tag_29\n        /* \"contracts/CCIPTokenSender_flattened.sol\":24047:24060  _checkOwner() */\n      jump\t// in\n    tag_28:\n        /* \"contracts/CCIPTokenSender_flattened.sol\":24873:24903  _transferOwnership(address(0)) */\n      tag_31\n        /* \"contracts/CCIPTokenSender_flattened.sol\":24900:24901  0 */\n      0x00\n        /* \"contracts/CCIPTokenSender_flattened.sol\":24873:24891  _transferOwnership */\n      tag_32\n        /* \"contracts/CCIPTokenSender_flattened.sol\":24873:24903  _transferOwnership(address(0)) */\n      jump\t// in\n    tag_31:\n        /* \"contracts/CCIPTokenSender_flattened.sol\":24809:24910  function renounceOwnership() public virtual onlyOwner {... */\n      jump\t// out\n        /* \"contracts/CCIPTokenSender_flattened.sol\":28805:29087  function withdrawToken(... */\n    tag_13:\n        /* \"contracts/CCIPTokenSender_flattened.sol\":24047:24060  _checkOwner() */\n      tag_34\n        /* \"contracts/CCIPTokenSender_flattened.sol\":24047:24058  _checkOwner */\n      tag_29\n        /* \"contracts/CCIPTokenSender_flattened.sol\":24047:24060  _checkOwner() */\n      jump\t// in\n    tag_34:\n        /* \"contracts/CCIPTokenSender_flattened.sol\":28891:28905  uint256 amount */\n      0x00\n        /* \"contracts/CCIPTokenSender_flattened.sol\":26604:26646  0x1c7D4B196Cb0C7B01d743Fbc6116a902379C7238 */\n      0x1c7d4b196cb0c7b01d743fbc6116a902379c7238\n        /* \"contracts/CCIPTokenSender_flattened.sol\":28908:28936  IERC20(USDC_TOKEN).balanceOf */\n      0xffffffffffffffffffffffffffffffffffffffff\n      and\n      0x70a08231\n        /* \"contracts/CCIPTokenSender_flattened.sol\":28945:28949  this */\n      address\n        /* \"contracts/CCIPTokenSender_flattened.sol\":28908:28951  IERC20(USDC_TOKEN).balanceOf(address(this)) */\n      mload(0x40)\n      dup3\n      0xffffffff\n      and\n      0xe0\n      shl\n      dup2\n      mstore\n      0x04\n      add\n      tag_36\n      swap2\n      swap1\n      tag_17\n      jump\t// in\n    tag_36:\n      0x20\n      mload(0x40)\n      dup1\n      dup4\n      sub\n      dup2\n      dup7\n      gas\n      staticcall\n      iszero\n      dup1\n      iszero\n      tag_38\n      jumpi\n      returndatacopy(0x00, 0x00, returndatasize)\n      revert(0x00, returndatasize)\n    tag_38:\n      pop\n      pop\n      pop\n      pop\n      mload(0x40)\n      returndatasize\n      not(0x1f)\n      0x1f\n      dup3\n      add\n      and\n      dup3\n      add\n      dup1\n      0x40\n      mstore\n      pop\n      dup2\n      add\n      swap1\n      tag_39\n      swap2\n      swap1\n      tag_40\n      jump\t// in\n    tag_39:\n        /* \"contracts/CCIPTokenSender_flattened.sol\":28891:28951  uint256 amount = IERC20(USDC_TOKEN).balanceOf(address(this)) */\n      swap1\n      pop\n        /* \"contracts/CCIPTokenSender_flattened.sol\":28975:28976  0 */\n      0x00\n        /* \"contracts/CCIPTokenSender_flattened.sol\":28965:28971  amount */\n      dup2\n        /* \"contracts/CCIPTokenSender_flattened.sol\":28965:28976  amount == 0 */\n      sub\n        /* \"contracts/CCIPTokenSender_flattened.sol\":28961:29021  if (amount == 0) revert CCIPTokenSender__NothingToWithdraw() */\n      tag_41\n      jumpi\n        /* \"contracts/CCIPTokenSender_flattened.sol\":28985:29021  CCIPTokenSender__NothingToWithdraw() */\n      mload(0x40)\n      0x95a6ed4000000000000000000000000000000000000000000000000000000000\n      dup2\n      mstore\n      0x04\n      add\n      mload(0x40)\n      dup1\n      swap2\n      sub\n      swap1\n      revert\n        /* \"contracts/CCIPTokenSender_flattened.sol\":28961:29021  if (amount == 0) revert CCIPTokenSender__NothingToWithdraw() */\n    tag_41:\n        /* \"contracts/CCIPTokenSender_flattened.sol\":26604:26646  0x1c7D4B196Cb0C7B01d743Fbc6116a902379C7238 */\n      0x1c7d4b196cb0c7b01d743fbc6116a902379c7238\n        /* \"contracts/CCIPTokenSender_flattened.sol\":29031:29058  IERC20(USDC_TOKEN).transfer */\n      0xffffffffffffffffffffffffffffffffffffffff\n      and\n      0xa9059cbb\n        /* \"contracts/CCIPTokenSender_flattened.sol\":29059:29071  _beneficiary */\n      dup4\n        /* \"contracts/CCIPTokenSender_flattened.sol\":29073:29079  amount */\n      dup4\n        /* \"contracts/CCIPTokenSender_flattened.sol\":29031:29080  IERC20(USDC_TOKEN).transfer(_beneficiary, amount) */\n      mload(0x40)\n      dup4\n      0xffffffff\n      and\n      0xe0\n      shl\n      dup2\n      mstore\n      0x04\n      add\n      tag_42\n      swap3\n      swap2\n      swap1\n      tag_43\n      jump\t// in\n    tag_42:\n      0x20\n      mload(0x40)\n      dup1\n      dup4\n      sub\n      dup2\n      0x00\n      dup8\n      gas\n      call\n      iszero\n      dup1\n      iszero\n      tag_45\n      jumpi\n      returndatacopy(0x00, 0x00, returndatasize)\n      revert(0x00, returndatasize)\n    tag_45:\n      pop\n      pop\n      pop\n      pop\n      mload(0x40)\n      returndatasize\n      not(0x1f)\n      0x1f\n      dup3\n      add\n      and\n      dup3\n      add\n      dup1\n      0x40\n      mstore\n      pop\n      dup2\n      add\n      swap1\n      tag_46\n      swap2\n      swap1\n      tag_47\n      jump\t// in\n    tag_46:\n      pop\n        /* \"contracts/CCIPTokenSender_flattened.sol\":28881:29087  {... */\n      pop\n        /* \"contracts/CCIPTokenSender_flattened.sol\":28805:29087  function withdrawToken(... */\n      pop\n      jump\t// out\n        /* \"contracts/CCIPTokenSender_flattened.sol\":24154:24239  function owner() public view virtual returns (address) {... */\n    tag_15:\n        /* \"contracts/CCIPTokenSender_flattened.sol\":24200:24207  address */\n      0x00\n        /* \"contracts/CCIPTokenSender_flattened.sol\":24226:24232  _owner */\n      0x00\n      0x00\n      swap1\n      sload\n      swap1\n      0x0100\n      exp\n      swap1\n      div\n      0xffffffffffffffffffffffffffffffffffffffff\n      and\n        /* \"contracts/CCIPTokenSender_flattened.sol\":24219:24232  return _owner */\n      swap1\n      pop\n        /* \"contracts/CCIPTokenSender_flattened.sol\":24154:24239  function owner() public view virtual returns (address) {... */\n      swap1\n      jump\t// out\n        /* \"contracts/CCIPTokenSender_flattened.sol\":27060:28799  function transferTokens(... */\n    tag_21:\n        /* \"contracts/CCIPTokenSender_flattened.sol\":27176:27193  bytes32 messageId */\n      0x00\n        /* \"contracts/CCIPTokenSender_flattened.sol\":26604:26646  0x1c7D4B196Cb0C7B01d743Fbc6116a902379C7238 */\n      0x1c7d4b196cb0c7b01d743fbc6116a902379c7238\n        /* \"contracts/CCIPTokenSender_flattened.sol\":27223:27243  USDC_TOKEN.balanceOf */\n      0xffffffffffffffffffffffffffffffffffffffff\n      and\n      0x70a08231\n        /* \"contracts/CCIPTokenSender_flattened.sol\":27244:27254  msg.sender */\n      caller\n        /* \"contracts/CCIPTokenSender_flattened.sol\":27223:27255  USDC_TOKEN.balanceOf(msg.sender) */\n      mload(0x40)\n      dup3\n      0xffffffff\n      and\n      0xe0\n      shl\n      dup2\n      mstore\n      0x04\n      add\n      tag_50\n      swap2\n      swap1\n      tag_17\n      jump\t// in\n    tag_50:\n      0x20\n      mload(0x40)\n      dup1\n      dup4\n      sub\n      dup2\n      dup7\n      gas\n      staticcall\n      iszero\n      dup1\n      iszero\n      tag_52\n      jumpi\n      returndatacopy(0x00, 0x00, returndatasize)\n      revert(0x00, returndatasize)\n    tag_52:\n      pop\n      pop\n      pop\n      pop\n      mload(0x40)\n      returndatasize\n      not(0x1f)\n      0x1f\n      dup3\n      add\n      and\n      dup3\n      add\n      dup1\n      0x40\n      mstore\n      pop\n      dup2\n      add\n      swap1\n      tag_53\n      swap2\n      swap1\n      tag_40\n      jump\t// in\n    tag_53:\n        /* \"contracts/CCIPTokenSender_flattened.sol\":27213:27220  _amount */\n      dup3\n        /* \"contracts/CCIPTokenSender_flattened.sol\":27213:27255  _amount > USDC_TOKEN.balanceOf(msg.sender) */\n      gt\n        /* \"contracts/CCIPTokenSender_flattened.sol\":27209:27380  if (_amount > USDC_TOKEN.balanceOf(msg.sender)) {... */\n      iszero\n      tag_54\n      jumpi\n        /* \"contracts/CCIPTokenSender_flattened.sol\":26604:26646  0x1c7D4B196Cb0C7B01d743Fbc6116a902379C7238 */\n      0x1c7d4b196cb0c7b01d743fbc6116a902379c7238\n      dup1\n        /* \"contracts/CCIPTokenSender_flattened.sol\":27327:27347  USDC_TOKEN.balanceOf */\n      0xffffffffffffffffffffffffffffffffffffffff\n      and\n      0x70a08231\n        /* \"contracts/CCIPTokenSender_flattened.sol\":27348:27358  msg.sender */\n      caller\n        /* \"contracts/CCIPTokenSender_flattened.sol\":27327:27359  USDC_TOKEN.balanceOf(msg.sender) */\n      mload(0x40)\n      dup3\n      0xffffffff\n      and\n      0xe0\n      shl\n      dup2\n      mstore\n      0x04\n      add\n      tag_55\n      swap2\n      swap1\n      tag_17\n      jump\t// in\n    tag_55:\n      0x20\n      mload(0x40)\n      dup1\n      dup4\n      sub\n      dup2\n      dup7\n      gas\n      staticcall\n      iszero\n      dup1\n      iszero\n      tag_57\n      jumpi\n      returndatacopy(0x00, 0x00, returndatasize)\n      revert(0x00, returndatasize)\n    tag_57:\n      pop\n      pop\n      pop\n      pop\n      mload(0x40)\n      returndatasize\n      not(0x1f)\n      0x1f\n      dup3\n      add\n      and\n      dup3\n      add\n      dup1\n      0x40\n      mstore\n      pop\n      dup2\n      add\n      swap1\n      tag_58\n      swap2\n      swap1\n      tag_40\n      jump\t// in\n    tag_58:\n        /* \"contracts/CCIPTokenSender_flattened.sol\":27361:27368  _amount */\n      dup4\n        /* \"contracts/CCIPTokenSender_flattened.sol\":27278:27369  CCIPTokenSender__InsufficientBalance(USDC_TOKEN, USDC_TOKEN.balanceOf(msg.sender), _amount) */\n      mload(0x40)\n      0xefd3e43c00000000000000000000000000000000000000000000000000000000\n      dup2\n      mstore\n      0x04\n      add\n      tag_59\n      swap4\n      swap3\n      swap2\n      swap1\n      tag_60\n      jump\t// in\n    tag_59:\n      mload(0x40)\n      dup1\n      swap2\n      sub\n      swap1\n      revert\n        /* \"contracts/CCIPTokenSender_flattened.sol\":27209:27380  if (_amount > USDC_TOKEN.balanceOf(msg.sender)) {... */\n    tag_54:\n        /* \"contracts/CCIPTokenSender_flattened.sol\":27389:27444  Client.EVMTokenAmount[]... */\n      0x00\n        /* \"contracts/CCIPTokenSender_flattened.sol\":27475:27476  1 */\n      0x01\n        /* \"contracts/CCIPTokenSender_flattened.sol\":27447:27477  new Client.EVMTokenAmount[](1) */\n      0xffffffffffffffff\n      dup2\n      gt\n      iszero\n      tag_61\n      jumpi\n      tag_62\n      tag_63\n      jump\t// in\n    tag_62:\n    tag_61:\n      mload(0x40)\n      swap1\n      dup1\n      dup3\n      mstore\n      dup1\n      0x20\n      mul\n      0x20\n      add\n      dup3\n      add\n      0x40\n      mstore\n      dup1\n      iszero\n      tag_64\n      jumpi\n      dup2\n      0x20\n      add\n    tag_65:\n      tag_66\n      tag_67\n      jump\t// in\n    tag_66:\n      dup2\n      mstore\n      0x20\n      add\n      swap1\n      0x01\n      swap1\n      sub\n      swap1\n      dup2\n      tag_65\n      jumpi\n      swap1\n      pop\n    tag_64:\n      pop\n        /* \"contracts/CCIPTokenSender_flattened.sol\":27389:27477  Client.EVMTokenAmount[]... */\n      swap1\n      pop\n        /* \"contracts/CCIPTokenSender_flattened.sol\":27487:27527  Client.EVMTokenAmount memory tokenAmount */\n      0x00\n        /* \"contracts/CCIPTokenSender_flattened.sol\":27530:27632  Client.EVMTokenAmount({... */\n      mload(0x40)\n      dup1\n      0x40\n      add\n      0x40\n      mstore\n      dup1\n        /* \"contracts/CCIPTokenSender_flattened.sol\":26604:26646  0x1c7D4B196Cb0C7B01d743Fbc6116a902379C7238 */\n      0x1c7d4b196cb0c7b01d743fbc6116a902379c7238\n        /* \"contracts/CCIPTokenSender_flattened.sol\":27530:27632  Client.EVMTokenAmount({... */\n      0xffffffffffffffffffffffffffffffffffffffff\n      and\n      dup2\n      mstore\n      0x20\n      add\n        /* \"contracts/CCIPTokenSender_flattened.sol\":27614:27621  _amount */\n      dup6\n        /* \"contracts/CCIPTokenSender_flattened.sol\":27530:27632  Client.EVMTokenAmount({... */\n      dup2\n      mstore\n      pop\n        /* \"contracts/CCIPTokenSender_flattened.sol\":27487:27632  Client.EVMTokenAmount memory tokenAmount = Client.EVMTokenAmount({... */\n      swap1\n      pop\n        /* \"contracts/CCIPTokenSender_flattened.sol\":27660:27671  tokenAmount */\n      dup1\n        /* \"contracts/CCIPTokenSender_flattened.sol\":27642:27654  tokenAmounts */\n      dup3\n        /* \"contracts/CCIPTokenSender_flattened.sol\":27655:27656  0 */\n      0x00\n        /* \"contracts/CCIPTokenSender_flattened.sol\":27642:27657  tokenAmounts[0] */\n      dup2\n      mload\n      dup2\n      lt\n      tag_68\n      jumpi\n      tag_69\n      tag_70\n      jump\t// in\n    tag_69:\n    tag_68:\n      0x20\n      mul\n      0x20\n      add\n      add\n        /* \"contracts/CCIPTokenSender_flattened.sol\":27642:27671  tokenAmounts[0] = tokenAmount */\n      dup2\n      swap1\n      mstore\n      pop\n        /* \"contracts/CCIPTokenSender_flattened.sol\":27682:27718  Client.EVM2AnyMessage memory message */\n      0x00\n        /* \"contracts/CCIPTokenSender_flattened.sol\":27721:28016  Client.EVM2AnyMessage({... */\n      mload(0x40)\n      dup1\n      0xa0\n      add\n      0x40\n      mstore\n      dup1\n        /* \"contracts/CCIPTokenSender_flattened.sol\":27778:27787  _receiver */\n      dup8\n        /* \"contracts/CCIPTokenSender_flattened.sol\":27767:27788  abi.encode(_receiver) */\n      add(0x20, mload(0x40))\n      tag_71\n      swap2\n      swap1\n      tag_17\n      jump\t// in\n    tag_71:\n      mload(0x40)\n      0x20\n      dup2\n      dup4\n      sub\n      sub\n      dup2\n      mstore\n      swap1\n      0x40\n      mstore\n        /* \"contracts/CCIPTokenSender_flattened.sol\":27721:28016  Client.EVM2AnyMessage({... */\n      dup2\n      mstore\n      0x20\n      add\n      mload(0x40)\n      dup1\n      0x20\n      add\n      0x40\n      mstore\n      dup1\n      0x00\n      dup2\n      mstore\n      pop\n      dup2\n      mstore\n      0x20\n      add\n        /* \"contracts/CCIPTokenSender_flattened.sol\":27838:27850  tokenAmounts */\n      dup5\n        /* \"contracts/CCIPTokenSender_flattened.sol\":27721:28016  Client.EVM2AnyMessage({... */\n      dup2\n      mstore\n      0x20\n      add\n        /* \"contracts/CCIPTokenSender_flattened.sol\":26435:26477  0x779877A7B0D9E8603169DdbD7836e478b4624789 */\n      0x779877a7b0d9e8603169ddbd7836e478b4624789\n        /* \"contracts/CCIPTokenSender_flattened.sol\":27721:28016  Client.EVM2AnyMessage({... */\n      0xffffffffffffffffffffffffffffffffffffffff\n      and\n      dup2\n      mstore\n      0x20\n      add\n        /* \"contracts/CCIPTokenSender_flattened.sol\":27875:27962  Client._argsToBytes(... */\n      tag_72\n        /* \"contracts/CCIPTokenSender_flattened.sol\":27912:27948  Client.EVMExtraArgsV1({gasLimit: 0}) */\n      mload(0x40)\n      dup1\n      0x20\n      add\n      0x40\n      mstore\n      dup1\n        /* \"contracts/CCIPTokenSender_flattened.sol\":27945:27946  0 */\n      0x00\n        /* \"contracts/CCIPTokenSender_flattened.sol\":27912:27948  Client.EVMExtraArgsV1({gasLimit: 0}) */\n      dup2\n      mstore\n      pop\n        /* \"contracts/CCIPTokenSender_flattened.sol\":27875:27894  Client._argsToBytes */\n      tag_73\n        /* \"contracts/CCIPTokenSender_flattened.sol\":27875:27962  Client._argsToBytes(... */\n      jump\t// in\n    tag_72:\n        /* \"contracts/CCIPTokenSender_flattened.sol\":27721:28016  Client.EVM2AnyMessage({... */\n      dup2\n      mstore\n      pop\n        /* \"contracts/CCIPTokenSender_flattened.sol\":27682:28016  Client.EVM2AnyMessage memory message = Client.EVM2AnyMessage({... */\n      swap1\n      pop\n        /* \"contracts/CCIPTokenSender_flattened.sol\":28027:28042  uint256 ccipFee */\n      0x00\n        /* \"contracts/CCIPTokenSender_flattened.sol\":26255:26297  0x0BF3dE8c5D3e8A2B34D2BEeB17ABfCeBaf363A59 */\n      0x0bf3de8c5d3e8a2b34d2beeb17abfcebaf363a59\n        /* \"contracts/CCIPTokenSender_flattened.sol\":28045:28063  CCIP_ROUTER.getFee */\n      0xffffffffffffffffffffffffffffffffffffffff\n      and\n      0x20487ded\n        /* \"contracts/CCIPTokenSender_flattened.sol\":26798:26818  10344971235874465080 */\n      0x8f90b8876dee6538\n        /* \"contracts/CCIPTokenSender_flattened.sol\":28117:28124  message */\n      dup5\n        /* \"contracts/CCIPTokenSender_flattened.sol\":28045:28134  CCIP_ROUTER.getFee(... */\n      mload(0x40)\n      dup4\n      0xffffffff\n      and\n      0xe0\n      shl\n      dup2\n      mstore\n      0x04\n      add\n      tag_74\n      swap3\n      swap2\n      swap1\n      tag_75\n      jump\t// in\n    tag_74:\n      0x20\n      mload(0x40)\n      dup1\n      dup4\n      sub\n      dup2\n      dup7\n      gas\n      staticcall\n      iszero\n      dup1\n      iszero\n      tag_77\n      jumpi\n      returndatacopy(0x00, 0x00, returndatasize)\n      revert(0x00, returndatasize)\n    tag_77:\n      pop\n      pop\n      pop\n      pop\n      mload(0x40)\n      returndatasize\n      not(0x1f)\n      0x1f\n      dup3\n      add\n      and\n      dup3\n      add\n      dup1\n      0x40\n      mstore\n      pop\n      dup2\n      add\n      swap1\n      tag_78\n      swap2\n      swap1\n      tag_40\n      jump\t// in\n    tag_78:\n        /* \"contracts/CCIPTokenSender_flattened.sol\":28027:28134  uint256 ccipFee = CCIP_ROUTER.getFee(... */\n      swap1\n      pop\n        /* \"contracts/CCIPTokenSender_flattened.sol\":26435:26477  0x779877A7B0D9E8603169DdbD7836e478b4624789 */\n      0x779877a7b0d9e8603169ddbd7836e478b4624789\n        /* \"contracts/CCIPTokenSender_flattened.sol\":28159:28179  LINK_TOKEN.balanceOf */\n      0xffffffffffffffffffffffffffffffffffffffff\n      and\n      0x70a08231\n        /* \"contracts/CCIPTokenSender_flattened.sol\":28188:28192  this */\n      address\n        /* \"contracts/CCIPTokenSender_flattened.sol\":28159:28194  LINK_TOKEN.balanceOf(address(this)) */\n      mload(0x40)\n      dup3\n      0xffffffff\n      and\n      0xe0\n      shl\n      dup2\n      mstore\n      0x04\n      add\n      tag_79\n      swap2\n      swap1\n      tag_17\n      jump\t// in\n    tag_79:\n      0x20\n      mload(0x40)\n      dup1\n      dup4\n      sub\n      dup2\n      dup7\n      gas\n      staticcall\n      iszero\n      dup1\n      iszero\n      tag_81\n      jumpi\n      returndatacopy(0x00, 0x00, returndatasize)\n      revert(0x00, returndatasize)\n    tag_81:\n      pop\n      pop\n      pop\n      pop\n      mload(0x40)\n      returndatasize\n      not(0x1f)\n      0x1f\n      dup3\n      add\n      and\n      dup3\n      add\n      dup1\n      0x40\n      mstore\n      pop\n      dup2\n      add\n      swap1\n      tag_82\n      swap2\n      swap1\n      tag_40\n      jump\t// in\n    tag_82:\n        /* \"contracts/CCIPTokenSender_flattened.sol\":28149:28156  ccipFee */\n      dup2\n        /* \"contracts/CCIPTokenSender_flattened.sol\":28149:28194  ccipFee > LINK_TOKEN.balanceOf(address(this)) */\n      gt\n        /* \"contracts/CCIPTokenSender_flattened.sol\":28145:28322  if (ccipFee > LINK_TOKEN.balanceOf(address(this))) {... */\n      iszero\n      tag_83\n      jumpi\n        /* \"contracts/CCIPTokenSender_flattened.sol\":26435:26477  0x779877A7B0D9E8603169DdbD7836e478b4624789 */\n      0x779877a7b0d9e8603169ddbd7836e478b4624789\n      dup1\n        /* \"contracts/CCIPTokenSender_flattened.sol\":28266:28286  LINK_TOKEN.balanceOf */\n      0xffffffffffffffffffffffffffffffffffffffff\n      and\n      0x70a08231\n        /* \"contracts/CCIPTokenSender_flattened.sol\":28295:28299  this */\n      address\n        /* \"contracts/CCIPTokenSender_flattened.sol\":28266:28301  LINK_TOKEN.balanceOf(address(this)) */\n      mload(0x40)\n      dup3\n      0xffffffff\n      and\n      0xe0\n      shl\n      dup2\n      mstore\n      0x04\n      add\n      tag_84\n      swap2\n      swap1\n      tag_17\n      jump\t// in\n    tag_84:\n      0x20\n      mload(0x40)\n      dup1\n      dup4\n      sub\n      dup2\n      dup7\n      gas\n      staticcall\n      iszero\n      dup1\n      iszero\n      tag_86\n      jumpi\n      returndatacopy(0x00, 0x00, returndatasize)\n      revert(0x00, returndatasize)\n    tag_86:\n      pop\n      pop\n      pop\n      pop\n      mload(0x40)\n      returndatasize\n      not(0x1f)\n      0x1f\n      dup3\n      add\n      and\n      dup3\n      add\n      dup1\n      0x40\n      mstore\n      pop\n      dup2\n      add\n      swap1\n      tag_87\n      swap2\n      swap1\n      tag_40\n      jump\t// in\n    tag_87:\n        /* \"contracts/CCIPTokenSender_flattened.sol\":28303:28310  ccipFee */\n      dup3\n        /* \"contracts/CCIPTokenSender_flattened.sol\":28217:28311  CCIPTokenSender__InsufficientBalance(LINK_TOKEN, LINK_TOKEN.balanceOf(address(this)), ccipFee) */\n      mload(0x40)\n      0xefd3e43c00000000000000000000000000000000000000000000000000000000\n      dup2\n      mstore\n      0x04\n      add\n      tag_88\n      swap4\n      swap3\n      swap2\n      swap1\n      tag_60\n      jump\t// in\n    tag_88:\n      mload(0x40)\n      dup1\n      swap2\n      sub\n      swap1\n      revert\n        /* \"contracts/CCIPTokenSender_flattened.sol\":28145:28322  if (ccipFee > LINK_TOKEN.balanceOf(address(this))) {... */\n    tag_83:\n        /* \"contracts/CCIPTokenSender_flattened.sol\":26435:26477  0x779877A7B0D9E8603169DdbD7836e478b4624789 */\n      0x779877a7b0d9e8603169ddbd7836e478b4624789\n        /* \"contracts/CCIPTokenSender_flattened.sol\":28332:28350  LINK_TOKEN.approve */\n      0xffffffffffffffffffffffffffffffffffffffff\n      and\n      0x095ea7b3\n        /* \"contracts/CCIPTokenSender_flattened.sol\":26255:26297  0x0BF3dE8c5D3e8A2B34D2BEeB17ABfCeBaf363A59 */\n      0x0bf3de8c5d3e8a2b34d2beeb17abfcebaf363a59\n        /* \"contracts/CCIPTokenSender_flattened.sol\":28373:28380  ccipFee */\n      dup4\n        /* \"contracts/CCIPTokenSender_flattened.sol\":28332:28381  LINK_TOKEN.approve(address(CCIP_ROUTER), ccipFee) */\n      mload(0x40)\n      dup4\n      0xffffffff\n      and\n      0xe0\n      shl\n      dup2\n      mstore\n      0x04\n      add\n      tag_89\n      swap3\n      swap2\n      swap1\n      tag_43\n      jump\t// in\n    tag_89:\n      0x20\n      mload(0x40)\n      dup1\n      dup4\n      sub\n      dup2\n      0x00\n      dup8\n      gas\n      call\n      iszero\n      dup1\n      iszero\n      tag_91\n      jumpi\n      returndatacopy(0x00, 0x00, returndatasize)\n      revert(0x00, returndatasize)\n    tag_91:\n      pop\n      pop\n      pop\n      pop\n      mload(0x40)\n      returndatasize\n      not(0x1f)\n      0x1f\n      dup3\n      add\n      and\n      dup3\n      add\n      dup1\n      0x40\n      mstore\n      pop\n      dup2\n      add\n      swap1\n      tag_92\n      swap2\n      swap1\n      tag_47\n      jump\t// in\n    tag_92:\n      pop\n        /* \"contracts/CCIPTokenSender_flattened.sol\":28392:28455  USDC_TOKEN.safeTransferFrom(msg.sender, address(this), _amount) */\n      tag_93\n        /* \"contracts/CCIPTokenSender_flattened.sol\":28420:28430  msg.sender */\n      caller\n        /* \"contracts/CCIPTokenSender_flattened.sol\":28440:28444  this */\n      address\n        /* \"contracts/CCIPTokenSender_flattened.sol\":28447:28454  _amount */\n      dup9\n        /* \"contracts/CCIPTokenSender_flattened.sol\":26604:26646  0x1c7D4B196Cb0C7B01d743Fbc6116a902379C7238 */\n      0x1c7d4b196cb0c7b01d743fbc6116a902379c7238\n        /* \"contracts/CCIPTokenSender_flattened.sol\":28392:28419  USDC_TOKEN.safeTransferFrom */\n      0xffffffffffffffffffffffffffffffffffffffff\n      and\n      tag_94\n      swap1\n        /* \"contracts/CCIPTokenSender_flattened.sol\":28392:28455  USDC_TOKEN.safeTransferFrom(msg.sender, address(this), _amount) */\n      swap4\n      swap3\n      swap2\n      swap1\n      0xffffffff\n      and\n      jump\t// in\n    tag_93:\n        /* \"contracts/CCIPTokenSender_flattened.sol\":26604:26646  0x1c7D4B196Cb0C7B01d743Fbc6116a902379C7238 */\n      0x1c7d4b196cb0c7b01d743fbc6116a902379c7238\n        /* \"contracts/CCIPTokenSender_flattened.sol\":28465:28483  USDC_TOKEN.approve */\n      0xffffffffffffffffffffffffffffffffffffffff\n      and\n      0x095ea7b3\n        /* \"contracts/CCIPTokenSender_flattened.sol\":26255:26297  0x0BF3dE8c5D3e8A2B34D2BEeB17ABfCeBaf363A59 */\n      0x0bf3de8c5d3e8a2b34d2beeb17abfcebaf363a59\n        /* \"contracts/CCIPTokenSender_flattened.sol\":28506:28513  _amount */\n      dup9\n        /* \"contracts/CCIPTokenSender_flattened.sol\":28465:28514  USDC_TOKEN.approve(address(CCIP_ROUTER), _amount) */\n      mload(0x40)\n      dup4\n      0xffffffff\n      and\n      0xe0\n      shl\n      dup2\n      mstore\n      0x04\n      add\n      tag_95\n      swap3\n      swap2\n      swap1\n      tag_43\n      jump\t// in\n    tag_95:\n      0x20\n      mload(0x40)\n      dup1\n      dup4\n      sub\n      dup2\n      0x00\n      dup8\n      gas\n      call\n      iszero\n      dup1\n      iszero\n      tag_97\n      jumpi\n      returndatacopy(0x00, 0x00, returndatasize)\n      revert(0x00, returndatasize)\n    tag_97:\n      pop\n      pop\n      pop\n      pop\n      mload(0x40)\n      returndatasize\n      not(0x1f)\n      0x1f\n      dup3\n      add\n      and\n      dup3\n      add\n      dup1\n      0x40\n      mstore\n      pop\n      dup2\n      add\n      swap1\n      tag_98\n      swap2\n      swap1\n      tag_47\n      jump\t// in\n    tag_98:\n      pop\n        /* \"contracts/CCIPTokenSender_flattened.sol\":26255:26297  0x0BF3dE8c5D3e8A2B34D2BEeB17ABfCeBaf363A59 */\n      0x0bf3de8c5d3e8a2b34d2beeb17abfcebaf363a59\n        /* \"contracts/CCIPTokenSender_flattened.sol\":28566:28586  CCIP_ROUTER.ccipSend */\n      0xffffffffffffffffffffffffffffffffffffffff\n      and\n      0x96f4e9f9\n        /* \"contracts/CCIPTokenSender_flattened.sol\":26798:26818  10344971235874465080 */\n      0x8f90b8876dee6538\n        /* \"contracts/CCIPTokenSender_flattened.sol\":28615:28622  message */\n      dup5\n        /* \"contracts/CCIPTokenSender_flattened.sol\":28566:28623  CCIP_ROUTER.ccipSend(DESTINATION_CHAIN_SELECTOR, message) */\n      mload(0x40)\n      dup4\n      0xffffffff\n      and\n      0xe0\n      shl\n      dup2\n      mstore\n      0x04\n      add\n      tag_99\n      swap3\n      swap2\n      swap1\n      tag_75\n      jump\t// in\n    tag_99:\n      0x20\n      mload(0x40)\n      dup1\n      dup4\n      sub\n      dup2\n      0x00\n      dup8\n      gas\n      call\n      iszero\n      dup1\n      iszero\n      tag_101\n      jumpi\n      returndatacopy(0x00, 0x00, returndatasize)\n      revert(0x00, returndatasize)\n    tag_101:\n      pop\n      pop\n      pop\n      pop\n      mload(0x40)\n      returndatasize\n      not(0x1f)\n      0x1f\n      dup3\n      add\n      and\n      dup3\n      add\n      dup1\n      0x40\n      mstore\n      pop\n      dup2\n      add\n      swap1\n      tag_102\n      swap2\n      swap1\n      tag_103\n      jump\t// in\n    tag_102:\n        /* \"contracts/CCIPTokenSender_flattened.sol\":28554:28623  messageId = CCIP_ROUTER.ccipSend(DESTINATION_CHAIN_SELECTOR, message) */\n      swap5\n      pop\n        /* \"contracts/CCIPTokenSender_flattened.sol\":28731:28740  _receiver */\n      dup7\n        /* \"contracts/CCIPTokenSender_flattened.sol\":28639:28792  USDCTransferred(... */\n      0xffffffffffffffffffffffffffffffffffffffff\n      and\n        /* \"contracts/CCIPTokenSender_flattened.sol\":26798:26818  10344971235874465080 */\n      0x8f90b8876dee6538\n        /* \"contracts/CCIPTokenSender_flattened.sol\":28639:28792  USDCTransferred(... */\n      0xffffffffffffffff\n      and\n      0xeca040c7df5d1a8ea4277fa1a77f55e8ef67b6fcf617a6fc6b16067f5f7547b5\n        /* \"contracts/CCIPTokenSender_flattened.sol\":28668:28677  messageId */\n      dup8\n        /* \"contracts/CCIPTokenSender_flattened.sol\":28754:28761  _amount */\n      dup10\n        /* \"contracts/CCIPTokenSender_flattened.sol\":28775:28782  ccipFee */\n      dup6\n        /* \"contracts/CCIPTokenSender_flattened.sol\":28639:28792  USDCTransferred(... */\n      mload(0x40)\n      tag_104\n      swap4\n      swap3\n      swap2\n      swap1\n      tag_105\n      jump\t// in\n    tag_104:\n      mload(0x40)\n      dup1\n      swap2\n      sub\n      swap1\n      log3\n        /* \"contracts/CCIPTokenSender_flattened.sol\":27199:28799  {... */\n      pop\n      pop\n      pop\n      pop\n        /* \"contracts/CCIPTokenSender_flattened.sol\":27060:28799  function transferTokens(... */\n      swap3\n      swap2\n      pop\n      pop\n      jump\t// out\n        /* \"contracts/CCIPTokenSender_flattened.sol\":25059:25274  function transferOwnership(address newOwner) public virtual onlyOwner {... */\n    tag_26:\n        /* \"contracts/CCIPTokenSender_flattened.sol\":24047:24060  _checkOwner() */\n      tag_107\n        /* \"contracts/CCIPTokenSender_flattened.sol\":24047:24058  _checkOwner */\n      tag_29\n        /* \"contracts/CCIPTokenSender_flattened.sol\":24047:24060  _checkOwner() */\n      jump\t// in\n    tag_107:\n        /* \"contracts/CCIPTokenSender_flattened.sol\":25163:25164  0 */\n      0x00\n        /* \"contracts/CCIPTokenSender_flattened.sol\":25143:25165  newOwner == address(0) */\n      0xffffffffffffffffffffffffffffffffffffffff\n      and\n        /* \"contracts/CCIPTokenSender_flattened.sol\":25143:25151  newOwner */\n      dup2\n        /* \"contracts/CCIPTokenSender_flattened.sol\":25143:25165  newOwner == address(0) */\n      0xffffffffffffffffffffffffffffffffffffffff\n      and\n      sub\n        /* \"contracts/CCIPTokenSender_flattened.sol\":25139:25230  if (newOwner == address(0)) {... */\n      tag_109\n      jumpi\n        /* \"contracts/CCIPTokenSender_flattened.sol\":25216:25217  0 */\n      0x00\n        /* \"contracts/CCIPTokenSender_flattened.sol\":25188:25219  OwnableInvalidOwner(address(0)) */\n      mload(0x40)\n      0x1e4fbdf700000000000000000000000000000000000000000000000000000000\n      dup2\n      mstore\n      0x04\n      add\n      tag_110\n      swap2\n      swap1\n      tag_17\n      jump\t// in\n    tag_110:\n      mload(0x40)\n      dup1\n      swap2\n      sub\n      swap1\n      revert\n        /* \"contracts/CCIPTokenSender_flattened.sol\":25139:25230  if (newOwner == address(0)) {... */\n    tag_109:\n        /* \"contracts/CCIPTokenSender_flattened.sol\":25239:25267  _transferOwnership(newOwner) */\n      tag_111\n        /* \"contracts/CCIPTokenSender_flattened.sol\":25258:25266  newOwner */\n      dup2\n        /* \"contracts/CCIPTokenSender_flattened.sol\":25239:25257  _transferOwnership */\n      tag_32\n        /* \"contracts/CCIPTokenSender_flattened.sol\":25239:25267  _transferOwnership(newOwner) */\n      jump\t// in\n    tag_111:\n        /* \"contracts/CCIPTokenSender_flattened.sol\":25059:25274  function transferOwnership(address newOwner) public virtual onlyOwner {... */\n      pop\n      jump\t// out\n        /* \"contracts/CCIPTokenSender_flattened.sol\":24312:24474  function _checkOwner() internal view virtual {... */\n    tag_29:\n        /* \"contracts/CCIPTokenSender_flattened.sol\":24382:24394  _msgSender() */\n      tag_113\n        /* \"contracts/CCIPTokenSender_flattened.sol\":24382:24392  _msgSender */\n      tag_114\n        /* \"contracts/CCIPTokenSender_flattened.sol\":24382:24394  _msgSender() */\n      jump\t// in\n    tag_113:\n        /* \"contracts/CCIPTokenSender_flattened.sol\":24371:24394  owner() != _msgSender() */\n      0xffffffffffffffffffffffffffffffffffffffff\n      and\n        /* \"contracts/CCIPTokenSender_flattened.sol\":24371:24378  owner() */\n      tag_115\n        /* \"contracts/CCIPTokenSender_flattened.sol\":24371:24376  owner */\n      tag_15\n        /* \"contracts/CCIPTokenSender_flattened.sol\":24371:24378  owner() */\n      jump\t// in\n    tag_115:\n        /* \"contracts/CCIPTokenSender_flattened.sol\":24371:24394  owner() != _msgSender() */\n      0xffffffffffffffffffffffffffffffffffffffff\n      and\n      eq\n        /* \"contracts/CCIPTokenSender_flattened.sol\":24367:24468  if (owner() != _msgSender()) {... */\n      tag_116\n      jumpi\n        /* \"contracts/CCIPTokenSender_flattened.sol\":24444:24456  _msgSender() */\n      tag_117\n        /* \"contracts/CCIPTokenSender_flattened.sol\":24444:24454  _msgSender */\n      tag_114\n        /* \"contracts/CCIPTokenSender_flattened.sol\":24444:24456  _msgSender() */\n      jump\t// in\n    tag_117:\n        /* \"contracts/CCIPTokenSender_flattened.sol\":24417:24457  OwnableUnauthorizedAccount(_msgSender()) */\n      mload(0x40)\n      0x118cdaa700000000000000000000000000000000000000000000000000000000\n      dup2\n      mstore\n      0x04\n      add\n      tag_118\n      swap2\n      swap1\n      tag_17\n      jump\t// in\n    tag_118:\n      mload(0x40)\n      dup1\n      swap2\n      sub\n      swap1\n      revert\n        /* \"contracts/CCIPTokenSender_flattened.sol\":24367:24468  if (owner() != _msgSender()) {... */\n    tag_116:\n        /* \"contracts/CCIPTokenSender_flattened.sol\":24312:24474  function _checkOwner() internal view virtual {... */\n      jump\t// out\n        /* \"contracts/CCIPTokenSender_flattened.sol\":25428:25615  function _transferOwnership(address newOwner) internal virtual {... */\n    tag_32:\n        /* \"contracts/CCIPTokenSender_flattened.sol\":25501:25517  address oldOwner */\n      0x00\n        /* \"contracts/CCIPTokenSender_flattened.sol\":25520:25526  _owner */\n      0x00\n      0x00\n      swap1\n      sload\n      swap1\n      0x0100\n      exp\n      swap1\n      div\n      0xffffffffffffffffffffffffffffffffffffffff\n      and\n        /* \"contracts/CCIPTokenSender_flattened.sol\":25501:25526  address oldOwner = _owner */\n      swap1\n      pop\n        /* \"contracts/CCIPTokenSender_flattened.sol\":25545:25553  newOwner */\n      dup2\n        /* \"contracts/CCIPTokenSender_flattened.sol\":25536:25542  _owner */\n      0x00\n      0x00\n        /* \"contracts/CCIPTokenSender_flattened.sol\":25536:25553  _owner = newOwner */\n      0x0100\n      exp\n      dup2\n      sload\n      dup2\n      0xffffffffffffffffffffffffffffffffffffffff\n      mul\n      not\n      and\n      swap1\n      dup4\n      0xffffffffffffffffffffffffffffffffffffffff\n      and\n      mul\n      or\n      swap1\n      sstore\n      pop\n        /* \"contracts/CCIPTokenSender_flattened.sol\":25599:25607  newOwner */\n      dup2\n        /* \"contracts/CCIPTokenSender_flattened.sol\":25568:25608  OwnershipTransferred(oldOwner, newOwner) */\n      0xffffffffffffffffffffffffffffffffffffffff\n      and\n        /* \"contracts/CCIPTokenSender_flattened.sol\":25589:25597  oldOwner */\n      dup2\n        /* \"contracts/CCIPTokenSender_flattened.sol\":25568:25608  OwnershipTransferred(oldOwner, newOwner) */\n      0xffffffffffffffffffffffffffffffffffffffff\n      and\n      0x8be0079c531659141344cd1fd0a4f28419497f9722a3daafe3b4186f6b6457e0\n      mload(0x40)\n      mload(0x40)\n      dup1\n      swap2\n      sub\n      swap1\n      log3\n        /* \"contracts/CCIPTokenSender_flattened.sol\":25491:25615  {... */\n      pop\n        /* \"contracts/CCIPTokenSender_flattened.sol\":25428:25615  function _transferOwnership(address newOwner) internal virtual {... */\n      pop\n      jump\t// out\n        /* \"contracts/CCIPTokenSender_flattened.sol\":1328:1506  function _argsToBytes(... */\n    tag_73:\n        /* \"contracts/CCIPTokenSender_flattened.sol\":1414:1430  bytes memory bts */\n      0x60\n        /* \"contracts/CCIPTokenSender_flattened.sol\":1260:1270  0x97a657c9 */\n      0x97a657c9\n        /* \"contracts/CCIPTokenSender_flattened.sol\":1468:1489  EVM_EXTRA_ARGS_V1_TAG */\n      0xe0\n      shl\n        /* \"contracts/CCIPTokenSender_flattened.sol\":1491:1500  extraArgs */\n      dup3\n        /* \"contracts/CCIPTokenSender_flattened.sol\":1445:1501  abi.encodeWithSelector(EVM_EXTRA_ARGS_V1_TAG, extraArgs) */\n      add(0x24, mload(0x40))\n      tag_121\n      swap2\n      swap1\n      tag_122\n      jump\t// in\n    tag_121:\n      mload(0x40)\n      0x20\n      dup2\n      dup4\n      sub\n      sub\n      dup2\n      mstore\n      swap1\n      0x40\n      mstore\n      swap1\n      not(0xffffffffffffffffffffffffffffffffffffffffffffffffffffffff)\n      and\n      0x20\n      dup3\n      add\n      dup1\n      mload\n      0xffffffffffffffffffffffffffffffffffffffffffffffffffffffff\n      dup4\n      dup2\n      dup4\n      and\n      or\n      dup4\n      mstore\n      pop\n      pop\n      pop\n      pop\n        /* \"contracts/CCIPTokenSender_flattened.sol\":1438:1501  return abi.encodeWithSelector(EVM_EXTRA_ARGS_V1_TAG, extraArgs) */\n      swap1\n      pop\n        /* \"contracts/CCIPTokenSender_flattened.sol\":1328:1506  function _argsToBytes(... */\n      swap2\n      swap1\n      pop\n      jump\t// out\n        /* \"contracts/CCIPTokenSender_flattened.sol\":18402:18599  function safeTransferFrom(IERC20 token, address from, address to, uint256 value) internal {... */\n    tag_94:\n        /* \"contracts/CCIPTokenSender_flattened.sol\":18498:18594  _callOptionalReturn(token, abi.encodeWithSelector(token.transferFrom.selector, from, to, value)) */\n      tag_124\n        /* \"contracts/CCIPTokenSender_flattened.sol\":18518:18523  token */\n      dup5\n        /* \"contracts/CCIPTokenSender_flattened.sol\":18548:18575  token.transferFrom.selector */\n      shl(0xe0, 0x23b872dd)\n        /* \"contracts/CCIPTokenSender_flattened.sol\":18577:18581  from */\n      dup6\n        /* \"contracts/CCIPTokenSender_flattened.sol\":18583:18585  to */\n      dup6\n        /* \"contracts/CCIPTokenSender_flattened.sol\":18587:18592  value */\n      dup6\n        /* \"contracts/CCIPTokenSender_flattened.sol\":18525:18593  abi.encodeWithSelector(token.transferFrom.selector, from, to, value) */\n      add(0x24, mload(0x40))\n      tag_125\n      swap4\n      swap3\n      swap2\n      swap1\n      tag_126\n      jump\t// in\n    tag_125:\n      mload(0x40)\n      0x20\n      dup2\n      dup4\n      sub\n      sub\n      dup2\n      mstore\n      swap1\n      0x40\n      mstore\n      swap1\n      not(0xffffffffffffffffffffffffffffffffffffffffffffffffffffffff)\n      and\n      0x20\n      dup3\n      add\n      dup1\n      mload\n      0xffffffffffffffffffffffffffffffffffffffffffffffffffffffff\n      dup4\n      dup2\n      dup4\n      and\n      or\n      dup4\n      mstore\n      pop\n      pop\n      pop\n      pop\n        /* \"contracts/CCIPTokenSender_flattened.sol\":18498:18517  _callOptionalReturn */\n      tag_127\n        /* \"contracts/CCIPTokenSender_flattened.sol\":18498:18594  _callOptionalReturn(token, abi.encodeWithSelector(token.transferFrom.selector, from, to, value)) */\n      jump\t// in\n    tag_124:\n        /* \"contracts/CCIPTokenSender_flattened.sol\":18402:18599  function safeTransferFrom(IERC20 token, address from, address to, uint256 value) internal {... */\n      pop\n      pop\n      pop\n      pop\n      jump\t// out\n        /* \"contracts/CCIPTokenSender_flattened.sol\":22226:22322  function _msgSender() internal view virtual returns (address) {... */\n    tag_114:\n        /* \"contracts/CCIPTokenSender_flattened.sol\":22279:22286  address */\n      0x00\n        /* \"contracts/CCIPTokenSender_flattened.sol\":22305:22315  msg.sender */\n      caller\n        /* \"contracts/CCIPTokenSender_flattened.sol\":22298:22315  return msg.sender */\n      swap1\n      pop\n        /* \"contracts/CCIPTokenSender_flattened.sol\":22226:22322  function _msgSender() internal view virtual returns (address) {... */\n      swap1\n      jump\t// out\n        /* \"contracts/CCIPTokenSender_flattened.sol\":20871:21539  function _callOptionalReturn(IERC20 token, bytes memory data) private {... */\n    tag_127:\n        /* \"contracts/CCIPTokenSender_flattened.sol\":21274:21297  bytes memory returndata */\n      0x00\n        /* \"contracts/CCIPTokenSender_flattened.sol\":21300:21369  address(token).functionCall(data, \"SafeERC20: low-level call failed\") */\n      tag_130\n        /* \"contracts/CCIPTokenSender_flattened.sol\":21328:21332  data */\n      dup3\n        /* \"contracts/CCIPTokenSender_flattened.sol\":21300:21369  address(token).functionCall(data, \"SafeERC20: low-level call failed\") */\n      mload(0x40)\n      dup1\n      0x40\n      add\n      0x40\n      mstore\n      dup1\n      0x20\n      dup2\n      mstore\n      0x20\n      add\n      0x5361666545524332303a206c6f772d6c6576656c2063616c6c206661696c6564\n      dup2\n      mstore\n      pop\n        /* \"contracts/CCIPTokenSender_flattened.sol\":21308:21313  token */\n      dup6\n        /* \"contracts/CCIPTokenSender_flattened.sol\":21300:21327  address(token).functionCall */\n      0xffffffffffffffffffffffffffffffffffffffff\n      and\n      tag_131\n      swap1\n        /* \"contracts/CCIPTokenSender_flattened.sol\":21300:21369  address(token).functionCall(data, \"SafeERC20: low-level call failed\") */\n      swap3\n      swap2\n      swap1\n      0xffffffff\n      and\n      jump\t// in\n    tag_130:\n        /* \"contracts/CCIPTokenSender_flattened.sol\":21274:21369  bytes memory returndata = address(token).functionCall(data, \"SafeERC20: low-level call failed\") */\n      swap1\n      pop\n        /* \"contracts/CCIPTokenSender_flattened.sol\":21399:21400  0 */\n      0x00\n        /* \"contracts/CCIPTokenSender_flattened.sol\":21379:21389  returndata */\n      dup2\n        /* \"contracts/CCIPTokenSender_flattened.sol\":21379:21396  returndata.length */\n      mload\n        /* \"contracts/CCIPTokenSender_flattened.sol\":21379:21400  returndata.length > 0 */\n      gt\n        /* \"contracts/CCIPTokenSender_flattened.sol\":21375:21535  if (returndata.length > 0) {... */\n      iszero\n      tag_132\n      jumpi\n        /* \"contracts/CCIPTokenSender_flattened.sol\":21462:21472  returndata */\n      dup1\n        /* \"contracts/CCIPTokenSender_flattened.sol\":21451:21481  abi.decode(returndata, (bool)) */\n      dup1\n      0x20\n      add\n      swap1\n      mload\n      dup2\n      add\n      swap1\n      tag_133\n      swap2\n      swap1\n      tag_47\n      jump\t// in\n    tag_133:\n        /* \"contracts/CCIPTokenSender_flattened.sol\":21443:21528  require(abi.decode(returndata, (bool)), \"SafeERC20: ERC20 operation did not succeed\") */\n      tag_134\n      jumpi\n      mload(0x40)\n      0x08c379a000000000000000000000000000000000000000000000000000000000\n      dup2\n      mstore\n      0x04\n      add\n      tag_135\n      swap1\n      tag_136\n      jump\t// in\n    tag_135:\n      mload(0x40)\n      dup1\n      swap2\n      sub\n      swap1\n      revert\n    tag_134:\n        /* \"contracts/CCIPTokenSender_flattened.sol\":21375:21535  if (returndata.length > 0) {... */\n    tag_132:\n        /* \"contracts/CCIPTokenSender_flattened.sol\":20941:21539  {... */\n      pop\n        /* \"contracts/CCIPTokenSender_flattened.sol\":20871:21539  function _callOptionalReturn(IERC20 token, bytes memory data) private {... */\n      pop\n      pop\n      jump\t// out\n        /* \"contracts/CCIPTokenSender_flattened.sol\":12668:12855  function functionCall(address target, bytes memory data, string memory errorMessage) internal returns (bytes memory) {... */\n    tag_131:\n        /* \"contracts/CCIPTokenSender_flattened.sol\":12771:12783  bytes memory */\n      0x60\n        /* \"contracts/CCIPTokenSender_flattened.sol\":12798:12850  functionCallWithValue(target, data, 0, errorMessage) */\n      tag_138\n        /* \"contracts/CCIPTokenSender_flattened.sol\":12820:12826  target */\n      dup5\n        /* \"contracts/CCIPTokenSender_flattened.sol\":12828:12832  data */\n      dup5\n        /* \"contracts/CCIPTokenSender_flattened.sol\":12834:12835  0 */\n      0x00\n        /* \"contracts/CCIPTokenSender_flattened.sol\":12837:12849  errorMessage */\n      dup6\n        /* \"contracts/CCIPTokenSender_flattened.sol\":12798:12819  functionCallWithValue */\n      tag_139\n        /* \"contracts/CCIPTokenSender_flattened.sol\":12798:12850  functionCallWithValue(target, data, 0, errorMessage) */\n      jump\t// in\n    tag_138:\n        /* \"contracts/CCIPTokenSender_flattened.sol\":12791:12850  return functionCallWithValue(target, data, 0, errorMessage) */\n      swap1\n      pop\n        /* \"contracts/CCIPTokenSender_flattened.sol\":12668:12855  function functionCall(address target, bytes memory data, string memory errorMessage) internal returns (bytes memory) {... */\n      swap4\n      swap3\n      pop\n      pop\n      pop\n      jump\t// out\n        /* \"contracts/CCIPTokenSender_flattened.sol\":13645:14059  function functionCallWithValue(... */\n    tag_139:\n        /* \"contracts/CCIPTokenSender_flattened.sol\":13792:13804  bytes memory */\n      0x60\n        /* \"contracts/CCIPTokenSender_flattened.sol\":13845:13850  value */\n      dup3\n        /* \"contracts/CCIPTokenSender_flattened.sol\":13820:13841  address(this).balance */\n      selfbalance\n        /* \"contracts/CCIPTokenSender_flattened.sol\":13820:13850  address(this).balance >= value */\n      lt\n      iszero\n        /* \"contracts/CCIPTokenSender_flattened.sol\":13812:13893  require(address(this).balance >= value, \"Address: insufficient balance for call\") */\n      tag_141\n      jumpi\n      mload(0x40)\n      0x08c379a000000000000000000000000000000000000000000000000000000000\n      dup2\n      mstore\n      0x04\n      add\n      tag_142\n      swap1\n      tag_143\n      jump\t// in\n    tag_142:\n      mload(0x40)\n      dup1\n      swap2\n      sub\n      swap1\n      revert\n    tag_141:\n        /* \"contracts/CCIPTokenSender_flattened.sol\":13900:13912  bool success */\n      0x00\n        /* \"contracts/CCIPTokenSender_flattened.sol\":13914:13937  bytes memory returndata */\n      0x00\n        /* \"contracts/CCIPTokenSender_flattened.sol\":13941:13947  target */\n      dup7\n        /* \"contracts/CCIPTokenSender_flattened.sol\":13941:13952  target.call */\n      0xffffffffffffffffffffffffffffffffffffffff\n      and\n        /* \"contracts/CCIPTokenSender_flattened.sol\":13960:13965  value */\n      dup6\n        /* \"contracts/CCIPTokenSender_flattened.sol\":13967:13971  data */\n      dup8\n        /* \"contracts/CCIPTokenSender_flattened.sol\":13941:13972  target.call{value: value}(data) */\n      mload(0x40)\n      tag_144\n      swap2\n      swap1\n      tag_145\n      jump\t// in\n    tag_144:\n      0x00\n      mload(0x40)\n      dup1\n      dup4\n      sub\n      dup2\n      dup6\n      dup8\n      gas\n      call\n      swap3\n      pop\n      pop\n      pop\n      returndatasize\n      dup1\n      0x00\n      dup2\n      eq\n      tag_148\n      jumpi\n      mload(0x40)\n      swap2\n      pop\n      and(add(returndatasize, 0x3f), not(0x1f))\n      dup3\n      add\n      0x40\n      mstore\n      returndatasize\n      dup3\n      mstore\n      returndatasize\n      0x00\n      0x20\n      dup5\n      add\n      returndatacopy\n      jump(tag_147)\n    tag_148:\n      0x60\n      swap2\n      pop\n    tag_147:\n      pop\n        /* \"contracts/CCIPTokenSender_flattened.sol\":13899:13972  (bool success, bytes memory returndata) = target.call{value: value}(data) */\n      swap2\n      pop\n      swap2\n      pop\n        /* \"contracts/CCIPTokenSender_flattened.sol\":13985:14054  verifyCallResultFromTarget(target, success, returndata, errorMessage) */\n      tag_149\n        /* \"contracts/CCIPTokenSender_flattened.sol\":14012:14018  target */\n      dup8\n        /* \"contracts/CCIPTokenSender_flattened.sol\":14020:14027  success */\n      dup4\n        /* \"contracts/CCIPTokenSender_flattened.sol\":14029:14039  returndata */\n      dup4\n        /* \"contracts/CCIPTokenSender_flattened.sol\":14041:14053  errorMessage */\n      dup8\n        /* \"contracts/CCIPTokenSender_flattened.sol\":13985:14011  verifyCallResultFromTarget */\n      tag_150\n        /* \"contracts/CCIPTokenSender_flattened.sol\":13985:14054  verifyCallResultFromTarget(target, success, returndata, errorMessage) */\n      jump\t// in\n    tag_149:\n        /* \"contracts/CCIPTokenSender_flattened.sol\":13978:14054  return verifyCallResultFromTarget(target, success, returndata, errorMessage) */\n      swap3\n      pop\n      pop\n      pop\n        /* \"contracts/CCIPTokenSender_flattened.sol\":13645:14059  function functionCallWithValue(... */\n      swap5\n      swap4\n      pop\n      pop\n      pop\n      pop\n      jump\t// out\n        /* \"contracts/CCIPTokenSender_flattened.sol\":15989:16537  function verifyCallResultFromTarget(... */\n    tag_150:\n        /* \"contracts/CCIPTokenSender_flattened.sol\":16151:16163  bytes memory */\n      0x60\n        /* \"contracts/CCIPTokenSender_flattened.sol\":16175:16182  success */\n      dup4\n        /* \"contracts/CCIPTokenSender_flattened.sol\":16171:16533  if (success) {... */\n      iszero\n      tag_152\n      jumpi\n        /* \"contracts/CCIPTokenSender_flattened.sol\":16217:16218  0 */\n      0x00\n        /* \"contracts/CCIPTokenSender_flattened.sol\":16196:16206  returndata */\n      dup4\n        /* \"contracts/CCIPTokenSender_flattened.sol\":16196:16213  returndata.length */\n      mload\n        /* \"contracts/CCIPTokenSender_flattened.sol\":16196:16218  returndata.length == 0 */\n      sub\n        /* \"contracts/CCIPTokenSender_flattened.sol\":16192:16448  if (returndata.length == 0) {... */\n      tag_153\n      jumpi\n        /* \"contracts/CCIPTokenSender_flattened.sol\":16387:16405  isContract(target) */\n      tag_154\n        /* \"contracts/CCIPTokenSender_flattened.sol\":16398:16404  target */\n      dup6\n        /* \"contracts/CCIPTokenSender_flattened.sol\":16387:16397  isContract */\n      tag_155\n        /* \"contracts/CCIPTokenSender_flattened.sol\":16387:16405  isContract(target) */\n      jump\t// in\n    tag_154:\n        /* \"contracts/CCIPTokenSender_flattened.sol\":16379:16439  require(isContract(target), \"Address: call to non-contract\") */\n      tag_156\n      jumpi\n      mload(0x40)\n      0x08c379a000000000000000000000000000000000000000000000000000000000\n      dup2\n      mstore\n      0x04\n      add\n      tag_157\n      swap1\n      tag_158\n      jump\t// in\n    tag_157:\n      mload(0x40)\n      dup1\n      swap2\n      sub\n      swap1\n      revert\n    tag_156:\n        /* \"contracts/CCIPTokenSender_flattened.sol\":16192:16448  if (returndata.length == 0) {... */\n    tag_153:\n        /* \"contracts/CCIPTokenSender_flattened.sol\":16462:16472  returndata */\n      dup3\n        /* \"contracts/CCIPTokenSender_flattened.sol\":16455:16472  return returndata */\n      swap1\n      pop\n      jump(tag_151)\n        /* \"contracts/CCIPTokenSender_flattened.sol\":16171:16533  if (success) {... */\n    tag_152:\n        /* \"contracts/CCIPTokenSender_flattened.sol\":16493:16526  _revert(returndata, errorMessage) */\n      tag_160\n        /* \"contracts/CCIPTokenSender_flattened.sol\":16501:16511  returndata */\n      dup4\n        /* \"contracts/CCIPTokenSender_flattened.sol\":16513:16525  errorMessage */\n      dup4\n        /* \"contracts/CCIPTokenSender_flattened.sol\":16493:16500  _revert */\n      tag_161\n        /* \"contracts/CCIPTokenSender_flattened.sol\":16493:16526  _revert(returndata, errorMessage) */\n      jump\t// in\n    tag_160:\n        /* \"contracts/CCIPTokenSender_flattened.sol\":15989:16537  function verifyCallResultFromTarget(... */\n    tag_151:\n      swap5\n      swap4\n      pop\n      pop\n      pop\n      pop\n      jump\t// out\n        /* \"contracts/CCIPTokenSender_flattened.sol\":10094:10396  function isContract(address account) internal view returns (bool) {... */\n    tag_155:\n        /* \"contracts/CCIPTokenSender_flattened.sol\":10154:10158  bool */\n      0x00\n        /* \"contracts/CCIPTokenSender_flattened.sol\":10390:10391  0 */\n      0x00\n        /* \"contracts/CCIPTokenSender_flattened.sol\":10368:10375  account */\n      dup3\n        /* \"contracts/CCIPTokenSender_flattened.sol\":10368:10387  account.code.length */\n      0xffffffffffffffffffffffffffffffffffffffff\n      and\n      extcodesize\n        /* \"contracts/CCIPTokenSender_flattened.sol\":10368:10391  account.code.length > 0 */\n      gt\n        /* \"contracts/CCIPTokenSender_flattened.sol\":10361:10391  return account.code.length > 0 */\n      swap1\n      pop\n        /* \"contracts/CCIPTokenSender_flattened.sol\":10094:10396  function isContract(address account) internal view returns (bool) {... */\n      swap2\n      swap1\n      pop\n      jump\t// out\n        /* \"contracts/CCIPTokenSender_flattened.sol\":17003:17479  function _revert(bytes memory returndata, string memory errorMessage) private pure {... */\n    tag_161:\n        /* \"contracts/CCIPTokenSender_flattened.sol\":17174:17175  0 */\n      0x00\n        /* \"contracts/CCIPTokenSender_flattened.sol\":17154:17164  returndata */\n      dup3\n        /* \"contracts/CCIPTokenSender_flattened.sol\":17154:17171  returndata.length */\n      mload\n        /* \"contracts/CCIPTokenSender_flattened.sol\":17154:17175  returndata.length > 0 */\n      gt\n        /* \"contracts/CCIPTokenSender_flattened.sol\":17150:17475  if (returndata.length > 0) {... */\n      iszero\n      tag_164\n      jumpi\n        /* \"contracts/CCIPTokenSender_flattened.sol\":17356:17366  returndata */\n      dup2\n        /* \"contracts/CCIPTokenSender_flattened.sol\":17350:17367  mload(returndata) */\n      mload\n        /* \"contracts/CCIPTokenSender_flattened.sol\":17404:17419  returndata_size */\n      dup1\n        /* \"contracts/CCIPTokenSender_flattened.sol\":17391:17401  returndata */\n      dup4\n        /* \"contracts/CCIPTokenSender_flattened.sol\":17387:17389  32 */\n      0x20\n        /* \"contracts/CCIPTokenSender_flattened.sol\":17383:17402  add(32, returndata) */\n      add\n        /* \"contracts/CCIPTokenSender_flattened.sol\":17376:17420  revert(add(32, returndata), returndata_size) */\n      revert\n        /* \"contracts/CCIPTokenSender_flattened.sol\":17150:17475  if (returndata.length > 0) {... */\n    tag_164:\n        /* \"contracts/CCIPTokenSender_flattened.sol\":17455:17467  errorMessage */\n      dup1\n        /* \"contracts/CCIPTokenSender_flattened.sol\":17448:17468  revert(errorMessage) */\n      mload(0x40)\n      0x08c379a000000000000000000000000000000000000000000000000000000000\n      dup2\n      mstore\n      0x04\n      add\n      tag_166\n      swap2\n      swap1\n      tag_167\n      jump\t// in\n    tag_166:\n      mload(0x40)\n      dup1\n      swap2\n      sub\n      swap1\n      revert\n    tag_67:\n      mload(0x40)\n      dup1\n      0x40\n      add\n      0x40\n      mstore\n      dup1\n      and(0xffffffffffffffffffffffffffffffffffffffff, 0x00)\n      dup2\n      mstore\n      0x20\n      add\n      0x00\n      dup2\n      mstore\n      pop\n      swap1\n      jump\t// out\n        /* \"#utility.yul\":88:205   */\n    tag_169:\n        /* \"#utility.yul\":197:198   */\n      0x00\n        /* \"#utility.yul\":194:195   */\n      0x00\n        /* \"#utility.yul\":187:199   */\n      revert\n        /* \"#utility.yul\":334:460   */\n    tag_171:\n        /* \"#utility.yul\":371:378   */\n      0x00\n        /* \"#utility.yul\":411:453   */\n      0xffffffffffffffffffffffffffffffffffffffff\n        /* \"#utility.yul\":404:409   */\n      dup3\n        /* \"#utility.yul\":400:454   */\n      and\n        /* \"#utility.yul\":389:454   */\n      swap1\n      pop\n        /* \"#utility.yul\":334:460   */\n      swap2\n      swap1\n      pop\n      jump\t// out\n        /* \"#utility.yul\":466:562   */\n    tag_172:\n        /* \"#utility.yul\":503:510   */\n      0x00\n        /* \"#utility.yul\":532:556   */\n      tag_228\n        /* \"#utility.yul\":550:555   */\n      dup3\n        /* \"#utility.yul\":532:556   */\n      tag_171\n      jump\t// in\n    tag_228:\n        /* \"#utility.yul\":521:556   */\n      swap1\n      pop\n        /* \"#utility.yul\":466:562   */\n      swap2\n      swap1\n      pop\n      jump\t// out\n        /* \"#utility.yul\":568:690   */\n    tag_173:\n        /* \"#utility.yul\":641:665   */\n      tag_230\n        /* \"#utility.yul\":659:664   */\n      dup2\n        /* \"#utility.yul\":641:665   */\n      tag_172\n      jump\t// in\n    tag_230:\n        /* \"#utility.yul\":634:639   */\n      dup2\n        /* \"#utility.yul\":631:666   */\n      eq\n        /* \"#utility.yul\":621:684   */\n      tag_231\n      jumpi\n        /* \"#utility.yul\":680:681   */\n      0x00\n        /* \"#utility.yul\":677:678   */\n      0x00\n        /* \"#utility.yul\":670:682   */\n      revert\n        /* \"#utility.yul\":621:684   */\n    tag_231:\n        /* \"#utility.yul\":568:690   */\n      pop\n      jump\t// out\n        /* \"#utility.yul\":696:835   */\n    tag_174:\n        /* \"#utility.yul\":742:747   */\n      0x00\n        /* \"#utility.yul\":780:786   */\n      dup2\n        /* \"#utility.yul\":767:787   */\n      calldataload\n        /* \"#utility.yul\":758:787   */\n      swap1\n      pop\n        /* \"#utility.yul\":796:829   */\n      tag_233\n        /* \"#utility.yul\":823:828   */\n      dup2\n        /* \"#utility.yul\":796:829   */\n      tag_173\n      jump\t// in\n    tag_233:\n        /* \"#utility.yul\":696:835   */\n      swap3\n      swap2\n      pop\n      pop\n      jump\t// out\n        /* \"#utility.yul\":841:1170   */\n    tag_12:\n        /* \"#utility.yul\":900:906   */\n      0x00\n        /* \"#utility.yul\":949:951   */\n      0x20\n        /* \"#utility.yul\":937:946   */\n      dup3\n        /* \"#utility.yul\":928:935   */\n      dup5\n        /* \"#utility.yul\":924:947   */\n      sub\n        /* \"#utility.yul\":920:952   */\n      slt\n        /* \"#utility.yul\":917:1036   */\n      iszero\n      tag_235\n      jumpi\n        /* \"#utility.yul\":955:1034   */\n      tag_236\n      tag_169\n      jump\t// in\n    tag_236:\n        /* \"#utility.yul\":917:1036   */\n    tag_235:\n        /* \"#utility.yul\":1075:1076   */\n      0x00\n        /* \"#utility.yul\":1100:1153   */\n      tag_237\n        /* \"#utility.yul\":1145:1152   */\n      dup5\n        /* \"#utility.yul\":1136:1142   */\n      dup3\n        /* \"#utility.yul\":1125:1134   */\n      dup6\n        /* \"#utility.yul\":1121:1143   */\n      add\n        /* \"#utility.yul\":1100:1153   */\n      tag_174\n      jump\t// in\n    tag_237:\n        /* \"#utility.yul\":1090:1153   */\n      swap2\n      pop\n        /* \"#utility.yul\":1046:1163   */\n      pop\n        /* \"#utility.yul\":841:1170   */\n      swap3\n      swap2\n      pop\n      pop\n      jump\t// out\n        /* \"#utility.yul\":1176:1294   */\n    tag_175:\n        /* \"#utility.yul\":1263:1287   */\n      tag_239\n        /* \"#utility.yul\":1281:1286   */\n      dup2\n        /* \"#utility.yul\":1263:1287   */\n      tag_172\n      jump\t// in\n    tag_239:\n        /* \"#utility.yul\":1258:1261   */\n      dup3\n        /* \"#utility.yul\":1251:1288   */\n      mstore\n        /* \"#utility.yul\":1176:1294   */\n      pop\n      pop\n      jump\t// out\n        /* \"#utility.yul\":1300:1522   */\n    tag_17:\n        /* \"#utility.yul\":1393:1397   */\n      0x00\n        /* \"#utility.yul\":1431:1433   */\n      0x20\n        /* \"#utility.yul\":1420:1429   */\n      dup3\n        /* \"#utility.yul\":1416:1434   */\n      add\n        /* \"#utility.yul\":1408:1434   */\n      swap1\n      pop\n        /* \"#utility.yul\":1444:1515   */\n      tag_241\n        /* \"#utility.yul\":1512:1513   */\n      0x00\n        /* \"#utility.yul\":1501:1510   */\n      dup4\n        /* \"#utility.yul\":1497:1514   */\n      add\n        /* \"#utility.yul\":1488:1494   */\n      dup5\n        /* \"#utility.yul\":1444:1515   */\n      tag_175\n      jump\t// in\n    tag_241:\n        /* \"#utility.yul\":1300:1522   */\n      swap3\n      swap2\n      pop\n      pop\n      jump\t// out\n        /* \"#utility.yul\":1528:1605   */\n    tag_176:\n        /* \"#utility.yul\":1565:1572   */\n      0x00\n        /* \"#utility.yul\":1594:1599   */\n      dup2\n        /* \"#utility.yul\":1583:1599   */\n      swap1\n      pop\n        /* \"#utility.yul\":1528:1605   */\n      swap2\n      swap1\n      pop\n      jump\t// out\n        /* \"#utility.yul\":1611:1733   */\n    tag_177:\n        /* \"#utility.yul\":1684:1708   */\n      tag_244\n        /* \"#utility.yul\":1702:1707   */\n      dup2\n        /* \"#utility.yul\":1684:1708   */\n      tag_176\n      jump\t// in\n    tag_244:\n        /* \"#utility.yul\":1677:1682   */\n      dup2\n        /* \"#utility.yul\":1674:1709   */\n      eq\n        /* \"#utility.yul\":1664:1727   */\n      tag_245\n      jumpi\n        /* \"#utility.yul\":1723:1724   */\n      0x00\n        /* \"#utility.yul\":1720:1721   */\n      0x00\n        /* \"#utility.yul\":1713:1725   */\n      revert\n        /* \"#utility.yul\":1664:1727   */\n    tag_245:\n        /* \"#utility.yul\":1611:1733   */\n      pop\n      jump\t// out\n        /* \"#utility.yul\":1739:1878   */\n    tag_178:\n        /* \"#utility.yul\":1785:1790   */\n      0x00\n        /* \"#utility.yul\":1823:1829   */\n      dup2\n        /* \"#utility.yul\":1810:1830   */\n      calldataload\n        /* \"#utility.yul\":1801:1830   */\n      swap1\n      pop\n        /* \"#utility.yul\":1839:1872   */\n      tag_247\n        /* \"#utility.yul\":1866:1871   */\n      dup2\n        /* \"#utility.yul\":1839:1872   */\n      tag_177\n      jump\t// in\n    tag_247:\n        /* \"#utility.yul\":1739:1878   */\n      swap3\n      swap2\n      pop\n      pop\n      jump\t// out\n        /* \"#utility.yul\":1884:2358   */\n    tag_20:\n        /* \"#utility.yul\":1952:1958   */\n      0x00\n        /* \"#utility.yul\":1960:1966   */\n      0x00\n        /* \"#utility.yul\":2009:2011   */\n      0x40\n        /* \"#utility.yul\":1997:2006   */\n      dup4\n        /* \"#utility.yul\":1988:1995   */\n      dup6\n        /* \"#utility.yul\":1984:2007   */\n      sub\n        /* \"#utility.yul\":1980:2012   */\n      slt\n        /* \"#utility.yul\":1977:2096   */\n      iszero\n      tag_249\n      jumpi\n        /* \"#utility.yul\":2015:2094   */\n      tag_250\n      tag_169\n      jump\t// in\n    tag_250:\n        /* \"#utility.yul\":1977:2096   */\n    tag_249:\n        /* \"#utility.yul\":2135:2136   */\n      0x00\n        /* \"#utility.yul\":2160:2213   */\n      tag_251\n        /* \"#utility.yul\":2205:2212   */\n      dup6\n        /* \"#utility.yul\":2196:2202   */\n      dup3\n        /* \"#utility.yul\":2185:2194   */\n      dup7\n        /* \"#utility.yul\":2181:2203   */\n      add\n        /* \"#utility.yul\":2160:2213   */\n      tag_174\n      jump\t// in\n    tag_251:\n        /* \"#utility.yul\":2150:2213   */\n      swap3\n      pop\n        /* \"#utility.yul\":2106:2223   */\n      pop\n        /* \"#utility.yul\":2262:2264   */\n      0x20\n        /* \"#utility.yul\":2288:2341   */\n      tag_252\n        /* \"#utility.yul\":2333:2340   */\n      dup6\n        /* \"#utility.yul\":2324:2330   */\n      dup3\n        /* \"#utility.yul\":2313:2322   */\n      dup7\n        /* \"#utility.yul\":2309:2331   */\n      add\n        /* \"#utility.yul\":2288:2341   */\n      tag_178\n      jump\t// in\n    tag_252:\n        /* \"#utility.yul\":2278:2341   */\n      swap2\n      pop\n        /* \"#utility.yul\":2233:2351   */\n      pop\n        /* \"#utility.yul\":1884:2358   */\n      swap3\n      pop\n      swap3\n      swap1\n      pop\n      jump\t// out\n        /* \"#utility.yul\":2364:2441   */\n    tag_179:\n        /* \"#utility.yul\":2401:2408   */\n      0x00\n        /* \"#utility.yul\":2430:2435   */\n      dup2\n        /* \"#utility.yul\":2419:2435   */\n      swap1\n      pop\n        /* \"#utility.yul\":2364:2441   */\n      swap2\n      swap1\n      pop\n      jump\t// out\n        /* \"#utility.yul\":2447:2565   */\n    tag_180:\n        /* \"#utility.yul\":2534:2558   */\n      tag_255\n        /* \"#utility.yul\":2552:2557   */\n      dup2\n        /* \"#utility.yul\":2534:2558   */\n      tag_179\n      jump\t// in\n    tag_255:\n        /* \"#utility.yul\":2529:2532   */\n      dup3\n        /* \"#utility.yul\":2522:2559   */\n      mstore\n        /* \"#utility.yul\":2447:2565   */\n      pop\n      pop\n      jump\t// out\n        /* \"#utility.yul\":2571:2793   */\n    tag_23:\n        /* \"#utility.yul\":2664:2668   */\n      0x00\n        /* \"#utility.yul\":2702:2704   */\n      0x20\n        /* \"#utility.yul\":2691:2700   */\n      dup3\n        /* \"#utility.yul\":2687:2705   */\n      add\n        /* \"#utility.yul\":2679:2705   */\n      swap1\n      pop\n        /* \"#utility.yul\":2715:2786   */\n      tag_257\n        /* \"#utility.yul\":2783:2784   */\n      0x00\n        /* \"#utility.yul\":2772:2781   */\n      dup4\n        /* \"#utility.yul\":2768:2785   */\n      add\n        /* \"#utility.yul\":2759:2765   */\n      dup5\n        /* \"#utility.yul\":2715:2786   */\n      tag_180\n      jump\t// in\n    tag_257:\n        /* \"#utility.yul\":2571:2793   */\n      swap3\n      swap2\n      pop\n      pop\n      jump\t// out\n        /* \"#utility.yul\":2799:2942   */\n    tag_181:\n        /* \"#utility.yul\":2856:2861   */\n      0x00\n        /* \"#utility.yul\":2887:2893   */\n      dup2\n        /* \"#utility.yul\":2881:2894   */\n      mload\n        /* \"#utility.yul\":2872:2894   */\n      swap1\n      pop\n        /* \"#utility.yul\":2903:2936   */\n      tag_259\n        /* \"#utility.yul\":2930:2935   */\n      dup2\n        /* \"#utility.yul\":2903:2936   */\n      tag_177\n      jump\t// in\n    tag_259:\n        /* \"#utility.yul\":2799:2942   */\n      swap3\n      swap2\n      pop\n      pop\n      jump\t// out\n        /* \"#utility.yul\":2948:3299   */\n    tag_40:\n        /* \"#utility.yul\":3018:3024   */\n      0x00\n        /* \"#utility.yul\":3067:3069   */\n      0x20\n        /* \"#utility.yul\":3055:3064   */\n      dup3\n        /* \"#utility.yul\":3046:3053   */\n      dup5\n        /* \"#utility.yul\":3042:3065   */\n      sub\n        /* \"#utility.yul\":3038:3070   */\n      slt\n        /* \"#utility.yul\":3035:3154   */\n      iszero\n      tag_261\n      jumpi\n        /* \"#utility.yul\":3073:3152   */\n      tag_262\n      tag_169\n      jump\t// in\n    tag_262:\n        /* \"#utility.yul\":3035:3154   */\n    tag_261:\n        /* \"#utility.yul\":3193:3194   */\n      0x00\n        /* \"#utility.yul\":3218:3282   */\n      tag_263\n        /* \"#utility.yul\":3274:3281   */\n      dup5\n        /* \"#utility.yul\":3265:3271   */\n      dup3\n        /* \"#utility.yul\":3254:3263   */\n      dup6\n        /* \"#utility.yul\":3250:3272   */\n      add\n        /* \"#utility.yul\":3218:3282   */\n      tag_181\n      jump\t// in\n    tag_263:\n        /* \"#utility.yul\":3208:3282   */\n      swap2\n      pop\n        /* \"#utility.yul\":3164:3292   */\n      pop\n        /* \"#utility.yul\":2948:3299   */\n      swap3\n      swap2\n      pop\n      pop\n      jump\t// out\n        /* \"#utility.yul\":3305:3423   */\n    tag_182:\n        /* \"#utility.yul\":3392:3416   */\n      tag_265\n        /* \"#utility.yul\":3410:3415   */\n      dup2\n        /* \"#utility.yul\":3392:3416   */\n      tag_176\n      jump\t// in\n    tag_265:\n        /* \"#utility.yul\":3387:3390   */\n      dup3\n        /* \"#utility.yul\":3380:3417   */\n      mstore\n        /* \"#utility.yul\":3305:3423   */\n      pop\n      pop\n      jump\t// out\n        /* \"#utility.yul\":3429:3761   */\n    tag_43:\n        /* \"#utility.yul\":3550:3554   */\n      0x00\n        /* \"#utility.yul\":3588:3590   */\n      0x40\n        /* \"#utility.yul\":3577:3586   */\n      dup3\n        /* \"#utility.yul\":3573:3591   */\n      add\n        /* \"#utility.yul\":3565:3591   */\n      swap1\n      pop\n        /* \"#utility.yul\":3601:3672   */\n      tag_267\n        /* \"#utility.yul\":3669:3670   */\n      0x00\n        /* \"#utility.yul\":3658:3667   */\n      dup4\n        /* \"#utility.yul\":3654:3671   */\n      add\n        /* \"#utility.yul\":3645:3651   */\n      dup6\n        /* \"#utility.yul\":3601:3672   */\n      tag_175\n      jump\t// in\n    tag_267:\n        /* \"#utility.yul\":3682:3754   */\n      tag_268\n        /* \"#utility.yul\":3750:3752   */\n      0x20\n        /* \"#utility.yul\":3739:3748   */\n      dup4\n        /* \"#utility.yul\":3735:3753   */\n      add\n        /* \"#utility.yul\":3726:3732   */\n      dup5\n        /* \"#utility.yul\":3682:3754   */\n      tag_182\n      jump\t// in\n    tag_268:\n        /* \"#utility.yul\":3429:3761   */\n      swap4\n      swap3\n      pop\n      pop\n      pop\n      jump\t// out\n        /* \"#utility.yul\":3767:3857   */\n    tag_183:\n        /* \"#utility.yul\":3801:3808   */\n      0x00\n        /* \"#utility.yul\":3844:3849   */\n      dup2\n        /* \"#utility.yul\":3837:3850   */\n      iszero\n        /* \"#utility.yul\":3830:3851   */\n      iszero\n        /* \"#utility.yul\":3819:3851   */\n      swap1\n      pop\n        /* \"#utility.yul\":3767:3857   */\n      swap2\n      swap1\n      pop\n      jump\t// out\n        /* \"#utility.yul\":3863:3979   */\n    tag_184:\n        /* \"#utility.yul\":3933:3954   */\n      tag_271\n        /* \"#utility.yul\":3948:3953   */\n      dup2\n        /* \"#utility.yul\":3933:3954   */\n      tag_183\n      jump\t// in\n    tag_271:\n        /* \"#utility.yul\":3926:3931   */\n      dup2\n        /* \"#utility.yul\":3923:3955   */\n      eq\n        /* \"#utility.yul\":3913:3973   */\n      tag_272\n      jumpi\n        /* \"#utility.yul\":3969:3970   */\n      0x00\n        /* \"#utility.yul\":3966:3967   */\n      0x00\n        /* \"#utility.yul\":3959:3971   */\n      revert\n        /* \"#utility.yul\":3913:3973   */\n    tag_272:\n        /* \"#utility.yul\":3863:3979   */\n      pop\n      jump\t// out\n        /* \"#utility.yul\":3985:4122   */\n    tag_185:\n        /* \"#utility.yul\":4039:4044   */\n      0x00\n        /* \"#utility.yul\":4070:4076   */\n      dup2\n        /* \"#utility.yul\":4064:4077   */\n      mload\n        /* \"#utility.yul\":4055:4077   */\n      swap1\n      pop\n        /* \"#utility.yul\":4086:4116   */\n      tag_274\n        /* \"#utility.yul\":4110:4115   */\n      dup2\n        /* \"#utility.yul\":4086:4116   */\n      tag_184\n      jump\t// in\n    tag_274:\n        /* \"#utility.yul\":3985:4122   */\n      swap3\n      swap2\n      pop\n      pop\n      jump\t// out\n        /* \"#utility.yul\":4128:4473   */\n    tag_47:\n        /* \"#utility.yul\":4195:4201   */\n      0x00\n        /* \"#utility.yul\":4244:4246   */\n      0x20\n        /* \"#utility.yul\":4232:4241   */\n      dup3\n        /* \"#utility.yul\":4223:4230   */\n      dup5\n        /* \"#utility.yul\":4219:4242   */\n      sub\n        /* \"#utility.yul\":4215:4247   */\n      slt\n        /* \"#utility.yul\":4212:4331   */\n      iszero\n      tag_276\n      jumpi\n        /* \"#utility.yul\":4250:4329   */\n      tag_277\n      tag_169\n      jump\t// in\n    tag_277:\n        /* \"#utility.yul\":4212:4331   */\n    tag_276:\n        /* \"#utility.yul\":4370:4371   */\n      0x00\n        /* \"#utility.yul\":4395:4456   */\n      tag_278\n        /* \"#utility.yul\":4448:4455   */\n      dup5\n        /* \"#utility.yul\":4439:4445   */\n      dup3\n        /* \"#utility.yul\":4428:4437   */\n      dup6\n        /* \"#utility.yul\":4424:4446   */\n      add\n        /* \"#utility.yul\":4395:4456   */\n      tag_185\n      jump\t// in\n    tag_278:\n        /* \"#utility.yul\":4385:4456   */\n      swap2\n      pop\n        /* \"#utility.yul\":4341:4466   */\n      pop\n        /* \"#utility.yul\":4128:4473   */\n      swap3\n      swap2\n      pop\n      pop\n      jump\t// out\n        /* \"#utility.yul\":4479:4539   */\n    tag_186:\n        /* \"#utility.yul\":4507:4510   */\n      0x00\n        /* \"#utility.yul\":4528:4533   */\n      dup2\n        /* \"#utility.yul\":4521:4533   */\n      swap1\n      pop\n        /* \"#utility.yul\":4479:4539   */\n      swap2\n      swap1\n      pop\n      jump\t// out\n        /* \"#utility.yul\":4545:4687   */\n    tag_187:\n        /* \"#utility.yul\":4595:4604   */\n      0x00\n        /* \"#utility.yul\":4628:4681   */\n      tag_281\n        /* \"#utility.yul\":4646:4680   */\n      tag_282\n        /* \"#utility.yul\":4655:4679   */\n      tag_283\n        /* \"#utility.yul\":4673:4678   */\n      dup5\n        /* \"#utility.yul\":4655:4679   */\n      tag_171\n      jump\t// in\n    tag_283:\n        /* \"#utility.yul\":4646:4680   */\n      tag_186\n      jump\t// in\n    tag_282:\n        /* \"#utility.yul\":4628:4681   */\n      tag_171\n      jump\t// in\n    tag_281:\n        /* \"#utility.yul\":4615:4681   */\n      swap1\n      pop\n        /* \"#utility.yul\":4545:4687   */\n      swap2\n      swap1\n      pop\n      jump\t// out\n        /* \"#utility.yul\":4693:4819   */\n    tag_188:\n        /* \"#utility.yul\":4743:4752   */\n      0x00\n        /* \"#utility.yul\":4776:4813   */\n      tag_285\n        /* \"#utility.yul\":4807:4812   */\n      dup3\n        /* \"#utility.yul\":4776:4813   */\n      tag_187\n      jump\t// in\n    tag_285:\n        /* \"#utility.yul\":4763:4813   */\n      swap1\n      pop\n        /* \"#utility.yul\":4693:4819   */\n      swap2\n      swap1\n      pop\n      jump\t// out\n        /* \"#utility.yul\":4825:4965   */\n    tag_189:\n        /* \"#utility.yul\":4889:4898   */\n      0x00\n        /* \"#utility.yul\":4922:4959   */\n      tag_287\n        /* \"#utility.yul\":4953:4958   */\n      dup3\n        /* \"#utility.yul\":4922:4959   */\n      tag_188\n      jump\t// in\n    tag_287:\n        /* \"#utility.yul\":4909:4959   */\n      swap1\n      pop\n        /* \"#utility.yul\":4825:4965   */\n      swap2\n      swap1\n      pop\n      jump\t// out\n        /* \"#utility.yul\":4971:5130   */\n    tag_190:\n        /* \"#utility.yul\":5072:5123   */\n      tag_289\n        /* \"#utility.yul\":5117:5122   */\n      dup2\n        /* \"#utility.yul\":5072:5123   */\n      tag_189\n      jump\t// in\n    tag_289:\n        /* \"#utility.yul\":5067:5070   */\n      dup3\n        /* \"#utility.yul\":5060:5124   */\n      mstore\n        /* \"#utility.yul\":4971:5130   */\n      pop\n      pop\n      jump\t// out\n        /* \"#utility.yul\":5136:5606   */\n    tag_60:\n        /* \"#utility.yul\":5299:5303   */\n      0x00\n        /* \"#utility.yul\":5337:5339   */\n      0x60\n        /* \"#utility.yul\":5326:5335   */\n      dup3\n        /* \"#utility.yul\":5322:5340   */\n      add\n        /* \"#utility.yul\":5314:5340   */\n      swap1\n      pop\n        /* \"#utility.yul\":5350:5435   */\n      tag_291\n        /* \"#utility.yul\":5432:5433   */\n      0x00\n        /* \"#utility.yul\":5421:5430   */\n      dup4\n        /* \"#utility.yul\":5417:5434   */\n      add\n        /* \"#utility.yul\":5408:5414   */\n      dup7\n        /* \"#utility.yul\":5350:5435   */\n      tag_190\n      jump\t// in\n    tag_291:\n        /* \"#utility.yul\":5445:5517   */\n      tag_292\n        /* \"#utility.yul\":5513:5515   */\n      0x20\n        /* \"#utility.yul\":5502:5511   */\n      dup4\n        /* \"#utility.yul\":5498:5516   */\n      add\n        /* \"#utility.yul\":5489:5495   */\n      dup6\n        /* \"#utility.yul\":5445:5517   */\n      tag_182\n      jump\t// in\n    tag_292:\n        /* \"#utility.yul\":5527:5599   */\n      tag_293\n        /* \"#utility.yul\":5595:5597   */\n      0x40\n        /* \"#utility.yul\":5584:5593   */\n      dup4\n        /* \"#utility.yul\":5580:5598   */\n      add\n        /* \"#utility.yul\":5571:5577   */\n      dup5\n        /* \"#utility.yul\":5527:5599   */\n      tag_182\n      jump\t// in\n    tag_293:\n        /* \"#utility.yul\":5136:5606   */\n      swap5\n      swap4\n      pop\n      pop\n      pop\n      pop\n      jump\t// out\n        /* \"#utility.yul\":5612:5792   */\n    tag_63:\n        /* \"#utility.yul\":5660:5737   */\n      0x4e487b7100000000000000000000000000000000000000000000000000000000\n        /* \"#utility.yul\":5657:5658   */\n      0x00\n        /* \"#utility.yul\":5650:5738   */\n      mstore\n        /* \"#utility.yul\":5757:5761   */\n      0x41\n        /* \"#utility.yul\":5754:5755   */\n      0x04\n        /* \"#utility.yul\":5747:5762   */\n      mstore\n        /* \"#utility.yul\":5781:5785   */\n      0x24\n        /* \"#utility.yul\":5778:5779   */\n      0x00\n        /* \"#utility.yul\":5771:5786   */\n      revert\n        /* \"#utility.yul\":5798:5978   */\n    tag_70:\n        /* \"#utility.yul\":5846:5923   */\n      0x4e487b7100000000000000000000000000000000000000000000000000000000\n        /* \"#utility.yul\":5843:5844   */\n      0x00\n        /* \"#utility.yul\":5836:5924   */\n      mstore\n        /* \"#utility.yul\":5943:5947   */\n      0x32\n        /* \"#utility.yul\":5940:5941   */\n      0x04\n        /* \"#utility.yul\":5933:5948   */\n      mstore\n        /* \"#utility.yul\":5967:5971   */\n      0x24\n        /* \"#utility.yul\":5964:5965   */\n      0x00\n        /* \"#utility.yul\":5957:5972   */\n      revert\n        /* \"#utility.yul\":5984:6085   */\n    tag_191:\n        /* \"#utility.yul\":6020:6027   */\n      0x00\n        /* \"#utility.yul\":6060:6078   */\n      0xffffffffffffffff\n        /* \"#utility.yul\":6053:6058   */\n      dup3\n        /* \"#utility.yul\":6049:6079   */\n      and\n        /* \"#utility.yul\":6038:6079   */\n      swap1\n      pop\n        /* \"#utility.yul\":5984:6085   */\n      swap2\n      swap1\n      pop\n      jump\t// out\n        /* \"#utility.yul\":6091:6206   */\n    tag_192:\n        /* \"#utility.yul\":6176:6199   */\n      tag_298\n        /* \"#utility.yul\":6193:6198   */\n      dup2\n        /* \"#utility.yul\":6176:6199   */\n      tag_191\n      jump\t// in\n    tag_298:\n        /* \"#utility.yul\":6171:6174   */\n      dup3\n        /* \"#utility.yul\":6164:6200   */\n      mstore\n        /* \"#utility.yul\":6091:6206   */\n      pop\n      pop\n      jump\t// out\n        /* \"#utility.yul\":6212:6310   */\n    tag_193:\n        /* \"#utility.yul\":6263:6269   */\n      0x00\n        /* \"#utility.yul\":6297:6302   */\n      dup2\n        /* \"#utility.yul\":6291:6303   */\n      mload\n        /* \"#utility.yul\":6281:6303   */\n      swap1\n      pop\n        /* \"#utility.yul\":6212:6310   */\n      swap2\n      swap1\n      pop\n      jump\t// out\n        /* \"#utility.yul\":6316:6474   */\n    tag_194:\n        /* \"#utility.yul\":6389:6400   */\n      0x00\n        /* \"#utility.yul\":6423:6429   */\n      dup3\n        /* \"#utility.yul\":6418:6421   */\n      dup3\n        /* \"#utility.yul\":6411:6430   */\n      mstore\n        /* \"#utility.yul\":6463:6467   */\n      0x20\n        /* \"#utility.yul\":6458:6461   */\n      dup3\n        /* \"#utility.yul\":6454:6468   */\n      add\n        /* \"#utility.yul\":6439:6468   */\n      swap1\n      pop\n        /* \"#utility.yul\":6316:6474   */\n      swap3\n      swap2\n      pop\n      pop\n      jump\t// out\n        /* \"#utility.yul\":6480:6619   */\n    tag_195:\n        /* \"#utility.yul\":6569:6575   */\n      dup3\n        /* \"#utility.yul\":6564:6567   */\n      dup2\n        /* \"#utility.yul\":6559:6562   */\n      dup4\n        /* \"#utility.yul\":6553:6576   */\n      mcopy\n        /* \"#utility.yul\":6610:6611   */\n      0x00\n        /* \"#utility.yul\":6601:6607   */\n      dup4\n        /* \"#utility.yul\":6596:6599   */\n      dup4\n        /* \"#utility.yul\":6592:6608   */\n      add\n        /* \"#utility.yul\":6585:6612   */\n      mstore\n        /* \"#utility.yul\":6480:6619   */\n      pop\n      pop\n      pop\n      jump\t// out\n        /* \"#utility.yul\":6625:6727   */\n    tag_196:\n        /* \"#utility.yul\":6666:6672   */\n      0x00\n        /* \"#utility.yul\":6717:6719   */\n      0x1f\n        /* \"#utility.yul\":6713:6720   */\n      not\n        /* \"#utility.yul\":6708:6710   */\n      0x1f\n        /* \"#utility.yul\":6701:6706   */\n      dup4\n        /* \"#utility.yul\":6697:6711   */\n      add\n        /* \"#utility.yul\":6693:6721   */\n      and\n        /* \"#utility.yul\":6683:6721   */\n      swap1\n      pop\n        /* \"#utility.yul\":6625:6727   */\n      swap2\n      swap1\n      pop\n      jump\t// out\n        /* \"#utility.yul\":6733:7086   */\n    tag_197:\n        /* \"#utility.yul\":6809:6812   */\n      0x00\n        /* \"#utility.yul\":6837:6875   */\n      tag_304\n        /* \"#utility.yul\":6869:6874   */\n      dup3\n        /* \"#utility.yul\":6837:6875   */\n      tag_193\n      jump\t// in\n    tag_304:\n        /* \"#utility.yul\":6891:6951   */\n      tag_305\n        /* \"#utility.yul\":6944:6950   */\n      dup2\n        /* \"#utility.yul\":6939:6942   */\n      dup6\n        /* \"#utility.yul\":6891:6951   */\n      tag_194\n      jump\t// in\n    tag_305:\n        /* \"#utility.yul\":6884:6951   */\n      swap4\n      pop\n        /* \"#utility.yul\":6960:7025   */\n      tag_306\n        /* \"#utility.yul\":7018:7024   */\n      dup2\n        /* \"#utility.yul\":7013:7016   */\n      dup6\n        /* \"#utility.yul\":7006:7010   */\n      0x20\n        /* \"#utility.yul\":6999:7004   */\n      dup7\n        /* \"#utility.yul\":6995:7011   */\n      add\n        /* \"#utility.yul\":6960:7025   */\n      tag_195\n      jump\t// in\n    tag_306:\n        /* \"#utility.yul\":7050:7079   */\n      tag_307\n        /* \"#utility.yul\":7072:7078   */\n      dup2\n        /* \"#utility.yul\":7050:7079   */\n      tag_196\n      jump\t// in\n    tag_307:\n        /* \"#utility.yul\":7045:7048   */\n      dup5\n        /* \"#utility.yul\":7041:7080   */\n      add\n        /* \"#utility.yul\":7034:7080   */\n      swap2\n      pop\n        /* \"#utility.yul\":6813:7086   */\n      pop\n        /* \"#utility.yul\":6733:7086   */\n      swap3\n      swap2\n      pop\n      pop\n      jump\t// out\n        /* \"#utility.yul\":7092:7235   */\n    tag_198:\n        /* \"#utility.yul\":7188:7194   */\n      0x00\n        /* \"#utility.yul\":7222:7227   */\n      dup2\n        /* \"#utility.yul\":7216:7228   */\n      mload\n        /* \"#utility.yul\":7206:7228   */\n      swap1\n      pop\n        /* \"#utility.yul\":7092:7235   */\n      swap2\n      swap1\n      pop\n      jump\t// out\n        /* \"#utility.yul\":7241:7444   */\n    tag_199:\n        /* \"#utility.yul\":7359:7370   */\n      0x00\n        /* \"#utility.yul\":7393:7399   */\n      dup3\n        /* \"#utility.yul\":7388:7391   */\n      dup3\n        /* \"#utility.yul\":7381:7400   */\n      mstore\n        /* \"#utility.yul\":7433:7437   */\n      0x20\n        /* \"#utility.yul\":7428:7431   */\n      dup3\n        /* \"#utility.yul\":7424:7438   */\n      add\n        /* \"#utility.yul\":7409:7438   */\n      swap1\n      pop\n        /* \"#utility.yul\":7241:7444   */\n      swap3\n      swap2\n      pop\n      pop\n      jump\t// out\n        /* \"#utility.yul\":7450:7611   */\n    tag_200:\n        /* \"#utility.yul\":7546:7550   */\n      0x00\n        /* \"#utility.yul\":7569:7572   */\n      dup2\n        /* \"#utility.yul\":7561:7572   */\n      swap1\n      pop\n        /* \"#utility.yul\":7599:7603   */\n      0x20\n        /* \"#utility.yul\":7594:7597   */\n      dup3\n        /* \"#utility.yul\":7590:7604   */\n      add\n        /* \"#utility.yul\":7582:7604   */\n      swap1\n      pop\n        /* \"#utility.yul\":7450:7611   */\n      swap2\n      swap1\n      pop\n      jump\t// out\n        /* \"#utility.yul\":7617:7725   */\n    tag_201:\n        /* \"#utility.yul\":7694:7718   */\n      tag_312\n        /* \"#utility.yul\":7712:7717   */\n      dup2\n        /* \"#utility.yul\":7694:7718   */\n      tag_172\n      jump\t// in\n    tag_312:\n        /* \"#utility.yul\":7689:7692   */\n      dup3\n        /* \"#utility.yul\":7682:7719   */\n      mstore\n        /* \"#utility.yul\":7617:7725   */\n      pop\n      pop\n      jump\t// out\n        /* \"#utility.yul\":7731:7839   */\n    tag_202:\n        /* \"#utility.yul\":7808:7832   */\n      tag_314\n        /* \"#utility.yul\":7826:7831   */\n      dup2\n        /* \"#utility.yul\":7808:7832   */\n      tag_176\n      jump\t// in\n    tag_314:\n        /* \"#utility.yul\":7803:7806   */\n      dup3\n        /* \"#utility.yul\":7796:7833   */\n      mstore\n        /* \"#utility.yul\":7731:7839   */\n      pop\n      pop\n      jump\t// out\n        /* \"#utility.yul\":7913:8421   */\n    tag_203:\n        /* \"#utility.yul\":8058:8062   */\n      0x40\n        /* \"#utility.yul\":8053:8056   */\n      dup3\n        /* \"#utility.yul\":8049:8063   */\n      add\n        /* \"#utility.yul\":8146:8150   */\n      0x00\n        /* \"#utility.yul\":8139:8144   */\n      dup3\n        /* \"#utility.yul\":8135:8151   */\n      add\n        /* \"#utility.yul\":8129:8152   */\n      mload\n        /* \"#utility.yul\":8165:8228   */\n      tag_316\n        /* \"#utility.yul\":8222:8226   */\n      0x00\n        /* \"#utility.yul\":8217:8220   */\n      dup6\n        /* \"#utility.yul\":8213:8227   */\n      add\n        /* \"#utility.yul\":8199:8211   */\n      dup3\n        /* \"#utility.yul\":8165:8228   */\n      tag_201\n      jump\t// in\n    tag_316:\n        /* \"#utility.yul\":8073:8238   */\n      pop\n        /* \"#utility.yul\":8322:8326   */\n      0x20\n        /* \"#utility.yul\":8315:8320   */\n      dup3\n        /* \"#utility.yul\":8311:8327   */\n      add\n        /* \"#utility.yul\":8305:8328   */\n      mload\n        /* \"#utility.yul\":8341:8404   */\n      tag_317\n        /* \"#utility.yul\":8398:8402   */\n      0x20\n        /* \"#utility.yul\":8393:8396   */\n      dup6\n        /* \"#utility.yul\":8389:8403   */\n      add\n        /* \"#utility.yul\":8375:8387   */\n      dup3\n        /* \"#utility.yul\":8341:8404   */\n      tag_202\n      jump\t// in\n    tag_317:\n        /* \"#utility.yul\":8248:8414   */\n      pop\n        /* \"#utility.yul\":8027:8421   */\n      pop\n        /* \"#utility.yul\":7913:8421   */\n      pop\n      pop\n      jump\t// out\n        /* \"#utility.yul\":8427:8722   */\n    tag_204:\n        /* \"#utility.yul\":8554:8564   */\n      0x00\n        /* \"#utility.yul\":8575:8679   */\n      tag_319\n        /* \"#utility.yul\":8675:8678   */\n      dup4\n        /* \"#utility.yul\":8667:8673   */\n      dup4\n        /* \"#utility.yul\":8575:8679   */\n      tag_203\n      jump\t// in\n    tag_319:\n        /* \"#utility.yul\":8711:8715   */\n      0x40\n        /* \"#utility.yul\":8706:8709   */\n      dup4\n        /* \"#utility.yul\":8702:8716   */\n      add\n        /* \"#utility.yul\":8688:8716   */\n      swap1\n      pop\n        /* \"#utility.yul\":8427:8722   */\n      swap3\n      swap2\n      pop\n      pop\n      jump\t// out\n        /* \"#utility.yul\":8728:8870   */\n    tag_205:\n        /* \"#utility.yul\":8827:8831   */\n      0x00\n        /* \"#utility.yul\":8859:8863   */\n      0x20\n        /* \"#utility.yul\":8854:8857   */\n      dup3\n        /* \"#utility.yul\":8850:8864   */\n      add\n        /* \"#utility.yul\":8842:8864   */\n      swap1\n      pop\n        /* \"#utility.yul\":8728:8870   */\n      swap2\n      swap1\n      pop\n      jump\t// out\n        /* \"#utility.yul\":8948:9892   */\n    tag_206:\n        /* \"#utility.yul\":9115:9118   */\n      0x00\n        /* \"#utility.yul\":9144:9227   */\n      tag_322\n        /* \"#utility.yul\":9221:9226   */\n      dup3\n        /* \"#utility.yul\":9144:9227   */\n      tag_198\n      jump\t// in\n    tag_322:\n        /* \"#utility.yul\":9243:9348   */\n      tag_323\n        /* \"#utility.yul\":9341:9347   */\n      dup2\n        /* \"#utility.yul\":9336:9339   */\n      dup6\n        /* \"#utility.yul\":9243:9348   */\n      tag_199\n      jump\t// in\n    tag_323:\n        /* \"#utility.yul\":9236:9348   */\n      swap4\n      pop\n        /* \"#utility.yul\":9372:9457   */\n      tag_324\n        /* \"#utility.yul\":9451:9456   */\n      dup4\n        /* \"#utility.yul\":9372:9457   */\n      tag_200\n      jump\t// in\n    tag_324:\n        /* \"#utility.yul\":9480:9487   */\n      dup1\n        /* \"#utility.yul\":9511:9512   */\n      0x00\n        /* \"#utility.yul\":9496:9867   */\n    tag_325:\n        /* \"#utility.yul\":9521:9527   */\n      dup4\n        /* \"#utility.yul\":9518:9519   */\n      dup2\n        /* \"#utility.yul\":9515:9528   */\n      lt\n        /* \"#utility.yul\":9496:9867   */\n      iszero\n      tag_327\n      jumpi\n        /* \"#utility.yul\":9597:9603   */\n      dup2\n        /* \"#utility.yul\":9591:9604   */\n      mload\n        /* \"#utility.yul\":9624:9745   */\n      tag_328\n        /* \"#utility.yul\":9741:9744   */\n      dup9\n        /* \"#utility.yul\":9726:9739   */\n      dup3\n        /* \"#utility.yul\":9624:9745   */\n      tag_204\n      jump\t// in\n    tag_328:\n        /* \"#utility.yul\":9617:9745   */\n      swap8\n      pop\n        /* \"#utility.yul\":9768:9857   */\n      tag_329\n        /* \"#utility.yul\":9850:9856   */\n      dup4\n        /* \"#utility.yul\":9768:9857   */\n      tag_205\n      jump\t// in\n    tag_329:\n        /* \"#utility.yul\":9758:9857   */\n      swap3\n      pop\n        /* \"#utility.yul\":9556:9867   */\n      pop\n        /* \"#utility.yul\":9543:9544   */\n      0x01\n        /* \"#utility.yul\":9540:9541   */\n      dup2\n        /* \"#utility.yul\":9536:9545   */\n      add\n        /* \"#utility.yul\":9531:9545   */\n      swap1\n      pop\n        /* \"#utility.yul\":9496:9867   */\n      jump(tag_325)\n    tag_327:\n        /* \"#utility.yul\":9500:9514   */\n      pop\n        /* \"#utility.yul\":9883:9886   */\n      dup6\n        /* \"#utility.yul\":9876:9886   */\n      swap4\n      pop\n        /* \"#utility.yul\":9120:9892   */\n      pop\n      pop\n      pop\n        /* \"#utility.yul\":8948:9892   */\n      swap3\n      swap2\n      pop\n      pop\n      jump\t// out\n        /* \"#utility.yul\":9966:11420   */\n    tag_207:\n        /* \"#utility.yul\":10095:10098   */\n      0x00\n        /* \"#utility.yul\":10131:10135   */\n      0xa0\n        /* \"#utility.yul\":10126:10129   */\n      dup4\n        /* \"#utility.yul\":10122:10136   */\n      add\n        /* \"#utility.yul\":10222:10226   */\n      0x00\n        /* \"#utility.yul\":10215:10220   */\n      dup4\n        /* \"#utility.yul\":10211:10227   */\n      add\n        /* \"#utility.yul\":10205:10228   */\n      mload\n        /* \"#utility.yul\":10275:10278   */\n      dup5\n        /* \"#utility.yul\":10269:10273   */\n      dup3\n        /* \"#utility.yul\":10265:10279   */\n      sub\n        /* \"#utility.yul\":10258:10262   */\n      0x00\n        /* \"#utility.yul\":10253:10256   */\n      dup7\n        /* \"#utility.yul\":10249:10263   */\n      add\n        /* \"#utility.yul\":10242:10280   */\n      mstore\n        /* \"#utility.yul\":10301:10372   */\n      tag_331\n        /* \"#utility.yul\":10367:10371   */\n      dup3\n        /* \"#utility.yul\":10353:10365   */\n      dup3\n        /* \"#utility.yul\":10301:10372   */\n      tag_197\n      jump\t// in\n    tag_331:\n        /* \"#utility.yul\":10293:10372   */\n      swap2\n      pop\n        /* \"#utility.yul\":10146:10383   */\n      pop\n        /* \"#utility.yul\":10465:10469   */\n      0x20\n        /* \"#utility.yul\":10458:10463   */\n      dup4\n        /* \"#utility.yul\":10454:10470   */\n      add\n        /* \"#utility.yul\":10448:10471   */\n      mload\n        /* \"#utility.yul\":10518:10521   */\n      dup5\n        /* \"#utility.yul\":10512:10516   */\n      dup3\n        /* \"#utility.yul\":10508:10522   */\n      sub\n        /* \"#utility.yul\":10501:10505   */\n      0x20\n        /* \"#utility.yul\":10496:10499   */\n      dup7\n        /* \"#utility.yul\":10492:10506   */\n      add\n        /* \"#utility.yul\":10485:10523   */\n      mstore\n        /* \"#utility.yul\":10544:10615   */\n      tag_332\n        /* \"#utility.yul\":10610:10614   */\n      dup3\n        /* \"#utility.yul\":10596:10608   */\n      dup3\n        /* \"#utility.yul\":10544:10615   */\n      tag_197\n      jump\t// in\n    tag_332:\n        /* \"#utility.yul\":10536:10615   */\n      swap2\n      pop\n        /* \"#utility.yul\":10393:10626   */\n      pop\n        /* \"#utility.yul\":10716:10720   */\n      0x40\n        /* \"#utility.yul\":10709:10714   */\n      dup4\n        /* \"#utility.yul\":10705:10721   */\n      add\n        /* \"#utility.yul\":10699:10722   */\n      mload\n        /* \"#utility.yul\":10769:10772   */\n      dup5\n        /* \"#utility.yul\":10763:10767   */\n      dup3\n        /* \"#utility.yul\":10759:10773   */\n      sub\n        /* \"#utility.yul\":10752:10756   */\n      0x40\n        /* \"#utility.yul\":10747:10750   */\n      dup7\n        /* \"#utility.yul\":10743:10757   */\n      add\n        /* \"#utility.yul\":10736:10774   */\n      mstore\n        /* \"#utility.yul\":10795:10956   */\n      tag_333\n        /* \"#utility.yul\":10951:10955   */\n      dup3\n        /* \"#utility.yul\":10937:10949   */\n      dup3\n        /* \"#utility.yul\":10795:10956   */\n      tag_206\n      jump\t// in\n    tag_333:\n        /* \"#utility.yul\":10787:10956   */\n      swap2\n      pop\n        /* \"#utility.yul\":10636:10967   */\n      pop\n        /* \"#utility.yul\":11053:11057   */\n      0x60\n        /* \"#utility.yul\":11046:11051   */\n      dup4\n        /* \"#utility.yul\":11042:11058   */\n      add\n        /* \"#utility.yul\":11036:11059   */\n      mload\n        /* \"#utility.yul\":11072:11135   */\n      tag_334\n        /* \"#utility.yul\":11129:11133   */\n      0x60\n        /* \"#utility.yul\":11124:11127   */\n      dup7\n        /* \"#utility.yul\":11120:11134   */\n      add\n        /* \"#utility.yul\":11106:11118   */\n      dup3\n        /* \"#utility.yul\":11072:11135   */\n      tag_201\n      jump\t// in\n    tag_334:\n        /* \"#utility.yul\":10977:11145   */\n      pop\n        /* \"#utility.yul\":11232:11236   */\n      0x80\n        /* \"#utility.yul\":11225:11230   */\n      dup4\n        /* \"#utility.yul\":11221:11237   */\n      add\n        /* \"#utility.yul\":11215:11238   */\n      mload\n        /* \"#utility.yul\":11285:11288   */\n      dup5\n        /* \"#utility.yul\":11279:11283   */\n      dup3\n        /* \"#utility.yul\":11275:11289   */\n      sub\n        /* \"#utility.yul\":11268:11272   */\n      0x80\n        /* \"#utility.yul\":11263:11266   */\n      dup7\n        /* \"#utility.yul\":11259:11273   */\n      add\n        /* \"#utility.yul\":11252:11290   */\n      mstore\n        /* \"#utility.yul\":11311:11382   */\n      tag_335\n        /* \"#utility.yul\":11377:11381   */\n      dup3\n        /* \"#utility.yul\":11363:11375   */\n      dup3\n        /* \"#utility.yul\":11311:11382   */\n      tag_197\n      jump\t// in\n    tag_335:\n        /* \"#utility.yul\":11303:11382   */\n      swap2\n      pop\n        /* \"#utility.yul\":11155:11393   */\n      pop\n        /* \"#utility.yul\":11410:11414   */\n      dup1\n        /* \"#utility.yul\":11403:11414   */\n      swap2\n      pop\n        /* \"#utility.yul\":10100:11420   */\n      pop\n        /* \"#utility.yul\":9966:11420   */\n      swap3\n      swap2\n      pop\n      pop\n      jump\t// out\n        /* \"#utility.yul\":11426:11925   */\n    tag_75:\n        /* \"#utility.yul\":11605:11609   */\n      0x00\n        /* \"#utility.yul\":11643:11645   */\n      0x40\n        /* \"#utility.yul\":11632:11641   */\n      dup3\n        /* \"#utility.yul\":11628:11646   */\n      add\n        /* \"#utility.yul\":11620:11646   */\n      swap1\n      pop\n        /* \"#utility.yul\":11656:11725   */\n      tag_337\n        /* \"#utility.yul\":11722:11723   */\n      0x00\n        /* \"#utility.yul\":11711:11720   */\n      dup4\n        /* \"#utility.yul\":11707:11724   */\n      add\n        /* \"#utility.yul\":11698:11704   */\n      dup6\n        /* \"#utility.yul\":11656:11725   */\n      tag_192\n      jump\t// in\n    tag_337:\n        /* \"#utility.yul\":11772:11781   */\n      dup2\n        /* \"#utility.yul\":11766:11770   */\n      dup2\n        /* \"#utility.yul\":11762:11782   */\n      sub\n        /* \"#utility.yul\":11757:11759   */\n      0x20\n        /* \"#utility.yul\":11746:11755   */\n      dup4\n        /* \"#utility.yul\":11742:11760   */\n      add\n        /* \"#utility.yul\":11735:11783   */\n      mstore\n        /* \"#utility.yul\":11800:11918   */\n      tag_338\n        /* \"#utility.yul\":11913:11917   */\n      dup2\n        /* \"#utility.yul\":11904:11910   */\n      dup5\n        /* \"#utility.yul\":11800:11918   */\n      tag_207\n      jump\t// in\n    tag_338:\n        /* \"#utility.yul\":11792:11918   */\n      swap1\n      pop\n        /* \"#utility.yul\":11426:11925   */\n      swap4\n      swap3\n      pop\n      pop\n      pop\n      jump\t// out\n        /* \"#utility.yul\":11931:12053   */\n    tag_208:\n        /* \"#utility.yul\":12004:12028   */\n      tag_340\n        /* \"#utility.yul\":12022:12027   */\n      dup2\n        /* \"#utility.yul\":12004:12028   */\n      tag_179\n      jump\t// in\n    tag_340:\n        /* \"#utility.yul\":11997:12002   */\n      dup2\n        /* \"#utility.yul\":11994:12029   */\n      eq\n        /* \"#utility.yul\":11984:12047   */\n      tag_341\n      jumpi\n        /* \"#utility.yul\":12043:12044   */\n      0x00\n        /* \"#utility.yul\":12040:12041   */\n      0x00\n        /* \"#utility.yul\":12033:12045   */\n      revert\n        /* \"#utility.yul\":11984:12047   */\n    tag_341:\n        /* \"#utility.yul\":11931:12053   */\n      pop\n      jump\t// out\n        /* \"#utility.yul\":12059:12202   */\n    tag_209:\n        /* \"#utility.yul\":12116:12121   */\n      0x00\n        /* \"#utility.yul\":12147:12153   */\n      dup2\n        /* \"#utility.yul\":12141:12154   */\n      mload\n        /* \"#utility.yul\":12132:12154   */\n      swap1\n      pop\n        /* \"#utility.yul\":12163:12196   */\n      tag_343\n        /* \"#utility.yul\":12190:12195   */\n      dup2\n        /* \"#utility.yul\":12163:12196   */\n      tag_208\n      jump\t// in\n    tag_343:\n        /* \"#utility.yul\":12059:12202   */\n      swap3\n      swap2\n      pop\n      pop\n      jump\t// out\n        /* \"#utility.yul\":12208:12559   */\n    tag_103:\n        /* \"#utility.yul\":12278:12284   */\n      0x00\n        /* \"#utility.yul\":12327:12329   */\n      0x20\n        /* \"#utility.yul\":12315:12324   */\n      dup3\n        /* \"#utility.yul\":12306:12313   */\n      dup5\n        /* \"#utility.yul\":12302:12325   */\n      sub\n        /* \"#utility.yul\":12298:12330   */\n      slt\n        /* \"#utility.yul\":12295:12414   */\n      iszero\n      tag_345\n      jumpi\n        /* \"#utility.yul\":12333:12412   */\n      tag_346\n      tag_169\n      jump\t// in\n    tag_346:\n        /* \"#utility.yul\":12295:12414   */\n    tag_345:\n        /* \"#utility.yul\":12453:12454   */\n      0x00\n        /* \"#utility.yul\":12478:12542   */\n      tag_347\n        /* \"#utility.yul\":12534:12541   */\n      dup5\n        /* \"#utility.yul\":12525:12531   */\n      dup3\n        /* \"#utility.yul\":12514:12523   */\n      dup6\n        /* \"#utility.yul\":12510:12532   */\n      add\n        /* \"#utility.yul\":12478:12542   */\n      tag_209\n      jump\t// in\n    tag_347:\n        /* \"#utility.yul\":12468:12542   */\n      swap2\n      pop\n        /* \"#utility.yul\":12424:12552   */\n      pop\n        /* \"#utility.yul\":12208:12559   */\n      swap3\n      swap2\n      pop\n      pop\n      jump\t// out\n        /* \"#utility.yul\":12565:13007   */\n    tag_105:\n        /* \"#utility.yul\":12714:12718   */\n      0x00\n        /* \"#utility.yul\":12752:12754   */\n      0x60\n        /* \"#utility.yul\":12741:12750   */\n      dup3\n        /* \"#utility.yul\":12737:12755   */\n      add\n        /* \"#utility.yul\":12729:12755   */\n      swap1\n      pop\n        /* \"#utility.yul\":12765:12836   */\n      tag_349\n        /* \"#utility.yul\":12833:12834   */\n      0x00\n        /* \"#utility.yul\":12822:12831   */\n      dup4\n        /* \"#utility.yul\":12818:12835   */\n      add\n        /* \"#utility.yul\":12809:12815   */\n      dup7\n        /* \"#utility.yul\":12765:12836   */\n      tag_180\n      jump\t// in\n    tag_349:\n        /* \"#utility.yul\":12846:12918   */\n      tag_350\n        /* \"#utility.yul\":12914:12916   */\n      0x20\n        /* \"#utility.yul\":12903:12912   */\n      dup4\n        /* \"#utility.yul\":12899:12917   */\n      add\n        /* \"#utility.yul\":12890:12896   */\n      dup6\n        /* \"#utility.yul\":12846:12918   */\n      tag_182\n      jump\t// in\n    tag_350:\n        /* \"#utility.yul\":12928:13000   */\n      tag_351\n        /* \"#utility.yul\":12996:12998   */\n      0x40\n        /* \"#utility.yul\":12985:12994   */\n      dup4\n        /* \"#utility.yul\":12981:12999   */\n      add\n        /* \"#utility.yul\":12972:12978   */\n      dup5\n        /* \"#utility.yul\":12928:13000   */\n      tag_182\n      jump\t// in\n    tag_351:\n        /* \"#utility.yul\":12565:13007   */\n      swap5\n      swap4\n      pop\n      pop\n      pop\n      pop\n      jump\t// out\n        /* \"#utility.yul\":13081:13428   */\n    tag_210:\n        /* \"#utility.yul\":13238:13242   */\n      0x20\n        /* \"#utility.yul\":13233:13236   */\n      dup3\n        /* \"#utility.yul\":13229:13243   */\n      add\n        /* \"#utility.yul\":13329:13333   */\n      0x00\n        /* \"#utility.yul\":13322:13327   */\n      dup3\n        /* \"#utility.yul\":13318:13334   */\n      add\n        /* \"#utility.yul\":13312:13335   */\n      mload\n        /* \"#utility.yul\":13348:13411   */\n      tag_353\n        /* \"#utility.yul\":13405:13409   */\n      0x00\n        /* \"#utility.yul\":13400:13403   */\n      dup6\n        /* \"#utility.yul\":13396:13410   */\n      add\n        /* \"#utility.yul\":13382:13394   */\n      dup3\n        /* \"#utility.yul\":13348:13411   */\n      tag_202\n      jump\t// in\n    tag_353:\n        /* \"#utility.yul\":13253:13421   */\n      pop\n        /* \"#utility.yul\":13207:13428   */\n      pop\n        /* \"#utility.yul\":13081:13428   */\n      pop\n      pop\n      jump\t// out\n        /* \"#utility.yul\":13434:13776   */\n    tag_122:\n        /* \"#utility.yul\":13587:13591   */\n      0x00\n        /* \"#utility.yul\":13625:13627   */\n      0x20\n        /* \"#utility.yul\":13614:13623   */\n      dup3\n        /* \"#utility.yul\":13610:13628   */\n      add\n        /* \"#utility.yul\":13602:13628   */\n      swap1\n      pop\n        /* \"#utility.yul\":13638:13769   */\n      tag_355\n        /* \"#utility.yul\":13766:13767   */\n      0x00\n        /* \"#utility.yul\":13755:13764   */\n      dup4\n        /* \"#utility.yul\":13751:13768   */\n      add\n        /* \"#utility.yul\":13742:13748   */\n      dup5\n        /* \"#utility.yul\":13638:13769   */\n      tag_210\n      jump\t// in\n    tag_355:\n        /* \"#utility.yul\":13434:13776   */\n      swap3\n      swap2\n      pop\n      pop\n      jump\t// out\n        /* \"#utility.yul\":13782:14224   */\n    tag_126:\n        /* \"#utility.yul\":13931:13935   */\n      0x00\n        /* \"#utility.yul\":13969:13971   */\n      0x60\n        /* \"#utility.yul\":13958:13967   */\n      dup3\n        /* \"#utility.yul\":13954:13972   */\n      add\n        /* \"#utility.yul\":13946:13972   */\n      swap1\n      pop\n        /* \"#utility.yul\":13982:14053   */\n      tag_357\n        /* \"#utility.yul\":14050:14051   */\n      0x00\n        /* \"#utility.yul\":14039:14048   */\n      dup4\n        /* \"#utility.yul\":14035:14052   */\n      add\n        /* \"#utility.yul\":14026:14032   */\n      dup7\n        /* \"#utility.yul\":13982:14053   */\n      tag_175\n      jump\t// in\n    tag_357:\n        /* \"#utility.yul\":14063:14135   */\n      tag_358\n        /* \"#utility.yul\":14131:14133   */\n      0x20\n        /* \"#utility.yul\":14120:14129   */\n      dup4\n        /* \"#utility.yul\":14116:14134   */\n      add\n        /* \"#utility.yul\":14107:14113   */\n      dup6\n        /* \"#utility.yul\":14063:14135   */\n      tag_175\n      jump\t// in\n    tag_358:\n        /* \"#utility.yul\":14145:14217   */\n      tag_359\n        /* \"#utility.yul\":14213:14215   */\n      0x40\n        /* \"#utility.yul\":14202:14211   */\n      dup4\n        /* \"#utility.yul\":14198:14216   */\n      add\n        /* \"#utility.yul\":14189:14195   */\n      dup5\n        /* \"#utility.yul\":14145:14217   */\n      tag_182\n      jump\t// in\n    tag_359:\n        /* \"#utility.yul\":13782:14224   */\n      swap5\n      swap4\n      pop\n      pop\n      pop\n      pop\n      jump\t// out\n        /* \"#utility.yul\":14230:14399   */\n    tag_211:\n        /* \"#utility.yul\":14314:14325   */\n      0x00\n        /* \"#utility.yul\":14348:14354   */\n      dup3\n        /* \"#utility.yul\":14343:14346   */\n      dup3\n        /* \"#utility.yul\":14336:14355   */\n      mstore\n        /* \"#utility.yul\":14388:14392   */\n      0x20\n        /* \"#utility.yul\":14383:14386   */\n      dup3\n        /* \"#utility.yul\":14379:14393   */\n      add\n        /* \"#utility.yul\":14364:14393   */\n      swap1\n      pop\n        /* \"#utility.yul\":14230:14399   */\n      swap3\n      swap2\n      pop\n      pop\n      jump\t// out\n        /* \"#utility.yul\":14405:14634   */\n    tag_212:\n        /* \"#utility.yul\":14545:14579   */\n      0x5361666545524332303a204552433230206f7065726174696f6e20646964206e\n        /* \"#utility.yul\":14541:14542   */\n      0x00\n        /* \"#utility.yul\":14533:14539   */\n      dup3\n        /* \"#utility.yul\":14529:14543   */\n      add\n        /* \"#utility.yul\":14522:14580   */\n      mstore\n        /* \"#utility.yul\":14614:14626   */\n      0x6f74207375636365656400000000000000000000000000000000000000000000\n        /* \"#utility.yul\":14609:14611   */\n      0x20\n        /* \"#utility.yul\":14601:14607   */\n      dup3\n        /* \"#utility.yul\":14597:14612   */\n      add\n        /* \"#utility.yul\":14590:14627   */\n      mstore\n        /* \"#utility.yul\":14405:14634   */\n      pop\n      jump\t// out\n        /* \"#utility.yul\":14640:15006   */\n    tag_213:\n        /* \"#utility.yul\":14782:14785   */\n      0x00\n        /* \"#utility.yul\":14803:14870   */\n      tag_363\n        /* \"#utility.yul\":14867:14869   */\n      0x2a\n        /* \"#utility.yul\":14862:14865   */\n      dup4\n        /* \"#utility.yul\":14803:14870   */\n      tag_211\n      jump\t// in\n    tag_363:\n        /* \"#utility.yul\":14796:14870   */\n      swap2\n      pop\n        /* \"#utility.yul\":14879:14972   */\n      tag_364\n        /* \"#utility.yul\":14968:14971   */\n      dup3\n        /* \"#utility.yul\":14879:14972   */\n      tag_212\n      jump\t// in\n    tag_364:\n        /* \"#utility.yul\":14997:14999   */\n      0x40\n        /* \"#utility.yul\":14992:14995   */\n      dup3\n        /* \"#utility.yul\":14988:15000   */\n      add\n        /* \"#utility.yul\":14981:15000   */\n      swap1\n      pop\n        /* \"#utility.yul\":14640:15006   */\n      swap2\n      swap1\n      pop\n      jump\t// out\n        /* \"#utility.yul\":15012:15431   */\n    tag_136:\n        /* \"#utility.yul\":15178:15182   */\n      0x00\n        /* \"#utility.yul\":15216:15218   */\n      0x20\n        /* \"#utility.yul\":15205:15214   */\n      dup3\n        /* \"#utility.yul\":15201:15219   */\n      add\n        /* \"#utility.yul\":15193:15219   */\n      swap1\n      pop\n        /* \"#utility.yul\":15265:15274   */\n      dup2\n        /* \"#utility.yul\":15259:15263   */\n      dup2\n        /* \"#utility.yul\":15255:15275   */\n      sub\n        /* \"#utility.yul\":15251:15252   */\n      0x00\n        /* \"#utility.yul\":15240:15249   */\n      dup4\n        /* \"#utility.yul\":15236:15253   */\n      add\n        /* \"#utility.yul\":15229:15276   */\n      mstore\n        /* \"#utility.yul\":15293:15424   */\n      tag_366\n        /* \"#utility.yul\":15419:15423   */\n      dup2\n        /* \"#utility.yul\":15293:15424   */\n      tag_213\n      jump\t// in\n    tag_366:\n        /* \"#utility.yul\":15285:15424   */\n      swap1\n      pop\n        /* \"#utility.yul\":15012:15431   */\n      swap2\n      swap1\n      pop\n      jump\t// out\n        /* \"#utility.yul\":15437:15662   */\n    tag_214:\n        /* \"#utility.yul\":15577:15611   */\n      0x416464726573733a20696e73756666696369656e742062616c616e636520666f\n        /* \"#utility.yul\":15573:15574   */\n      0x00\n        /* \"#utility.yul\":15565:15571   */\n      dup3\n        /* \"#utility.yul\":15561:15575   */\n      add\n        /* \"#utility.yul\":15554:15612   */\n      mstore\n        /* \"#utility.yul\":15646:15654   */\n      0x722063616c6c0000000000000000000000000000000000000000000000000000\n        /* \"#utility.yul\":15641:15643   */\n      0x20\n        /* \"#utility.yul\":15633:15639   */\n      dup3\n        /* \"#utility.yul\":15629:15644   */\n      add\n        /* \"#utility.yul\":15622:15655   */\n      mstore\n        /* \"#utility.yul\":15437:15662   */\n      pop\n      jump\t// out\n        /* \"#utility.yul\":15668:16034   */\n    tag_215:\n        /* \"#utility.yul\":15810:15813   */\n      0x00\n        /* \"#utility.yul\":15831:15898   */\n      tag_369\n        /* \"#utility.yul\":15895:15897   */\n      0x26\n        /* \"#utility.yul\":15890:15893   */\n      dup4\n        /* \"#utility.yul\":15831:15898   */\n      tag_211\n      jump\t// in\n    tag_369:\n        /* \"#utility.yul\":15824:15898   */\n      swap2\n      pop\n        /* \"#utility.yul\":15907:16000   */\n      tag_370\n        /* \"#utility.yul\":15996:15999   */\n      dup3\n        /* \"#utility.yul\":15907:16000   */\n      tag_214\n      jump\t// in\n    tag_370:\n        /* \"#utility.yul\":16025:16027   */\n      0x40\n        /* \"#utility.yul\":16020:16023   */\n      dup3\n        /* \"#utility.yul\":16016:16028   */\n      add\n        /* \"#utility.yul\":16009:16028   */\n      swap1\n      pop\n        /* \"#utility.yul\":15668:16034   */\n      swap2\n      swap1\n      pop\n      jump\t// out\n        /* \"#utility.yul\":16040:16459   */\n    tag_143:\n        /* \"#utility.yul\":16206:16210   */\n      0x00\n        /* \"#utility.yul\":16244:16246   */\n      0x20\n        /* \"#utility.yul\":16233:16242   */\n      dup3\n        /* \"#utility.yul\":16229:16247   */\n      add\n        /* \"#utility.yul\":16221:16247   */\n      swap1\n      pop\n        /* \"#utility.yul\":16293:16302   */\n      dup2\n        /* \"#utility.yul\":16287:16291   */\n      dup2\n        /* \"#utility.yul\":16283:16303   */\n      sub\n        /* \"#utility.yul\":16279:16280   */\n      0x00\n        /* \"#utility.yul\":16268:16277   */\n      dup4\n        /* \"#utility.yul\":16264:16281   */\n      add\n        /* \"#utility.yul\":16257:16304   */\n      mstore\n        /* \"#utility.yul\":16321:16452   */\n      tag_372\n        /* \"#utility.yul\":16447:16451   */\n      dup2\n        /* \"#utility.yul\":16321:16452   */\n      tag_215\n      jump\t// in\n    tag_372:\n        /* \"#utility.yul\":16313:16452   */\n      swap1\n      pop\n        /* \"#utility.yul\":16040:16459   */\n      swap2\n      swap1\n      pop\n      jump\t// out\n        /* \"#utility.yul\":16465:16612   */\n    tag_216:\n        /* \"#utility.yul\":16566:16577   */\n      0x00\n        /* \"#utility.yul\":16603:16606   */\n      dup2\n        /* \"#utility.yul\":16588:16606   */\n      swap1\n      pop\n        /* \"#utility.yul\":16465:16612   */\n      swap3\n      swap2\n      pop\n      pop\n      jump\t// out\n        /* \"#utility.yul\":16618:17004   */\n    tag_217:\n        /* \"#utility.yul\":16722:16725   */\n      0x00\n        /* \"#utility.yul\":16750:16788   */\n      tag_375\n        /* \"#utility.yul\":16782:16787   */\n      dup3\n        /* \"#utility.yul\":16750:16788   */\n      tag_193\n      jump\t// in\n    tag_375:\n        /* \"#utility.yul\":16804:16892   */\n      tag_376\n        /* \"#utility.yul\":16885:16891   */\n      dup2\n        /* \"#utility.yul\":16880:16883   */\n      dup6\n        /* \"#utility.yul\":16804:16892   */\n      tag_216\n      jump\t// in\n    tag_376:\n        /* \"#utility.yul\":16797:16892   */\n      swap4\n      pop\n        /* \"#utility.yul\":16901:16966   */\n      tag_377\n        /* \"#utility.yul\":16959:16965   */\n      dup2\n        /* \"#utility.yul\":16954:16957   */\n      dup6\n        /* \"#utility.yul\":16947:16951   */\n      0x20\n        /* \"#utility.yul\":16940:16945   */\n      dup7\n        /* \"#utility.yul\":16936:16952   */\n      add\n        /* \"#utility.yul\":16901:16966   */\n      tag_195\n      jump\t// in\n    tag_377:\n        /* \"#utility.yul\":16991:16997   */\n      dup1\n        /* \"#utility.yul\":16986:16989   */\n      dup5\n        /* \"#utility.yul\":16982:16998   */\n      add\n        /* \"#utility.yul\":16975:16998   */\n      swap2\n      pop\n        /* \"#utility.yul\":16726:17004   */\n      pop\n        /* \"#utility.yul\":16618:17004   */\n      swap3\n      swap2\n      pop\n      pop\n      jump\t// out\n        /* \"#utility.yul\":17010:17281   */\n    tag_145:\n        /* \"#utility.yul\":17140:17143   */\n      0x00\n        /* \"#utility.yul\":17162:17255   */\n      tag_379\n        /* \"#utility.yul\":17251:17254   */\n      dup3\n        /* \"#utility.yul\":17242:17248   */\n      dup5\n        /* \"#utility.yul\":17162:17255   */\n      tag_217\n      jump\t// in\n    tag_379:\n        /* \"#utility.yul\":17155:17255   */\n      swap2\n      pop\n        /* \"#utility.yul\":17272:17275   */\n      dup2\n        /* \"#utility.yul\":17265:17275   */\n      swap1\n      pop\n        /* \"#utility.yul\":17010:17281   */\n      swap3\n      swap2\n      pop\n      pop\n      jump\t// out\n        /* \"#utility.yul\":17287:17466   */\n    tag_218:\n        /* \"#utility.yul\":17427:17458   */\n      0x416464726573733a2063616c6c20746f206e6f6e2d636f6e7472616374000000\n        /* \"#utility.yul\":17423:17424   */\n      0x00\n        /* \"#utility.yul\":17415:17421   */\n      dup3\n        /* \"#utility.yul\":17411:17425   */\n      add\n        /* \"#utility.yul\":17404:17459   */\n      mstore\n        /* \"#utility.yul\":17287:17466   */\n      pop\n      jump\t// out\n        /* \"#utility.yul\":17472:17838   */\n    tag_219:\n        /* \"#utility.yul\":17614:17617   */\n      0x00\n        /* \"#utility.yul\":17635:17702   */\n      tag_382\n        /* \"#utility.yul\":17699:17701   */\n      0x1d\n        /* \"#utility.yul\":17694:17697   */\n      dup4\n        /* \"#utility.yul\":17635:17702   */\n      tag_211\n      jump\t// in\n    tag_382:\n        /* \"#utility.yul\":17628:17702   */\n      swap2\n      pop\n        /* \"#utility.yul\":17711:17804   */\n      tag_383\n        /* \"#utility.yul\":17800:17803   */\n      dup3\n        /* \"#utility.yul\":17711:17804   */\n      tag_218\n      jump\t// in\n    tag_383:\n        /* \"#utility.yul\":17829:17831   */\n      0x20\n        /* \"#utility.yul\":17824:17827   */\n      dup3\n        /* \"#utility.yul\":17820:17832   */\n      add\n        /* \"#utility.yul\":17813:17832   */\n      swap1\n      pop\n        /* \"#utility.yul\":17472:17838   */\n      swap2\n      swap1\n      pop\n      jump\t// out\n        /* \"#utility.yul\":17844:18263   */\n    tag_158:\n        /* \"#utility.yul\":18010:18014   */\n      0x00\n        /* \"#utility.yul\":18048:18050   */\n      0x20\n        /* \"#utility.yul\":18037:18046   */\n      dup3\n        /* \"#utility.yul\":18033:18051   */\n      add\n        /* \"#utility.yul\":18025:18051   */\n      swap1\n      pop\n        /* \"#utility.yul\":18097:18106   */\n      dup2\n        /* \"#utility.yul\":18091:18095   */\n      dup2\n        /* \"#utility.yul\":18087:18107   */\n      sub\n        /* \"#utility.yul\":18083:18084   */\n      0x00\n        /* \"#utility.yul\":18072:18081   */\n      dup4\n        /* \"#utility.yul\":18068:18085   */\n      add\n        /* \"#utility.yul\":18061:18108   */\n      mstore\n        /* \"#utility.yul\":18125:18256   */\n      tag_385\n        /* \"#utility.yul\":18251:18255   */\n      dup2\n        /* \"#utility.yul\":18125:18256   */\n      tag_219\n      jump\t// in\n    tag_385:\n        /* \"#utility.yul\":18117:18256   */\n      swap1\n      pop\n        /* \"#utility.yul\":17844:18263   */\n      swap2\n      swap1\n      pop\n      jump\t// out\n        /* \"#utility.yul\":18269:18368   */\n    tag_220:\n        /* \"#utility.yul\":18321:18327   */\n      0x00\n        /* \"#utility.yul\":18355:18360   */\n      dup2\n        /* \"#utility.yul\":18349:18361   */\n      mload\n        /* \"#utility.yul\":18339:18361   */\n      swap1\n      pop\n        /* \"#utility.yul\":18269:18368   */\n      swap2\n      swap1\n      pop\n      jump\t// out\n        /* \"#utility.yul\":18374:18751   */\n    tag_221:\n        /* \"#utility.yul\":18462:18465   */\n      0x00\n        /* \"#utility.yul\":18490:18529   */\n      tag_388\n        /* \"#utility.yul\":18523:18528   */\n      dup3\n        /* \"#utility.yul\":18490:18529   */\n      tag_220\n      jump\t// in\n    tag_388:\n        /* \"#utility.yul\":18545:18616   */\n      tag_389\n        /* \"#utility.yul\":18609:18615   */\n      dup2\n        /* \"#utility.yul\":18604:18607   */\n      dup6\n        /* \"#utility.yul\":18545:18616   */\n      tag_211\n      jump\t// in\n    tag_389:\n        /* \"#utility.yul\":18538:18616   */\n      swap4\n      pop\n        /* \"#utility.yul\":18625:18690   */\n      tag_390\n        /* \"#utility.yul\":18683:18689   */\n      dup2\n        /* \"#utility.yul\":18678:18681   */\n      dup6\n        /* \"#utility.yul\":18671:18675   */\n      0x20\n        /* \"#utility.yul\":18664:18669   */\n      dup7\n        /* \"#utility.yul\":18660:18676   */\n      add\n        /* \"#utility.yul\":18625:18690   */\n      tag_195\n      jump\t// in\n    tag_390:\n        /* \"#utility.yul\":18715:18744   */\n      tag_391\n        /* \"#utility.yul\":18737:18743   */\n      dup2\n        /* \"#utility.yul\":18715:18744   */\n      tag_196\n      jump\t// in\n    tag_391:\n        /* \"#utility.yul\":18710:18713   */\n      dup5\n        /* \"#utility.yul\":18706:18745   */\n      add\n        /* \"#utility.yul\":18699:18745   */\n      swap2\n      pop\n        /* \"#utility.yul\":18466:18751   */\n      pop\n        /* \"#utility.yul\":18374:18751   */\n      swap3\n      swap2\n      pop\n      pop\n      jump\t// out\n        /* \"#utility.yul\":18757:19070   */\n    tag_167:\n        /* \"#utility.yul\":18870:18874   */\n      0x00\n        /* \"#utility.yul\":18908:18910   */\n      0x20\n        /* \"#utility.yul\":18897:18906   */\n      dup3\n        /* \"#utility.yul\":18893:18911   */\n      add\n        /* \"#utility.yul\":18885:18911   */\n      swap1\n      pop\n        /* \"#utility.yul\":18957:18966   */\n      dup2\n        /* \"#utility.yul\":18951:18955   */\n      dup2\n        /* \"#utility.yul\":18947:18967   */\n      sub\n        /* \"#utility.yul\":18943:18944   */\n      0x00\n        /* \"#utility.yul\":18932:18941   */\n      dup4\n        /* \"#utility.yul\":18928:18945   */\n      add\n        /* \"#utility.yul\":18921:18968   */\n      mstore\n        /* \"#utility.yul\":18985:19063   */\n      tag_393\n        /* \"#utility.yul\":19058:19062   */\n      dup2\n        /* \"#utility.yul\":19049:19055   */\n      dup5\n        /* \"#utility.yul\":18985:19063   */\n      tag_221\n      jump\t// in\n    tag_393:\n        /* \"#utility.yul\":18977:19063   */\n      swap1\n      pop\n        /* \"#utility.yul\":18757:19070   */\n      swap3\n      swap2\n      pop\n      pop\n      jump\t// out\n\n    auxdata: 0xa2646970667358221220ee068c3ac6317f8235eea5edb9650929988f566a7ea77b2b5403574e710fb6d164736f6c634300081e0033\n}\n",
				"bytecode": {
					"linkReferences": {},
					"object": "608060405234801561000f575f5ffd5b50335f73ffffffffffffffffffffffffffffffffffffffff168173ffffffffffffffffffffffffffffffffffffffff1603610081575f6040517f1e4fbdf70000000000000000000000000000000000000000000000000000000081526004016100789190610196565b60405180910390fd5b6100908161009660201b60201c565b506101af565b5f5f5f9054906101000a900473ffffffffffffffffffffffffffffffffffffffff169050815f5f6101000a81548173ffffffffffffffffffffffffffffffffffffffff021916908373ffffffffffffffffffffffffffffffffffffffff1602179055508173ffffffffffffffffffffffffffffffffffffffff168173ffffffffffffffffffffffffffffffffffffffff167f8be0079c531659141344cd1fd0a4f28419497f9722a3daafe3b4186f6b6457e060405160405180910390a35050565b5f73ffffffffffffffffffffffffffffffffffffffff82169050919050565b5f61018082610157565b9050919050565b61019081610176565b82525050565b5f6020820190506101a95f830184610187565b92915050565b61180e806101bc5f395ff3fe608060405234801561000f575f5ffd5b5060043610610055575f3560e01c8063715018a61461005957806389476069146100635780638da5cb5b1461007f578063bec3fa171461009d578063f2fde38b146100cd575b5f5ffd5b6100616100e9565b005b61007d60048036038101906100789190610fb1565b6100fc565b005b610087610260565b6040516100949190610feb565b60405180910390f35b6100b760048036038101906100b29190611037565b610287565b6040516100c4919061108d565b60405180910390f35b6100e760048036038101906100e29190610fb1565b6109c0565b005b6100f1610a44565b6100fa5f610acb565b565b610104610a44565b5f731c7d4b196cb0c7b01d743fbc6116a902379c723873ffffffffffffffffffffffffffffffffffffffff166370a08231306040518263ffffffff1660e01b81526004016101529190610feb565b602060405180830381865afa15801561016d573d5f5f3e3d5ffd5b505050506040513d601f19601f8201168201806040525081019061019191906110ba565b90505f81036101cc576040517f95a6ed4000000000000000000000000000000000000000000000000000000000815260040160405180910390fd5b731c7d4b196cb0c7b01d743fbc6116a902379c723873ffffffffffffffffffffffffffffffffffffffff1663a9059cbb83836040518363ffffffff1660e01b815260040161021b9291906110f4565b6020604051808303815f875af1158015610237573d5f5f3e3d5ffd5b505050506040513d601f19601f8201168201806040525081019061025b9190611150565b505050565b5f5f5f9054906101000a900473ffffffffffffffffffffffffffffffffffffffff16905090565b5f731c7d4b196cb0c7b01d743fbc6116a902379c723873ffffffffffffffffffffffffffffffffffffffff166370a08231336040518263ffffffff1660e01b81526004016102d59190610feb565b602060405180830381865afa1580156102f0573d5f5f3e3d5ffd5b505050506040513d601f19601f8201168201806040525081019061031491906110ba565b8211156103e757731c7d4b196cb0c7b01d743fbc6116a902379c72388073ffffffffffffffffffffffffffffffffffffffff166370a08231336040518263ffffffff1660e01b81526004016103699190610feb565b602060405180830381865afa158015610384573d5f5f3e3d5ffd5b505050506040513d601f19601f820116820180604052508101906103a891906110ba565b836040517fefd3e43c0000000000000000000000000000000000000000000000000000000081526004016103de939291906111d6565b60405180910390fd5b5f600167ffffffffffffffff8111156104035761040261120b565b5b60405190808252806020026020018201604052801561043c57816020015b610429610f25565b8152602001906001900390816104215790505b5090505f6040518060400160405280731c7d4b196cb0c7b01d743fbc6116a902379c723873ffffffffffffffffffffffffffffffffffffffff16815260200185815250905080825f8151811061049557610494611238565b5b60200260200101819052505f6040518060a00160405280876040516020016104bd9190610feb565b604051602081830303815290604052815260200160405180602001604052805f815250815260200184815260200173779877a7b0d9e8603169ddbd7836e478b462478973ffffffffffffffffffffffffffffffffffffffff16815260200161053260405180602001604052805f815250610b8c565b81525090505f730bf3de8c5d3e8a2b34d2beeb17abfcebaf363a5973ffffffffffffffffffffffffffffffffffffffff166320487ded678f90b8876dee6538846040518363ffffffff1660e01b815260040161058f929190611472565b602060405180830381865afa1580156105aa573d5f5f3e3d5ffd5b505050506040513d601f19601f820116820180604052508101906105ce91906110ba565b905073779877a7b0d9e8603169ddbd7836e478b462478973ffffffffffffffffffffffffffffffffffffffff166370a08231306040518263ffffffff1660e01b815260040161061d9190610feb565b602060405180830381865afa158015610638573d5f5f3e3d5ffd5b505050506040513d601f19601f8201168201806040525081019061065c91906110ba565b81111561072f5773779877a7b0d9e8603169ddbd7836e478b46247898073ffffffffffffffffffffffffffffffffffffffff166370a08231306040518263ffffffff1660e01b81526004016106b19190610feb565b602060405180830381865afa1580156106cc573d5f5f3e3d5ffd5b505050506040513d601f19601f820116820180604052508101906106f091906110ba565b826040517fefd3e43c000000000000000000000000000000000000000000000000000000008152600401610726939291906111d6565b60405180910390fd5b73779877a7b0d9e8603169ddbd7836e478b462478973ffffffffffffffffffffffffffffffffffffffff1663095ea7b3730bf3de8c5d3e8a2b34d2beeb17abfcebaf363a59836040518363ffffffff1660e01b81526004016107929291906110f4565b6020604051808303815f875af11580156107ae573d5f5f3e3d5ffd5b505050506040513d601f19601f820116820180604052508101906107d29190611150565b50610814333088731c7d4b196cb0c7b01d743fbc6116a902379c723873ffffffffffffffffffffffffffffffffffffffff16610c0b909392919063ffffffff16565b731c7d4b196cb0c7b01d743fbc6116a902379c723873ffffffffffffffffffffffffffffffffffffffff1663095ea7b3730bf3de8c5d3e8a2b34d2beeb17abfcebaf363a59886040518363ffffffff1660e01b81526004016108779291906110f4565b6020604051808303815f875af1158015610893573d5f5f3e3d5ffd5b505050506040513d601f19601f820116820180604052508101906108b79190611150565b50730bf3de8c5d3e8a2b34d2beeb17abfcebaf363a5973ffffffffffffffffffffffffffffffffffffffff166396f4e9f9678f90b8876dee6538846040518363ffffffff1660e01b815260040161090f929190611472565b6020604051808303815f875af115801561092b573d5f5f3e3d5ffd5b505050506040513d601f19601f8201168201806040525081019061094f91906114ca565b94508673ffffffffffffffffffffffffffffffffffffffff16678f90b8876dee653867ffffffffffffffff167feca040c7df5d1a8ea4277fa1a77f55e8ef67b6fcf617a6fc6b16067f5f7547b58789856040516109ae939291906114f5565b60405180910390a35050505092915050565b6109c8610a44565b5f73ffffffffffffffffffffffffffffffffffffffff168173ffffffffffffffffffffffffffffffffffffffff1603610a38575f6040517f1e4fbdf7000000000000000000000000000000000000000000000000000000008152600401610a2f9190610feb565b60405180910390fd5b610a4181610acb565b50565b610a4c610c94565b73ffffffffffffffffffffffffffffffffffffffff16610a6a610260565b73ffffffffffffffffffffffffffffffffffffffff1614610ac957610a8d610c94565b6040517f118cdaa7000000000000000000000000000000000000000000000000000000008152600401610ac09190610feb565b60405180910390fd5b565b5f5f5f9054906101000a900473ffffffffffffffffffffffffffffffffffffffff169050815f5f6101000a81548173ffffffffffffffffffffffffffffffffffffffff021916908373ffffffffffffffffffffffffffffffffffffffff1602179055508173ffffffffffffffffffffffffffffffffffffffff168173ffffffffffffffffffffffffffffffffffffffff167f8be0079c531659141344cd1fd0a4f28419497f9722a3daafe3b4186f6b6457e060405160405180910390a35050565b60606397a657c960e01b82604051602401610ba79190611544565b604051602081830303815290604052907bffffffffffffffffffffffffffffffffffffffffffffffffffffffff19166020820180517bffffffffffffffffffffffffffffffffffffffffffffffffffffffff83818316178352505050509050919050565b610c8e846323b872dd60e01b858585604051602401610c2c9392919061155d565b604051602081830303815290604052907bffffffffffffffffffffffffffffffffffffffffffffffffffffffff19166020820180517bffffffffffffffffffffffffffffffffffffffffffffffffffffffff8381831617835250505050610c9b565b50505050565b5f33905090565b5f610cfc826040518060400160405280602081526020017f5361666545524332303a206c6f772d6c6576656c2063616c6c206661696c65648152508573ffffffffffffffffffffffffffffffffffffffff16610d609092919063ffffffff16565b90505f81511115610d5b5780806020019051810190610d1b9190611150565b610d5a576040517f08c379a0000000000000000000000000000000000000000000000000000000008152600401610d5190611612565b60405180910390fd5b5b505050565b6060610d6e84845f85610d77565b90509392505050565b606082471015610dbc576040517f08c379a0000000000000000000000000000000000000000000000000000000008152600401610db3906116a0565b60405180910390fd5b5f5f8673ffffffffffffffffffffffffffffffffffffffff168587604051610de491906116f8565b5f6040518083038185875af1925050503d805f8114610e1e576040519150601f19603f3d011682016040523d82523d5f602084013e610e23565b606091505b5091509150610e3487838387610e40565b92505050949350505050565b60608315610ea1575f835103610e9957610e5985610eb4565b610e98576040517f08c379a0000000000000000000000000000000000000000000000000000000008152600401610e8f90611758565b60405180910390fd5b5b829050610eac565b610eab8383610ed6565b5b949350505050565b5f5f8273ffffffffffffffffffffffffffffffffffffffff163b119050919050565b5f82511115610ee85781518083602001fd5b806040517f08c379a0000000000000000000000000000000000000000000000000000000008152600401610f1c91906117b8565b60405180910390fd5b60405180604001604052805f73ffffffffffffffffffffffffffffffffffffffff1681526020015f81525090565b5f5ffd5b5f73ffffffffffffffffffffffffffffffffffffffff82169050919050565b5f610f8082610f57565b9050919050565b610f9081610f76565b8114610f9a575f5ffd5b50565b5f81359050610fab81610f87565b92915050565b5f60208284031215610fc657610fc5610f53565b5b5f610fd384828501610f9d565b91505092915050565b610fe581610f76565b82525050565b5f602082019050610ffe5f830184610fdc565b92915050565b5f819050919050565b61101681611004565b8114611020575f5ffd5b50565b5f813590506110318161100d565b92915050565b5f5f6040838503121561104d5761104c610f53565b5b5f61105a85828601610f9d565b925050602061106b85828601611023565b9150509250929050565b5f819050919050565b61108781611075565b82525050565b5f6020820190506110a05f83018461107e565b92915050565b5f815190506110b48161100d565b92915050565b5f602082840312156110cf576110ce610f53565b5b5f6110dc848285016110a6565b91505092915050565b6110ee81611004565b82525050565b5f6040820190506111075f830185610fdc565b61111460208301846110e5565b9392505050565b5f8115159050919050565b61112f8161111b565b8114611139575f5ffd5b50565b5f8151905061114a81611126565b92915050565b5f6020828403121561116557611164610f53565b5b5f6111728482850161113c565b91505092915050565b5f819050919050565b5f61119e61119961119484610f57565b61117b565b610f57565b9050919050565b5f6111af82611184565b9050919050565b5f6111c0826111a5565b9050919050565b6111d0816111b6565b82525050565b5f6060820190506111e95f8301866111c7565b6111f660208301856110e5565b61120360408301846110e5565b949350505050565b7f4e487b71000000000000000000000000000000000000000000000000000000005f52604160045260245ffd5b7f4e487b71000000000000000000000000000000000000000000000000000000005f52603260045260245ffd5b5f67ffffffffffffffff82169050919050565b61128181611265565b82525050565b5f81519050919050565b5f82825260208201905092915050565b8281835e5f83830152505050565b5f601f19601f8301169050919050565b5f6112c982611287565b6112d38185611291565b93506112e38185602086016112a1565b6112ec816112af565b840191505092915050565b5f81519050919050565b5f82825260208201905092915050565b5f819050602082019050919050565b61132981610f76565b82525050565b61133881611004565b82525050565b604082015f8201516113525f850182611320565b506020820151611365602085018261132f565b50505050565b5f611376838361133e565b60408301905092915050565b5f602082019050919050565b5f611398826112f7565b6113a28185611301565b93506113ad83611311565b805f5b838110156113dd5781516113c4888261136b565b97506113cf83611382565b9250506001810190506113b0565b5085935050505092915050565b5f60a083015f8301518482035f86015261140482826112bf565b9150506020830151848203602086015261141e82826112bf565b91505060408301518482036040860152611438828261138e565b915050606083015161144d6060860182611320565b506080830151848203608086015261146582826112bf565b9150508091505092915050565b5f6040820190506114855f830185611278565b818103602083015261149781846113ea565b90509392505050565b6114a981611075565b81146114b3575f5ffd5b50565b5f815190506114c4816114a0565b92915050565b5f602082840312156114df576114de610f53565b5b5f6114ec848285016114b6565b91505092915050565b5f6060820190506115085f83018661107e565b61151560208301856110e5565b61152260408301846110e5565b949350505050565b602082015f82015161153e5f85018261132f565b50505050565b5f6020820190506115575f83018461152a565b92915050565b5f6060820190506115705f830186610fdc565b61157d6020830185610fdc565b61158a60408301846110e5565b949350505050565b5f82825260208201905092915050565b7f5361666545524332303a204552433230206f7065726174696f6e20646964206e5f8201527f6f74207375636365656400000000000000000000000000000000000000000000602082015250565b5f6115fc602a83611592565b9150611607826115a2565b604082019050919050565b5f6020820190508181035f830152611629816115f0565b9050919050565b7f416464726573733a20696e73756666696369656e742062616c616e636520666f5f8201527f722063616c6c0000000000000000000000000000000000000000000000000000602082015250565b5f61168a602683611592565b915061169582611630565b604082019050919050565b5f6020820190508181035f8301526116b78161167e565b9050919050565b5f81905092915050565b5f6116d282611287565b6116dc81856116be565b93506116ec8185602086016112a1565b80840191505092915050565b5f61170382846116c8565b915081905092915050565b7f416464726573733a2063616c6c20746f206e6f6e2d636f6e74726163740000005f82015250565b5f611742601d83611592565b915061174d8261170e565b602082019050919050565b5f6020820190508181035f83015261176f81611736565b9050919050565b5f81519050919050565b5f61178a82611776565b6117948185611592565b93506117a48185602086016112a1565b6117ad816112af565b840191505092915050565b5f6020820190508181035f8301526117d08184611780565b90509291505056fea2646970667358221220ee068c3ac6317f8235eea5edb9650929988f566a7ea77b2b5403574e710fb6d164736f6c634300081e0033",
					"opcodes": "PUSH1 0x80 PUSH1 0x40 MSTORE CALLVALUE DUP1 ISZERO PUSH2 0xF JUMPI PUSH0 PUSH0 REVERT JUMPDEST POP CALLER PUSH0 PUSH20 0xFFFFFFFFFFFFFFFFFFFFFFFFFFFFFFFFFFFFFFFF AND DUP2 PUSH20 0xFFFFFFFFFFFFFFFFFFFFFFFFFFFFFFFFFFFFFFFF AND SUB PUSH2 0x81 JUMPI PUSH0 PUSH1 0x40 MLOAD PUSH32 0x1E4FBDF700000000000000000000000000000000000000000000000000000000 DUP2 MSTORE PUSH1 0x4 ADD PUSH2 0x78 SWAP2 SWAP1 PUSH2 0x196 JUMP JUMPDEST PUSH1 0x40 MLOAD DUP1 SWAP2 SUB SWAP1 REVERT JUMPDEST PUSH2 0x90 DUP2 PUSH2 0x96 PUSH1 0x20 SHL PUSH1 0x20 SHR JUMP JUMPDEST POP PUSH2 0x1AF JUMP JUMPDEST PUSH0 PUSH0 PUSH0 SWAP1 SLOAD SWAP1 PUSH2 0x100 EXP SWAP1 DIV PUSH20 0xFFFFFFFFFFFFFFFFFFFFFFFFFFFFFFFFFFFFFFFF AND SWAP1 POP DUP2 PUSH0 PUSH0 PUSH2 0x100 EXP DUP2 SLOAD DUP2 PUSH20 0xFFFFFFFFFFFFFFFFFFFFFFFFFFFFFFFFFFFFFFFF MUL NOT AND SWAP1 DUP4 PUSH20 0xFFFFFFFFFFFFFFFFFFFFFFFFFFFFFFFFFFFFFFFF AND MUL OR SWAP1 SSTORE POP DUP2 PUSH20 0xFFFFFFFFFFFFFFFFFFFFFFFFFFFFFFFFFFFFFFFF AND DUP2 PUSH20 0xFFFFFFFFFFFFFFFFFFFFFFFFFFFFFFFFFFFFFFFF AND PUSH32 0x8BE0079C531659141344CD1FD0A4F28419497F9722A3DAAFE3B4186F6B6457E0 PUSH1 0x40 MLOAD PUSH1 0x40 MLOAD DUP1 SWAP2 SUB SWAP1 LOG3 POP POP JUMP JUMPDEST PUSH0 PUSH20 0xFFFFFFFFFFFFFFFFFFFFFFFFFFFFFFFFFFFFFFFF DUP3 AND SWAP1 POP SWAP2 SWAP1 POP JUMP JUMPDEST PUSH0 PUSH2 0x180 DUP3 PUSH2 0x157 JUMP JUMPDEST SWAP1 POP SWAP2 SWAP1 POP JUMP JUMPDEST PUSH2 0x190 DUP2 PUSH2 0x176 JUMP JUMPDEST DUP3 MSTORE POP POP JUMP JUMPDEST PUSH0 PUSH1 0x20 DUP3 ADD SWAP1 POP PUSH2 0x1A9 PUSH0 DUP4 ADD DUP5 PUSH2 0x187 JUMP JUMPDEST SWAP3 SWAP2 POP POP JUMP JUMPDEST PUSH2 0x180E DUP1 PUSH2 0x1BC PUSH0 CODECOPY PUSH0 RETURN INVALID PUSH1 0x80 PUSH1 0x40 MSTORE CALLVALUE DUP1 ISZERO PUSH2 0xF JUMPI PUSH0 PUSH0 REVERT JUMPDEST POP PUSH1 0x4 CALLDATASIZE LT PUSH2 0x55 JUMPI PUSH0 CALLDATALOAD PUSH1 0xE0 SHR DUP1 PUSH4 0x715018A6 EQ PUSH2 0x59 JUMPI DUP1 PUSH4 0x89476069 EQ PUSH2 0x63 JUMPI DUP1 PUSH4 0x8DA5CB5B EQ PUSH2 0x7F JUMPI DUP1 PUSH4 0xBEC3FA17 EQ PUSH2 0x9D JUMPI DUP1 PUSH4 0xF2FDE38B EQ PUSH2 0xCD JUMPI JUMPDEST PUSH0 PUSH0 REVERT JUMPDEST PUSH2 0x61 PUSH2 0xE9 JUMP JUMPDEST STOP JUMPDEST PUSH2 0x7D PUSH1 0x4 DUP1 CALLDATASIZE SUB DUP2 ADD SWAP1 PUSH2 0x78 SWAP2 SWAP1 PUSH2 0xFB1 JUMP JUMPDEST PUSH2 0xFC JUMP JUMPDEST STOP JUMPDEST PUSH2 0x87 PUSH2 0x260 JUMP JUMPDEST PUSH1 0x40 MLOAD PUSH2 0x94 SWAP2 SWAP1 PUSH2 0xFEB JUMP JUMPDEST PUSH1 0x40 MLOAD DUP1 SWAP2 SUB SWAP1 RETURN JUMPDEST PUSH2 0xB7 PUSH1 0x4 DUP1 CALLDATASIZE SUB DUP2 ADD SWAP1 PUSH2 0xB2 SWAP2 SWAP1 PUSH2 0x1037 JUMP JUMPDEST PUSH2 0x287 JUMP JUMPDEST PUSH1 0x40 MLOAD PUSH2 0xC4 SWAP2 SWAP1 PUSH2 0x108D JUMP JUMPDEST PUSH1 0x40 MLOAD DUP1 SWAP2 SUB SWAP1 RETURN JUMPDEST PUSH2 0xE7 PUSH1 0x4 DUP1 CALLDATASIZE SUB DUP2 ADD SWAP1 PUSH2 0xE2 SWAP2 SWAP1 PUSH2 0xFB1 JUMP JUMPDEST PUSH2 0x9C0 JUMP JUMPDEST STOP JUMPDEST PUSH2 0xF1 PUSH2 0xA44 JUMP JUMPDEST PUSH2 0xFA PUSH0 PUSH2 0xACB JUMP JUMPDEST JUMP JUMPDEST PUSH2 0x104 PUSH2 0xA44 JUMP JUMPDEST PUSH0 PUSH20 0x1C7D4B196CB0C7B01D743FBC6116A902379C7238 PUSH20 0xFFFFFFFFFFFFFFFFFFFFFFFFFFFFFFFFFFFFFFFF AND PUSH4 0x70A08231 ADDRESS PUSH1 0x40 MLOAD DUP3 PUSH4 0xFFFFFFFF AND PUSH1 0xE0 SHL DUP2 MSTORE PUSH1 0x4 ADD PUSH2 0x152 SWAP2 SWAP1 PUSH2 0xFEB JUMP JUMPDEST PUSH1 0x20 PUSH1 0x40 MLOAD DUP1 DUP4 SUB DUP2 DUP7 GAS STATICCALL ISZERO DUP1 ISZERO PUSH2 0x16D JUMPI RETURNDATASIZE PUSH0 PUSH0 RETURNDATACOPY RETURNDATASIZE PUSH0 REVERT JUMPDEST POP POP POP POP PUSH1 0x40 MLOAD RETURNDATASIZE PUSH1 0x1F NOT PUSH1 0x1F DUP3 ADD AND DUP3 ADD DUP1 PUSH1 0x40 MSTORE POP DUP2 ADD SWAP1 PUSH2 0x191 SWAP2 SWAP1 PUSH2 0x10BA JUMP JUMPDEST SWAP1 POP PUSH0 DUP2 SUB PUSH2 0x1CC JUMPI PUSH1 0x40 MLOAD PUSH32 0x95A6ED4000000000000000000000000000000000000000000000000000000000 DUP2 MSTORE PUSH1 0x4 ADD PUSH1 0x40 MLOAD DUP1 SWAP2 SUB SWAP1 REVERT JUMPDEST PUSH20 0x1C7D4B196CB0C7B01D743FBC6116A902379C7238 PUSH20 0xFFFFFFFFFFFFFFFFFFFFFFFFFFFFFFFFFFFFFFFF AND PUSH4 0xA9059CBB DUP4 DUP4 PUSH1 0x40 MLOAD DUP4 PUSH4 0xFFFFFFFF AND PUSH1 0xE0 SHL DUP2 MSTORE PUSH1 0x4 ADD PUSH2 0x21B SWAP3 SWAP2 SWAP1 PUSH2 0x10F4 JUMP JUMPDEST PUSH1 0x20 PUSH1 0x40 MLOAD DUP1 DUP4 SUB DUP2 PUSH0 DUP8 GAS CALL ISZERO DUP1 ISZERO PUSH2 0x237 JUMPI RETURNDATASIZE PUSH0 PUSH0 RETURNDATACOPY RETURNDATASIZE PUSH0 REVERT JUMPDEST POP POP POP POP PUSH1 0x40 MLOAD RETURNDATASIZE PUSH1 0x1F NOT PUSH1 0x1F DUP3 ADD AND DUP3 ADD DUP1 PUSH1 0x40 MSTORE POP DUP2 ADD SWAP1 PUSH2 0x25B SWAP2 SWAP1 PUSH2 0x1150 JUMP JUMPDEST POP POP POP JUMP JUMPDEST PUSH0 PUSH0 PUSH0 SWAP1 SLOAD SWAP1 PUSH2 0x100 EXP SWAP1 DIV PUSH20 0xFFFFFFFFFFFFFFFFFFFFFFFFFFFFFFFFFFFFFFFF AND SWAP1 POP SWAP1 JUMP JUMPDEST PUSH0 PUSH20 0x1C7D4B196CB0C7B01D743FBC6116A902379C7238 PUSH20 0xFFFFFFFFFFFFFFFFFFFFFFFFFFFFFFFFFFFFFFFF AND PUSH4 0x70A08231 CALLER PUSH1 0x40 MLOAD DUP3 PUSH4 0xFFFFFFFF AND PUSH1 0xE0 SHL DUP2 MSTORE PUSH1 0x4 ADD PUSH2 0x2D5 SWAP2 SWAP1 PUSH2 0xFEB JUMP JUMPDEST PUSH1 0x20 PUSH1 0x40 MLOAD DUP1 DUP4 SUB DUP2 DUP7 GAS STATICCALL ISZERO DUP1 ISZERO PUSH2 0x2F0 JUMPI RETURNDATASIZE PUSH0 PUSH0 RETURNDATACOPY RETURNDATASIZE PUSH0 REVERT JUMPDEST POP POP POP POP PUSH1 0x40 MLOAD RETURNDATASIZE PUSH1 0x1F NOT PUSH1 0x1F DUP3 ADD AND DUP3 ADD DUP1 PUSH1 0x40 MSTORE POP DUP2 ADD SWAP1 PUSH2 0x314 SWAP2 SWAP1 PUSH2 0x10BA JUMP JUMPDEST DUP3 GT ISZERO PUSH2 0x3E7 JUMPI PUSH20 0x1C7D4B196CB0C7B01D743FBC6116A902379C7238 DUP1 PUSH20 0xFFFFFFFFFFFFFFFFFFFFFFFFFFFFFFFFFFFFFFFF AND PUSH4 0x70A08231 CALLER PUSH1 0x40 MLOAD DUP3 PUSH4 0xFFFFFFFF AND PUSH1 0xE0 SHL DUP2 MSTORE PUSH1 0x4 ADD PUSH2 0x369 SWAP2 SWAP1 PUSH2 0xFEB JUMP JUMPDEST PUSH1 0x20 PUSH1 0x40 MLOAD DUP1 DUP4 SUB DUP2 DUP7 GAS STATICCALL ISZERO DUP1 ISZERO PUSH2 0x384 JUMPI RETURNDATASIZE PUSH0 PUSH0 RETURNDATACOPY RETURNDATASIZE PUSH0 REVERT JUMPDEST POP POP POP POP PUSH1 0x40 MLOAD RETURNDATASIZE PUSH1 0x1F NOT PUSH1 0x1F DUP3 ADD AND DUP3 ADD DUP1 PUSH1 0x40 MSTORE POP DUP2 ADD SWAP1 PUSH2 0x3A8 SWAP2 SWAP1 PUSH2 0x10BA JUMP JUMPDEST DUP4 PUSH1 0x40 MLOAD PUSH32 0xEFD3E43C00000000000000000000000000000000000000000000000000000000 DUP2 MSTORE PUSH1 0x4 ADD PUSH2 0x3DE SWAP4 SWAP3 SWAP2 SWAP1 PUSH2 0x11D6 JUMP JUMPDEST PUSH1 0x40 MLOAD DUP1 SWAP2 SUB SWAP1 REVERT JUMPDEST PUSH0 PUSH1 0x1 PUSH8 0xFFFFFFFFFFFFFFFF DUP2 GT ISZERO PUSH2 0x403 JUMPI PUSH2 0x402 PUSH2 0x120B JUMP JUMPDEST JUMPDEST PUSH1 0x40 MLOAD SWAP1 DUP1 DUP3 MSTORE DUP1 PUSH1 0x20 MUL PUSH1 0x20 ADD DUP3 ADD PUSH1 0x40 MSTORE DUP1 ISZERO PUSH2 0x43C JUMPI DUP2 PUSH1 0x20 ADD JUMPDEST PUSH2 0x429 PUSH2 0xF25 JUMP JUMPDEST DUP2 MSTORE PUSH1 0x20 ADD SWAP1 PUSH1 0x1 SWAP1 SUB SWAP1 DUP2 PUSH2 0x421 JUMPI SWAP1 POP JUMPDEST POP SWAP1 POP PUSH0 PUSH1 0x40 MLOAD DUP1 PUSH1 0x40 ADD PUSH1 0x40 MSTORE DUP1 PUSH20 0x1C7D4B196CB0C7B01D743FBC6116A902379C7238 PUSH20 0xFFFFFFFFFFFFFFFFFFFFFFFFFFFFFFFFFFFFFFFF AND DUP2 MSTORE PUSH1 0x20 ADD DUP6 DUP2 MSTORE POP SWAP1 POP DUP1 DUP3 PUSH0 DUP2 MLOAD DUP2 LT PUSH2 0x495 JUMPI PUSH2 0x494 PUSH2 0x1238 JUMP JUMPDEST JUMPDEST PUSH1 0x20 MUL PUSH1 0x20 ADD ADD DUP2 SWAP1 MSTORE POP PUSH0 PUSH1 0x40 MLOAD DUP1 PUSH1 0xA0 ADD PUSH1 0x40 MSTORE DUP1 DUP8 PUSH1 0x40 MLOAD PUSH1 0x20 ADD PUSH2 0x4BD SWAP2 SWAP1 PUSH2 0xFEB JUMP JUMPDEST PUSH1 0x40 MLOAD PUSH1 0x20 DUP2 DUP4 SUB SUB DUP2 MSTORE SWAP1 PUSH1 0x40 MSTORE DUP2 MSTORE PUSH1 0x20 ADD PUSH1 0x40 MLOAD DUP1 PUSH1 0x20 ADD PUSH1 0x40 MSTORE DUP1 PUSH0 DUP2 MSTORE POP DUP2 MSTORE PUSH1 0x20 ADD DUP5 DUP2 MSTORE PUSH1 0x20 ADD PUSH20 0x779877A7B0D9E8603169DDBD7836E478B4624789 PUSH20 0xFFFFFFFFFFFFFFFFFFFFFFFFFFFFFFFFFFFFFFFF AND DUP2 MSTORE PUSH1 0x20 ADD PUSH2 0x532 PUSH1 0x40 MLOAD DUP1 PUSH1 0x20 ADD PUSH1 0x40 MSTORE DUP1 PUSH0 DUP2 MSTORE POP PUSH2 0xB8C JUMP JUMPDEST DUP2 MSTORE POP SWAP1 POP PUSH0 PUSH20 0xBF3DE8C5D3E8A2B34D2BEEB17ABFCEBAF363A59 PUSH20 0xFFFFFFFFFFFFFFFFFFFFFFFFFFFFFFFFFFFFFFFF AND PUSH4 0x20487DED PUSH8 0x8F90B8876DEE6538 DUP5 PUSH1 0x40 MLOAD DUP4 PUSH4 0xFFFFFFFF AND PUSH1 0xE0 SHL DUP2 MSTORE PUSH1 0x4 ADD PUSH2 0x58F SWAP3 SWAP2 SWAP1 PUSH2 0x1472 JUMP JUMPDEST PUSH1 0x20 PUSH1 0x40 MLOAD DUP1 DUP4 SUB DUP2 DUP7 GAS STATICCALL ISZERO DUP1 ISZERO PUSH2 0x5AA JUMPI RETURNDATASIZE PUSH0 PUSH0 RETURNDATACOPY RETURNDATASIZE PUSH0 REVERT JUMPDEST POP POP POP POP PUSH1 0x40 MLOAD RETURNDATASIZE PUSH1 0x1F NOT PUSH1 0x1F DUP3 ADD AND DUP3 ADD DUP1 PUSH1 0x40 MSTORE POP DUP2 ADD SWAP1 PUSH2 0x5CE SWAP2 SWAP1 PUSH2 0x10BA JUMP JUMPDEST SWAP1 POP PUSH20 0x779877A7B0D9E8603169DDBD7836E478B4624789 PUSH20 0xFFFFFFFFFFFFFFFFFFFFFFFFFFFFFFFFFFFFFFFF AND PUSH4 0x70A08231 ADDRESS PUSH1 0x40 MLOAD DUP3 PUSH4 0xFFFFFFFF AND PUSH1 0xE0 SHL DUP2 MSTORE PUSH1 0x4 ADD PUSH2 0x61D SWAP2 SWAP1 PUSH2 0xFEB JUMP JUMPDEST PUSH1 0x20 PUSH1 0x40 MLOAD DUP1 DUP4 SUB DUP2 DUP7 GAS STATICCALL ISZERO DUP1 ISZERO PUSH2 0x638 JUMPI RETURNDATASIZE PUSH0 PUSH0 RETURNDATACOPY RETURNDATASIZE PUSH0 REVERT JUMPDEST POP POP POP POP PUSH1 0x40 MLOAD RETURNDATASIZE PUSH1 0x1F NOT PUSH1 0x1F DUP3 ADD AND DUP3 ADD DUP1 PUSH1 0x40 MSTORE POP DUP2 ADD SWAP1 PUSH2 0x65C SWAP2 SWAP1 PUSH2 0x10BA JUMP JUMPDEST DUP2 GT ISZERO PUSH2 0x72F JUMPI PUSH20 0x779877A7B0D9E8603169DDBD7836E478B4624789 DUP1 PUSH20 0xFFFFFFFFFFFFFFFFFFFFFFFFFFFFFFFFFFFFFFFF AND PUSH4 0x70A08231 ADDRESS PUSH1 0x40 MLOAD DUP3 PUSH4 0xFFFFFFFF AND PUSH1 0xE0 SHL DUP2 MSTORE PUSH1 0x4 ADD PUSH2 0x6B1 SWAP2 SWAP1 PUSH2 0xFEB JUMP JUMPDEST PUSH1 0x20 PUSH1 0x40 MLOAD DUP1 DUP4 SUB DUP2 DUP7 GAS STATICCALL ISZERO DUP1 ISZERO PUSH2 0x6CC JUMPI RETURNDATASIZE PUSH0 PUSH0 RETURNDATACOPY RETURNDATASIZE PUSH0 REVERT JUMPDEST POP POP POP POP PUSH1 0x40 MLOAD RETURNDATASIZE PUSH1 0x1F NOT PUSH1 0x1F DUP3 ADD AND DUP3 ADD DUP1 PUSH1 0x40 MSTORE POP DUP2 ADD SWAP1 PUSH2 0x6F0 SWAP2 SWAP1 PUSH2 0x10BA JUMP JUMPDEST DUP3 PUSH1 0x40 MLOAD PUSH32 0xEFD3E43C00000000000000000000000000000000000000000000000000000000 DUP2 MSTORE PUSH1 0x4 ADD PUSH2 0x726 SWAP4 SWAP3 SWAP2 SWAP1 PUSH2 0x11D6 JUMP JUMPDEST PUSH1 0x40 MLOAD DUP1 SWAP2 SUB SWAP1 REVERT JUMPDEST PUSH20 0x779877A7B0D9E8603169DDBD7836E478B4624789 PUSH20 0xFFFFFFFFFFFFFFFFFFFFFFFFFFFFFFFFFFFFFFFF AND PUSH4 0x95EA7B3 PUSH20 0xBF3DE8C5D3E8A2B34D2BEEB17ABFCEBAF363A59 DUP4 PUSH1 0x40 MLOAD DUP4 PUSH4 0xFFFFFFFF AND PUSH1 0xE0 SHL DUP2 MSTORE PUSH1 0x4 ADD PUSH2 0x792 SWAP3 SWAP2 SWAP1 PUSH2 0x10F4 JUMP JUMPDEST PUSH1 0x20 PUSH1 0x40 MLOAD DUP1 DUP4 SUB DUP2 PUSH0 DUP8 GAS CALL ISZERO DUP1 ISZERO PUSH2 0x7AE JUMPI RETURNDATASIZE PUSH0 PUSH0 RETURNDATACOPY RETURNDATASIZE PUSH0 REVERT JUMPDEST POP POP POP POP PUSH1 0x40 MLOAD RETURNDATASIZE PUSH1 0x1F NOT PUSH1 0x1F DUP3 ADD AND DUP3 ADD DUP1 PUSH1 0x40 MSTORE POP DUP2 ADD SWAP1 PUSH2 0x7D2 SWAP2 SWAP1 PUSH2 0x1150 JUMP JUMPDEST POP PUSH2 0x814 CALLER ADDRESS DUP9 PUSH20 0x1C7D4B196CB0C7B01D743FBC6116A902379C7238 PUSH20 0xFFFFFFFFFFFFFFFFFFFFFFFFFFFFFFFFFFFFFFFF AND PUSH2 0xC0B SWAP1 SWAP4 SWAP3 SWAP2 SWAP1 PUSH4 0xFFFFFFFF AND JUMP JUMPDEST PUSH20 0x1C7D4B196CB0C7B01D743FBC6116A902379C7238 PUSH20 0xFFFFFFFFFFFFFFFFFFFFFFFFFFFFFFFFFFFFFFFF AND PUSH4 0x95EA7B3 PUSH20 0xBF3DE8C5D3E8A2B34D2BEEB17ABFCEBAF363A59 DUP9 PUSH1 0x40 MLOAD DUP4 PUSH4 0xFFFFFFFF AND PUSH1 0xE0 SHL DUP2 MSTORE PUSH1 0x4 ADD PUSH2 0x877 SWAP3 SWAP2 SWAP1 PUSH2 0x10F4 JUMP JUMPDEST PUSH1 0x20 PUSH1 0x40 MLOAD DUP1 DUP4 SUB DUP2 PUSH0 DUP8 GAS CALL ISZERO DUP1 ISZERO PUSH2 0x893 JUMPI RETURNDATASIZE PUSH0 PUSH0 RETURNDATACOPY RETURNDATASIZE PUSH0 REVERT JUMPDEST POP POP POP POP PUSH1 0x40 MLOAD RETURNDATASIZE PUSH1 0x1F NOT PUSH1 0x1F DUP3 ADD AND DUP3 ADD DUP1 PUSH1 0x40 MSTORE POP DUP2 ADD SWAP1 PUSH2 0x8B7 SWAP2 SWAP1 PUSH2 0x1150 JUMP JUMPDEST POP PUSH20 0xBF3DE8C5D3E8A2B34D2BEEB17ABFCEBAF363A59 PUSH20 0xFFFFFFFFFFFFFFFFFFFFFFFFFFFFFFFFFFFFFFFF AND PUSH4 0x96F4E9F9 PUSH8 0x8F90B8876DEE6538 DUP5 PUSH1 0x40 MLOAD DUP4 PUSH4 0xFFFFFFFF AND PUSH1 0xE0 SHL DUP2 MSTORE PUSH1 0x4 ADD PUSH2 0x90F SWAP3 SWAP2 SWAP1 PUSH2 0x1472 JUMP JUMPDEST PUSH1 0x20 PUSH1 0x40 MLOAD DUP1 DUP4 SUB DUP2 PUSH0 DUP8 GAS CALL ISZERO DUP1 ISZERO PUSH2 0x92B JUMPI RETURNDATASIZE PUSH0 PUSH0 RETURNDATACOPY RETURNDATASIZE PUSH0 REVERT JUMPDEST POP POP POP POP PUSH1 0x40 MLOAD RETURNDATASIZE PUSH1 0x1F NOT PUSH1 0x1F DUP3 ADD AND DUP3 ADD DUP1 PUSH1 0x40 MSTORE POP DUP2 ADD SWAP1 PUSH2 0x94F SWAP2 SWAP1 PUSH2 0x14CA JUMP JUMPDEST SWAP5 POP DUP7 PUSH20 0xFFFFFFFFFFFFFFFFFFFFFFFFFFFFFFFFFFFFFFFF AND PUSH8 0x8F90B8876DEE6538 PUSH8 0xFFFFFFFFFFFFFFFF AND PUSH32 0xECA040C7DF5D1A8EA4277FA1A77F55E8EF67B6FCF617A6FC6B16067F5F7547B5 DUP8 DUP10 DUP6 PUSH1 0x40 MLOAD PUSH2 0x9AE SWAP4 SWAP3 SWAP2 SWAP1 PUSH2 0x14F5 JUMP JUMPDEST PUSH1 0x40 MLOAD DUP1 SWAP2 SUB SWAP1 LOG3 POP POP POP POP SWAP3 SWAP2 POP POP JUMP JUMPDEST PUSH2 0x9C8 PUSH2 0xA44 JUMP JUMPDEST PUSH0 PUSH20 0xFFFFFFFFFFFFFFFFFFFFFFFFFFFFFFFFFFFFFFFF AND DUP2 PUSH20 0xFFFFFFFFFFFFFFFFFFFFFFFFFFFFFFFFFFFFFFFF AND SUB PUSH2 0xA38 JUMPI PUSH0 PUSH1 0x40 MLOAD PUSH32 0x1E4FBDF700000000000000000000000000000000000000000000000000000000 DUP2 MSTORE PUSH1 0x4 ADD PUSH2 0xA2F SWAP2 SWAP1 PUSH2 0xFEB JUMP JUMPDEST PUSH1 0x40 MLOAD DUP1 SWAP2 SUB SWAP1 REVERT JUMPDEST PUSH2 0xA41 DUP2 PUSH2 0xACB JUMP JUMPDEST POP JUMP JUMPDEST PUSH2 0xA4C PUSH2 0xC94 JUMP JUMPDEST PUSH20 0xFFFFFFFFFFFFFFFFFFFFFFFFFFFFFFFFFFFFFFFF AND PUSH2 0xA6A PUSH2 0x260 JUMP JUMPDEST PUSH20 0xFFFFFFFFFFFFFFFFFFFFFFFFFFFFFFFFFFFFFFFF AND EQ PUSH2 0xAC9 JUMPI PUSH2 0xA8D PUSH2 0xC94 JUMP JUMPDEST PUSH1 0x40 MLOAD PUSH32 0x118CDAA700000000000000000000000000000000000000000000000000000000 DUP2 MSTORE PUSH1 0x4 ADD PUSH2 0xAC0 SWAP2 SWAP1 PUSH2 0xFEB JUMP JUMPDEST PUSH1 0x40 MLOAD DUP1 SWAP2 SUB SWAP1 REVERT JUMPDEST JUMP JUMPDEST PUSH0 PUSH0 PUSH0 SWAP1 SLOAD SWAP1 PUSH2 0x100 EXP SWAP1 DIV PUSH20 0xFFFFFFFFFFFFFFFFFFFFFFFFFFFFFFFFFFFFFFFF AND SWAP1 POP DUP2 PUSH0 PUSH0 PUSH2 0x100 EXP DUP2 SLOAD DUP2 PUSH20 0xFFFFFFFFFFFFFFFFFFFFFFFFFFFFFFFFFFFFFFFF MUL NOT AND SWAP1 DUP4 PUSH20 0xFFFFFFFFFFFFFFFFFFFFFFFFFFFFFFFFFFFFFFFF AND MUL OR SWAP1 SSTORE POP DUP2 PUSH20 0xFFFFFFFFFFFFFFFFFFFFFFFFFFFFFFFFFFFFFFFF AND DUP2 PUSH20 0xFFFFFFFFFFFFFFFFFFFFFFFFFFFFFFFFFFFFFFFF AND PUSH32 0x8BE0079C531659141344CD1FD0A4F28419497F9722A3DAAFE3B4186F6B6457E0 PUSH1 0x40 MLOAD PUSH1 0x40 MLOAD DUP1 SWAP2 SUB SWAP1 LOG3 POP POP JUMP JUMPDEST PUSH1 0x60 PUSH4 0x97A657C9 PUSH1 0xE0 SHL DUP3 PUSH1 0x40 MLOAD PUSH1 0x24 ADD PUSH2 0xBA7 SWAP2 SWAP1 PUSH2 0x1544 JUMP JUMPDEST PUSH1 0x40 MLOAD PUSH1 0x20 DUP2 DUP4 SUB SUB DUP2 MSTORE SWAP1 PUSH1 0x40 MSTORE SWAP1 PUSH28 0xFFFFFFFFFFFFFFFFFFFFFFFFFFFFFFFFFFFFFFFFFFFFFFFFFFFFFFFF NOT AND PUSH1 0x20 DUP3 ADD DUP1 MLOAD PUSH28 0xFFFFFFFFFFFFFFFFFFFFFFFFFFFFFFFFFFFFFFFFFFFFFFFFFFFFFFFF DUP4 DUP2 DUP4 AND OR DUP4 MSTORE POP POP POP POP SWAP1 POP SWAP2 SWAP1 POP JUMP JUMPDEST PUSH2 0xC8E DUP5 PUSH4 0x23B872DD PUSH1 0xE0 SHL DUP6 DUP6 DUP6 PUSH1 0x40 MLOAD PUSH1 0x24 ADD PUSH2 0xC2C SWAP4 SWAP3 SWAP2 SWAP1 PUSH2 0x155D JUMP JUMPDEST PUSH1 0x40 MLOAD PUSH1 0x20 DUP2 DUP4 SUB SUB DUP2 MSTORE SWAP1 PUSH1 0x40 MSTORE SWAP1 PUSH28 0xFFFFFFFFFFFFFFFFFFFFFFFFFFFFFFFFFFFFFFFFFFFFFFFFFFFFFFFF NOT AND PUSH1 0x20 DUP3 ADD DUP1 MLOAD PUSH28 0xFFFFFFFFFFFFFFFFFFFFFFFFFFFFFFFFFFFFFFFFFFFFFFFFFFFFFFFF DUP4 DUP2 DUP4 AND OR DUP4 MSTORE POP POP POP POP PUSH2 0xC9B JUMP JUMPDEST POP POP POP POP JUMP JUMPDEST PUSH0 CALLER SWAP1 POP SWAP1 JUMP JUMPDEST PUSH0 PUSH2 0xCFC DUP3 PUSH1 0x40 MLOAD DUP1 PUSH1 0x40 ADD PUSH1 0x40 MSTORE DUP1 PUSH1 0x20 DUP2 MSTORE PUSH1 0x20 ADD PUSH32 0x5361666545524332303A206C6F772D6C6576656C2063616C6C206661696C6564 DUP2 MSTORE POP DUP6 PUSH20 0xFFFFFFFFFFFFFFFFFFFFFFFFFFFFFFFFFFFFFFFF AND PUSH2 0xD60 SWAP1 SWAP3 SWAP2 SWAP1 PUSH4 0xFFFFFFFF AND JUMP JUMPDEST SWAP1 POP PUSH0 DUP2 MLOAD GT ISZERO PUSH2 0xD5B JUMPI DUP1 DUP1 PUSH1 0x20 ADD SWAP1 MLOAD DUP2 ADD SWAP1 PUSH2 0xD1B SWAP2 SWAP1 PUSH2 0x1150 JUMP JUMPDEST PUSH2 0xD5A JUMPI PUSH1 0x40 MLOAD PUSH32 0x8C379A000000000000000000000000000000000000000000000000000000000 DUP2 MSTORE PUSH1 0x4 ADD PUSH2 0xD51 SWAP1 PUSH2 0x1612 JUMP JUMPDEST PUSH1 0x40 MLOAD DUP1 SWAP2 SUB SWAP1 REVERT JUMPDEST JUMPDEST POP POP POP JUMP JUMPDEST PUSH1 0x60 PUSH2 0xD6E DUP5 DUP5 PUSH0 DUP6 PUSH2 0xD77 JUMP JUMPDEST SWAP1 POP SWAP4 SWAP3 POP POP POP JUMP JUMPDEST PUSH1 0x60 DUP3 SELFBALANCE LT ISZERO PUSH2 0xDBC JUMPI PUSH1 0x40 MLOAD PUSH32 0x8C379A000000000000000000000000000000000000000000000000000000000 DUP2 MSTORE PUSH1 0x4 ADD PUSH2 0xDB3 SWAP1 PUSH2 0x16A0 JUMP JUMPDEST PUSH1 0x40 MLOAD DUP1 SWAP2 SUB SWAP1 REVERT JUMPDEST PUSH0 PUSH0 DUP7 PUSH20 0xFFFFFFFFFFFFFFFFFFFFFFFFFFFFFFFFFFFFFFFF AND DUP6 DUP8 PUSH1 0x40 MLOAD PUSH2 0xDE4 SWAP2 SWAP1 PUSH2 0x16F8 JUMP JUMPDEST PUSH0 PUSH1 0x40 MLOAD DUP1 DUP4 SUB DUP2 DUP6 DUP8 GAS CALL SWAP3 POP POP POP RETURNDATASIZE DUP1 PUSH0 DUP2 EQ PUSH2 0xE1E JUMPI PUSH1 0x40 MLOAD SWAP2 POP PUSH1 0x1F NOT PUSH1 0x3F RETURNDATASIZE ADD AND DUP3 ADD PUSH1 0x40 MSTORE RETURNDATASIZE DUP3 MSTORE RETURNDATASIZE PUSH0 PUSH1 0x20 DUP5 ADD RETURNDATACOPY PUSH2 0xE23 JUMP JUMPDEST PUSH1 0x60 SWAP2 POP JUMPDEST POP SWAP2 POP SWAP2 POP PUSH2 0xE34 DUP8 DUP4 DUP4 DUP8 PUSH2 0xE40 JUMP JUMPDEST SWAP3 POP POP POP SWAP5 SWAP4 POP POP POP POP JUMP JUMPDEST PUSH1 0x60 DUP4 ISZERO PUSH2 0xEA1 JUMPI PUSH0 DUP4 MLOAD SUB PUSH2 0xE99 JUMPI PUSH2 0xE59 DUP6 PUSH2 0xEB4 JUMP JUMPDEST PUSH2 0xE98 JUMPI PUSH1 0x40 MLOAD PUSH32 0x8C379A000000000000000000000000000000000000000000000000000000000 DUP2 MSTORE PUSH1 0x4 ADD PUSH2 0xE8F SWAP1 PUSH2 0x1758 JUMP JUMPDEST PUSH1 0x40 MLOAD DUP1 SWAP2 SUB SWAP1 REVERT JUMPDEST JUMPDEST DUP3 SWAP1 POP PUSH2 0xEAC JUMP JUMPDEST PUSH2 0xEAB DUP4 DUP4 PUSH2 0xED6 JUMP JUMPDEST JUMPDEST SWAP5 SWAP4 POP POP POP POP JUMP JUMPDEST PUSH0 PUSH0 DUP3 PUSH20 0xFFFFFFFFFFFFFFFFFFFFFFFFFFFFFFFFFFFFFFFF AND EXTCODESIZE GT SWAP1 POP SWAP2 SWAP1 POP JUMP JUMPDEST PUSH0 DUP3 MLOAD GT ISZERO PUSH2 0xEE8 JUMPI DUP2 MLOAD DUP1 DUP4 PUSH1 0x20 ADD REVERT JUMPDEST DUP1 PUSH1 0x40 MLOAD PUSH32 0x8C379A000000000000000000000000000000000000000000000000000000000 DUP2 MSTORE PUSH1 0x4 ADD PUSH2 0xF1C SWAP2 SWAP1 PUSH2 0x17B8 JUMP JUMPDEST PUSH1 0x40 MLOAD DUP1 SWAP2 SUB SWAP1 REVERT JUMPDEST PUSH1 0x40 MLOAD DUP1 PUSH1 0x40 ADD PUSH1 0x40 MSTORE DUP1 PUSH0 PUSH20 0xFFFFFFFFFFFFFFFFFFFFFFFFFFFFFFFFFFFFFFFF AND DUP2 MSTORE PUSH1 0x20 ADD PUSH0 DUP2 MSTORE POP SWAP1 JUMP JUMPDEST PUSH0 PUSH0 REVERT JUMPDEST PUSH0 PUSH20 0xFFFFFFFFFFFFFFFFFFFFFFFFFFFFFFFFFFFFFFFF DUP3 AND SWAP1 POP SWAP2 SWAP1 POP JUMP JUMPDEST PUSH0 PUSH2 0xF80 DUP3 PUSH2 0xF57 JUMP JUMPDEST SWAP1 POP SWAP2 SWAP1 POP JUMP JUMPDEST PUSH2 0xF90 DUP2 PUSH2 0xF76 JUMP JUMPDEST DUP2 EQ PUSH2 0xF9A JUMPI PUSH0 PUSH0 REVERT JUMPDEST POP JUMP JUMPDEST PUSH0 DUP2 CALLDATALOAD SWAP1 POP PUSH2 0xFAB DUP2 PUSH2 0xF87 JUMP JUMPDEST SWAP3 SWAP2 POP POP JUMP JUMPDEST PUSH0 PUSH1 0x20 DUP3 DUP5 SUB SLT ISZERO PUSH2 0xFC6 JUMPI PUSH2 0xFC5 PUSH2 0xF53 JUMP JUMPDEST JUMPDEST PUSH0 PUSH2 0xFD3 DUP5 DUP3 DUP6 ADD PUSH2 0xF9D JUMP JUMPDEST SWAP2 POP POP SWAP3 SWAP2 POP POP JUMP JUMPDEST PUSH2 0xFE5 DUP2 PUSH2 0xF76 JUMP JUMPDEST DUP3 MSTORE POP POP JUMP JUMPDEST PUSH0 PUSH1 0x20 DUP3 ADD SWAP1 POP PUSH2 0xFFE PUSH0 DUP4 ADD DUP5 PUSH2 0xFDC JUMP JUMPDEST SWAP3 SWAP2 POP POP JUMP JUMPDEST PUSH0 DUP2 SWAP1 POP SWAP2 SWAP1 POP JUMP JUMPDEST PUSH2 0x1016 DUP2 PUSH2 0x1004 JUMP JUMPDEST DUP2 EQ PUSH2 0x1020 JUMPI PUSH0 PUSH0 REVERT JUMPDEST POP JUMP JUMPDEST PUSH0 DUP2 CALLDATALOAD SWAP1 POP PUSH2 0x1031 DUP2 PUSH2 0x100D JUMP JUMPDEST SWAP3 SWAP2 POP POP JUMP JUMPDEST PUSH0 PUSH0 PUSH1 0x40 DUP4 DUP6 SUB SLT ISZERO PUSH2 0x104D JUMPI PUSH2 0x104C PUSH2 0xF53 JUMP JUMPDEST JUMPDEST PUSH0 PUSH2 0x105A DUP6 DUP3 DUP7 ADD PUSH2 0xF9D JUMP JUMPDEST SWAP3 POP POP PUSH1 0x20 PUSH2 0x106B DUP6 DUP3 DUP7 ADD PUSH2 0x1023 JUMP JUMPDEST SWAP2 POP POP SWAP3 POP SWAP3 SWAP1 POP JUMP JUMPDEST PUSH0 DUP2 SWAP1 POP SWAP2 SWAP1 POP JUMP JUMPDEST PUSH2 0x1087 DUP2 PUSH2 0x1075 JUMP JUMPDEST DUP3 MSTORE POP POP JUMP JUMPDEST PUSH0 PUSH1 0x20 DUP3 ADD SWAP1 POP PUSH2 0x10A0 PUSH0 DUP4 ADD DUP5 PUSH2 0x107E JUMP JUMPDEST SWAP3 SWAP2 POP POP JUMP JUMPDEST PUSH0 DUP2 MLOAD SWAP1 POP PUSH2 0x10B4 DUP2 PUSH2 0x100D JUMP JUMPDEST SWAP3 SWAP2 POP POP JUMP JUMPDEST PUSH0 PUSH1 0x20 DUP3 DUP5 SUB SLT ISZERO PUSH2 0x10CF JUMPI PUSH2 0x10CE PUSH2 0xF53 JUMP JUMPDEST JUMPDEST PUSH0 PUSH2 0x10DC DUP5 DUP3 DUP6 ADD PUSH2 0x10A6 JUMP JUMPDEST SWAP2 POP POP SWAP3 SWAP2 POP POP JUMP JUMPDEST PUSH2 0x10EE DUP2 PUSH2 0x1004 JUMP JUMPDEST DUP3 MSTORE POP POP JUMP JUMPDEST PUSH0 PUSH1 0x40 DUP3 ADD SWAP1 POP PUSH2 0x1107 PUSH0 DUP4 ADD DUP6 PUSH2 0xFDC JUMP JUMPDEST PUSH2 0x1114 PUSH1 0x20 DUP4 ADD DUP5 PUSH2 0x10E5 JUMP JUMPDEST SWAP4 SWAP3 POP POP POP JUMP JUMPDEST PUSH0 DUP2 ISZERO ISZERO SWAP1 POP SWAP2 SWAP1 POP JUMP JUMPDEST PUSH2 0x112F DUP2 PUSH2 0x111B JUMP JUMPDEST DUP2 EQ PUSH2 0x1139 JUMPI PUSH0 PUSH0 REVERT JUMPDEST POP JUMP JUMPDEST PUSH0 DUP2 MLOAD SWAP1 POP PUSH2 0x114A DUP2 PUSH2 0x1126 JUMP JUMPDEST SWAP3 SWAP2 POP POP JUMP JUMPDEST PUSH0 PUSH1 0x20 DUP3 DUP5 SUB SLT ISZERO PUSH2 0x1165 JUMPI PUSH2 0x1164 PUSH2 0xF53 JUMP JUMPDEST JUMPDEST PUSH0 PUSH2 0x1172 DUP5 DUP3 DUP6 ADD PUSH2 0x113C JUMP JUMPDEST SWAP2 POP POP SWAP3 SWAP2 POP POP JUMP JUMPDEST PUSH0 DUP2 SWAP1 POP SWAP2 SWAP1 POP JUMP JUMPDEST PUSH0 PUSH2 0x119E PUSH2 0x1199 PUSH2 0x1194 DUP5 PUSH2 0xF57 JUMP JUMPDEST PUSH2 0x117B JUMP JUMPDEST PUSH2 0xF57 JUMP JUMPDEST SWAP1 POP SWAP2 SWAP1 POP JUMP JUMPDEST PUSH0 PUSH2 0x11AF DUP3 PUSH2 0x1184 JUMP JUMPDEST SWAP1 POP SWAP2 SWAP1 POP JUMP JUMPDEST PUSH0 PUSH2 0x11C0 DUP3 PUSH2 0x11A5 JUMP JUMPDEST SWAP1 POP SWAP2 SWAP1 POP JUMP JUMPDEST PUSH2 0x11D0 DUP2 PUSH2 0x11B6 JUMP JUMPDEST DUP3 MSTORE POP POP JUMP JUMPDEST PUSH0 PUSH1 0x60 DUP3 ADD SWAP1 POP PUSH2 0x11E9 PUSH0 DUP4 ADD DUP7 PUSH2 0x11C7 JUMP JUMPDEST PUSH2 0x11F6 PUSH1 0x20 DUP4 ADD DUP6 PUSH2 0x10E5 JUMP JUMPDEST PUSH2 0x1203 PUSH1 0x40 DUP4 ADD DUP5 PUSH2 0x10E5 JUMP JUMPDEST SWAP5 SWAP4 POP POP POP POP JUMP JUMPDEST PUSH32 0x4E487B7100000000000000000000000000000000000000000000000000000000 PUSH0 MSTORE PUSH1 0x41 PUSH1 0x4 MSTORE PUSH1 0x24 PUSH0 REVERT JUMPDEST PUSH32 0x4E487B7100000000000000000000000000000000000000000000000000000000 PUSH0 MSTORE PUSH1 0x32 PUSH1 0x4 MSTORE PUSH1 0x24 PUSH0 REVERT JUMPDEST PUSH0 PUSH8 0xFFFFFFFFFFFFFFFF DUP3 AND SWAP1 POP SWAP2 SWAP1 POP JUMP JUMPDEST PUSH2 0x1281 DUP2 PUSH2 0x1265 JUMP JUMPDEST DUP3 MSTORE POP POP JUMP JUMPDEST PUSH0 DUP2 MLOAD SWAP1 POP SWAP2 SWAP1 POP JUMP JUMPDEST PUSH0 DUP3 DUP3 MSTORE PUSH1 0x20 DUP3 ADD SWAP1 POP SWAP3 SWAP2 POP POP JUMP JUMPDEST DUP3 DUP2 DUP4 MCOPY PUSH0 DUP4 DUP4 ADD MSTORE POP POP POP JUMP JUMPDEST PUSH0 PUSH1 0x1F NOT PUSH1 0x1F DUP4 ADD AND SWAP1 POP SWAP2 SWAP1 POP JUMP JUMPDEST PUSH0 PUSH2 0x12C9 DUP3 PUSH2 0x1287 JUMP JUMPDEST PUSH2 0x12D3 DUP2 DUP6 PUSH2 0x1291 JUMP JUMPDEST SWAP4 POP PUSH2 0x12E3 DUP2 DUP6 PUSH1 0x20 DUP7 ADD PUSH2 0x12A1 JUMP JUMPDEST PUSH2 0x12EC DUP2 PUSH2 0x12AF JUMP JUMPDEST DUP5 ADD SWAP2 POP POP SWAP3 SWAP2 POP POP JUMP JUMPDEST PUSH0 DUP2 MLOAD SWAP1 POP SWAP2 SWAP1 POP JUMP JUMPDEST PUSH0 DUP3 DUP3 MSTORE PUSH1 0x20 DUP3 ADD SWAP1 POP SWAP3 SWAP2 POP POP JUMP JUMPDEST PUSH0 DUP2 SWAP1 POP PUSH1 0x20 DUP3 ADD SWAP1 POP SWAP2 SWAP1 POP JUMP JUMPDEST PUSH2 0x1329 DUP2 PUSH2 0xF76 JUMP JUMPDEST DUP3 MSTORE POP POP JUMP JUMPDEST PUSH2 0x1338 DUP2 PUSH2 0x1004 JUMP JUMPDEST DUP3 MSTORE POP POP JUMP JUMPDEST PUSH1 0x40 DUP3 ADD PUSH0 DUP3 ADD MLOAD PUSH2 0x1352 PUSH0 DUP6 ADD DUP3 PUSH2 0x1320 JUMP JUMPDEST POP PUSH1 0x20 DUP3 ADD MLOAD PUSH2 0x1365 PUSH1 0x20 DUP6 ADD DUP3 PUSH2 0x132F JUMP JUMPDEST POP POP POP POP JUMP JUMPDEST PUSH0 PUSH2 0x1376 DUP4 DUP4 PUSH2 0x133E JUMP JUMPDEST PUSH1 0x40 DUP4 ADD SWAP1 POP SWAP3 SWAP2 POP POP JUMP JUMPDEST PUSH0 PUSH1 0x20 DUP3 ADD SWAP1 POP SWAP2 SWAP1 POP JUMP JUMPDEST PUSH0 PUSH2 0x1398 DUP3 PUSH2 0x12F7 JUMP JUMPDEST PUSH2 0x13A2 DUP2 DUP6 PUSH2 0x1301 JUMP JUMPDEST SWAP4 POP PUSH2 0x13AD DUP4 PUSH2 0x1311 JUMP JUMPDEST DUP1 PUSH0 JUMPDEST DUP4 DUP2 LT ISZERO PUSH2 0x13DD JUMPI DUP2 MLOAD PUSH2 0x13C4 DUP9 DUP3 PUSH2 0x136B JUMP JUMPDEST SWAP8 POP PUSH2 0x13CF DUP4 PUSH2 0x1382 JUMP JUMPDEST SWAP3 POP POP PUSH1 0x1 DUP2 ADD SWAP1 POP PUSH2 0x13B0 JUMP JUMPDEST POP DUP6 SWAP4 POP POP POP POP SWAP3 SWAP2 POP POP JUMP JUMPDEST PUSH0 PUSH1 0xA0 DUP4 ADD PUSH0 DUP4 ADD MLOAD DUP5 DUP3 SUB PUSH0 DUP7 ADD MSTORE PUSH2 0x1404 DUP3 DUP3 PUSH2 0x12BF JUMP JUMPDEST SWAP2 POP POP PUSH1 0x20 DUP4 ADD MLOAD DUP5 DUP3 SUB PUSH1 0x20 DUP7 ADD MSTORE PUSH2 0x141E DUP3 DUP3 PUSH2 0x12BF JUMP JUMPDEST SWAP2 POP POP PUSH1 0x40 DUP4 ADD MLOAD DUP5 DUP3 SUB PUSH1 0x40 DUP7 ADD MSTORE PUSH2 0x1438 DUP3 DUP3 PUSH2 0x138E JUMP JUMPDEST SWAP2 POP POP PUSH1 0x60 DUP4 ADD MLOAD PUSH2 0x144D PUSH1 0x60 DUP7 ADD DUP3 PUSH2 0x1320 JUMP JUMPDEST POP PUSH1 0x80 DUP4 ADD MLOAD DUP5 DUP3 SUB PUSH1 0x80 DUP7 ADD MSTORE PUSH2 0x1465 DUP3 DUP3 PUSH2 0x12BF JUMP JUMPDEST SWAP2 POP POP DUP1 SWAP2 POP POP SWAP3 SWAP2 POP POP JUMP JUMPDEST PUSH0 PUSH1 0x40 DUP3 ADD SWAP1 POP PUSH2 0x1485 PUSH0 DUP4 ADD DUP6 PUSH2 0x1278 JUMP JUMPDEST DUP2 DUP2 SUB PUSH1 0x20 DUP4 ADD MSTORE PUSH2 0x1497 DUP2 DUP5 PUSH2 0x13EA JUMP JUMPDEST SWAP1 POP SWAP4 SWAP3 POP POP POP JUMP JUMPDEST PUSH2 0x14A9 DUP2 PUSH2 0x1075 JUMP JUMPDEST DUP2 EQ PUSH2 0x14B3 JUMPI PUSH0 PUSH0 REVERT JUMPDEST POP JUMP JUMPDEST PUSH0 DUP2 MLOAD SWAP1 POP PUSH2 0x14C4 DUP2 PUSH2 0x14A0 JUMP JUMPDEST SWAP3 SWAP2 POP POP JUMP JUMPDEST PUSH0 PUSH1 0x20 DUP3 DUP5 SUB SLT ISZERO PUSH2 0x14DF JUMPI PUSH2 0x14DE PUSH2 0xF53 JUMP JUMPDEST JUMPDEST PUSH0 PUSH2 0x14EC DUP5 DUP3 DUP6 ADD PUSH2 0x14B6 JUMP JUMPDEST SWAP2 POP POP SWAP3 SWAP2 POP POP JUMP JUMPDEST PUSH0 PUSH1 0x60 DUP3 ADD SWAP1 POP PUSH2 0x1508 PUSH0 DUP4 ADD DUP7 PUSH2 0x107E JUMP JUMPDEST PUSH2 0x1515 PUSH1 0x20 DUP4 ADD DUP6 PUSH2 0x10E5 JUMP JUMPDEST PUSH2 0x1522 PUSH1 0x40 DUP4 ADD DUP5 PUSH2 0x10E5 JUMP JUMPDEST SWAP5 SWAP4 POP POP POP POP JUMP JUMPDEST PUSH1 0x20 DUP3 ADD PUSH0 DUP3 ADD MLOAD PUSH2 0x153E PUSH0 DUP6 ADD DUP3 PUSH2 0x132F JUMP JUMPDEST POP POP POP POP JUMP JUMPDEST PUSH0 PUSH1 0x20 DUP3 ADD SWAP1 POP PUSH2 0x1557 PUSH0 DUP4 ADD DUP5 PUSH2 0x152A JUMP JUMPDEST SWAP3 SWAP2 POP POP JUMP JUMPDEST PUSH0 PUSH1 0x60 DUP3 ADD SWAP1 POP PUSH2 0x1570 PUSH0 DUP4 ADD DUP7 PUSH2 0xFDC JUMP JUMPDEST PUSH2 0x157D PUSH1 0x20 DUP4 ADD DUP6 PUSH2 0xFDC JUMP JUMPDEST PUSH2 0x158A PUSH1 0x40 DUP4 ADD DUP5 PUSH2 0x10E5 JUMP JUMPDEST SWAP5 SWAP4 POP POP POP POP JUMP JUMPDEST PUSH0 DUP3 DUP3 MSTORE PUSH1 0x20 DUP3 ADD SWAP1 POP SWAP3 SWAP2 POP POP JUMP JUMPDEST PUSH32 0x5361666545524332303A204552433230206F7065726174696F6E20646964206E PUSH0 DUP3 ADD MSTORE PUSH32 0x6F74207375636365656400000000000000000000000000000000000000000000 PUSH1 0x20 DUP3 ADD MSTORE POP JUMP JUMPDEST PUSH0 PUSH2 0x15FC PUSH1 0x2A DUP4 PUSH2 0x1592 JUMP JUMPDEST SWAP2 POP PUSH2 0x1607 DUP3 PUSH2 0x15A2 JUMP JUMPDEST PUSH1 0x40 DUP3 ADD SWAP1 POP SWAP2 SWAP1 POP JUMP JUMPDEST PUSH0 PUSH1 0x20 DUP3 ADD SWAP1 POP DUP2 DUP2 SUB PUSH0 DUP4 ADD MSTORE PUSH2 0x1629 DUP2 PUSH2 0x15F0 JUMP JUMPDEST SWAP1 POP SWAP2 SWAP1 POP JUMP JUMPDEST PUSH32 0x416464726573733A20696E73756666696369656E742062616C616E636520666F PUSH0 DUP3 ADD MSTORE PUSH32 0x722063616C6C0000000000000000000000000000000000000000000000000000 PUSH1 0x20 DUP3 ADD MSTORE POP JUMP JUMPDEST PUSH0 PUSH2 0x168A PUSH1 0x26 DUP4 PUSH2 0x1592 JUMP JUMPDEST SWAP2 POP PUSH2 0x1695 DUP3 PUSH2 0x1630 JUMP JUMPDEST PUSH1 0x40 DUP3 ADD SWAP1 POP SWAP2 SWAP1 POP JUMP JUMPDEST PUSH0 PUSH1 0x20 DUP3 ADD SWAP1 POP DUP2 DUP2 SUB PUSH0 DUP4 ADD MSTORE PUSH2 0x16B7 DUP2 PUSH2 0x167E JUMP JUMPDEST SWAP1 POP SWAP2 SWAP1 POP JUMP JUMPDEST PUSH0 DUP2 SWAP1 POP SWAP3 SWAP2 POP POP JUMP JUMPDEST PUSH0 PUSH2 0x16D2 DUP3 PUSH2 0x1287 JUMP JUMPDEST PUSH2 0x16DC DUP2 DUP6 PUSH2 0x16BE JUMP JUMPDEST SWAP4 POP PUSH2 0x16EC DUP2 DUP6 PUSH1 0x20 DUP7 ADD PUSH2 0x12A1 JUMP JUMPDEST DUP1 DUP5 ADD SWAP2 POP POP SWAP3 SWAP2 POP POP JUMP JUMPDEST PUSH0 PUSH2 0x1703 DUP3 DUP5 PUSH2 0x16C8 JUMP JUMPDEST SWAP2 POP DUP2 SWAP1 POP SWAP3 SWAP2 POP POP JUMP JUMPDEST PUSH32 0x416464726573733A2063616C6C20746F206E6F6E2D636F6E7472616374000000 PUSH0 DUP3 ADD MSTORE POP JUMP JUMPDEST PUSH0 PUSH2 0x1742 PUSH1 0x1D DUP4 PUSH2 0x1592 JUMP JUMPDEST SWAP2 POP PUSH2 0x174D DUP3 PUSH2 0x170E JUMP JUMPDEST PUSH1 0x20 DUP3 ADD SWAP1 POP SWAP2 SWAP1 POP JUMP JUMPDEST PUSH0 PUSH1 0x20 DUP3 ADD SWAP1 POP DUP2 DUP2 SUB PUSH0 DUP4 ADD MSTORE PUSH2 0x176F DUP2 PUSH2 0x1736 JUMP JUMPDEST SWAP1 POP SWAP2 SWAP1 POP JUMP JUMPDEST PUSH0 DUP2 MLOAD SWAP1 POP SWAP2 SWAP1 POP JUMP JUMPDEST PUSH0 PUSH2 0x178A DUP3 PUSH2 0x1776 JUMP JUMPDEST PUSH2 0x1794 DUP2 DUP6 PUSH2 0x1592 JUMP JUMPDEST SWAP4 POP PUSH2 0x17A4 DUP2 DUP6 PUSH1 0x20 DUP7 ADD PUSH2 0x12A1 JUMP JUMPDEST PUSH2 0x17AD DUP2 PUSH2 0x12AF JUMP JUMPDEST DUP5 ADD SWAP2 POP POP SWAP3 SWAP2 POP POP JUMP JUMPDEST PUSH0 PUSH1 0x20 DUP3 ADD SWAP1 POP DUP2 DUP2 SUB PUSH0 DUP4 ADD MSTORE PUSH2 0x17D0 DUP2 DUP5 PUSH2 0x1780 JUMP JUMPDEST SWAP1 POP SWAP3 SWAP2 POP POP JUMP INVALID LOG2 PUSH5 0x6970667358 0x22 SLT KECCAK256 RETURNCONTRACT 0x6 DUP13 GASPRICE 0xC6 BALANCE PUSH32 0x8235EEA5EDB9650929988F566A7EA77B2B5403574E710FB6D164736F6C634300 ADDMOD 0x1E STOP CALLER "
				},
				"gasEstimates": {
					"creation": {
						"codeDepositCost": "1231600",
						"executionCost": "infinite",
						"totalCost": "infinite"
					},
					"external": {
						"owner()": "2536",
						"renounceOwnership()": "infinite",
						"transferOwnership(address)": "infinite",
						"transferTokens(address,uint256)": "infinite",
						"withdrawToken(address)": "infinite"
					}
				},
				"methodIdentifiers": {
					"owner()": "8da5cb5b",
					"renounceOwnership()": "715018a6",
					"transferOwnership(address)": "f2fde38b",
					"transferTokens(address,uint256)": "bec3fa17",
					"withdrawToken(address)": "89476069"
				}
			},
			"storageLayout": {
				"storage": [
					{
						"astId": 872,
						"contract": "contracts/CCIPTokenSender_flattened.sol:CCIPTokenSender",
						"label": "_owner",
						"offset": 0,
						"slot": "0",
						"type": "t_address"
					}
				],
				"types": {
					"t_address": {
						"encoding": "inplace",
						"label": "address",
						"numberOfBytes": "20"
					}
				}
			},
			"userdoc": {
				"kind": "user",
				"methods": {},
				"notice": "THIS IS AN EXAMPLE CONTRACT THAT USES HARDCODED VALUES FOR CLARITY. THIS IS AN EXAMPLE CONTRACT THAT USES UN-AUDITED CODE. DO NOT USE THIS CODE IN PRODUCTION.",
				"version": 1
			}
		}
	}
}